:020000040800F2
:10000000008000205D220008911F0008951F000855
:10001000991F00089D1F0008A11F00080000000094
:10002000000000000000000000000000A51F000804
:10003000A91F000800000000AD1F0008B11F000844
:10004000AD220008AD220008AD220008AD22000854
:10005000AD220008AD220008AD220008AD22000844
:10006000AD220008AD220008AD220008B51F00082F
:10007000AD220008C11F0008AD220008AD22000813
:10008000AD22000800000000AD220008AD220008EB
:10009000AD220008AD220008AD220008AD22000804
:1000A000AD220008AD220008AD220008AD220008F4
:1000B000AD220008AD220008CD1F0008AD220008C7
:1000C000AD220008AD220008AD220008AD220008D4
:1000D000AD220008D91F0008AD220008AD2200089B
:1000E000AD220008AD220008AD220008AD220008B4
:1000F000AD220008AD220008AD220008000000007B
:1001000000000000AD22000800000000AD22000841
:10011000AD22000800000000AD220008AD2200085A
:10012000AD220008AD220008AD220008AD22000873
:10013000AD2200080000000000000000AD22000811
:10014000AD220008AD220008000000000000000001
:10015000000000000000000000000000000000009F
:10016000000000000000000000000000AD220008B8
:10017000AD220008000000000000000000000000A8
:1001800000000000AD220008000000000000000098
:10019000000000000000000000000000000000005F
:1001A0000000000000000000AD220008AD220008A1
:1001B000AD220008AD220008AD22000800000000BA
:1001C00000000000AD220008000000000000000058
:0801D000AD220008AD22000879
:1001D80010B5054C237833B9044B13B10448AFF379
:1001E80000800123237010BD700000200000000073
:1001F8006862000808B5034B1BB103490348AFF315
:10020800008008BD0000000074000020686200083B
:10021800034613F8012B002AFBD1181A013870473E
:1002280081F0004102E000BF83F0004330B54FEA9F
:1002380041044FEA430594EA050F08BF90EA020F0C
:100248001FBF54EA000C55EA020C7FEA645C7FEA9F
:10025800655C00F0E2804FEA5454D4EB5555B8BFC2
:100268006D420CDD2C4480EA020281EA030382EA33
:10027800000083EA010180EA020281EA0303362DC5
:1002880088BF30BD11F0004F4FEA01314FF4801C98
:100298004CEA113102D0404261EB410113F0004FAA
:1002A8004FEA03334CEA133302D0524263EB430361
:1002B80094EA050F00F0A780A4F10104D5F1200EFF
:1002C8000DDB02FA0EFC22FA05F2801841F100015A
:1002D80003FA0EF2801843FA05F359410EE0A5F12E
:1002E80020050EF1200E012A03FA0EFC28BF4CF05F
:1002F800020C43FA05F3C01851EBE37101F0004515
:1003080007D54FF0000EDCF1000C7EEB00006EEB21
:100318000101B1F5801F1BD3B1F5001F0CD34908AB
:100328005FEA30004FEA3C0C04F101044FEA445202
:1003380012F5800F80F09A80BCF1004F08BF5FEA89
:10034800500C50F1000041EB045141EA050130BD69
:100358005FEA4C0C404141EB010111F4801FA4F10C
:100368000104E9D191F0000F04BF01460020B1FA61
:1003780081F308BF2033A3F10B03B3F120020CDA99
:100388000C3208DD02F1140CC2F10C0201FA0CF077
:1003980021FA02F10CE002F11402D8BFC2F1200CDC
:1003A80001FA02F120FA0CFCDCBF41EA0C01904092
:1003B800E41AA2BF01EB0451294330BD6FEA0404DB
:1003C8001F3C1CDA0C340EDC04F11404C4F12002C6
:1003D80020FA04F001FA02F340EA030021FA04F3D8
:1003E80045EA030130BDC4F10C04C4F1200220FA2F
:1003F80002F001FA04F340EA0300294630BD21FA6D
:1004080004F0294630BD94F0000F83F4801306BF32
:1004180081F480110134013D4EE77FEA645C18BF26
:100428007FEA655C29D094EA050F08BF90EA020FBD
:1004380005D054EA000C04BF1946104630BD91EAB5
:10044800030F1EBF0021002030BD5FEA545C05D1B8
:100458004000494128BF41F0004130BD14F58004F7
:100468003CBF01F5801130BD01F0004545F0FE416B
:1004780041F470014FF0000030BD7FEA645C1ABFA0
:10048800194610467FEA655C1CBF0B46024650EAD7
:10049800013406BF52EA033591EA030F41F4002103
:1004A80030BD00BF90F0000F04BF0021704730B589
:1004B8004FF4806404F132044FF000054FF000015E
:1004C80050E700BF90F0000F04BF0021704730B51F
:1004D8004FF4806404F1320410F0004548BF4042F4
:1004E8004FF000013EE700BF42004FEAE2014FEA49
:1004F80031014FEA02701FBF12F07F4393F07F4F24
:1005080081F06051704732F07F4208BF704793F026
:100518007F4F04BF41F40021704730B54FF4607439
:1005280001F0004521F000411CE700BF50EA01023C
:1005380008BF704730B54FF000050AE050EA0102E5
:1005480008BF704730B511F0004502D5404261EB55
:1005580041014FF4806404F132045FEA915C3FF496
:10056800D8AE4FF003025FEADC0C18BF03325FEA33
:10057800DC0C18BF033202EBDC02C2F1200300FAE4
:1005880003FC20FA02F001FA03FE40EA0E0021FA09
:1005980002F11444BDE600BF70B54FF0FF0C4CF4F7
:1005A800E06C1CEA11541DBF1CEA135594EA0C0FA9
:1005B80095EA0C0F00F0DEF82C4481EA030621EAE4
:1005C8004C5123EA4C5350EA013518BF52EA03351F
:1005D80041F4801143F4801338D0A0FB02CE4FF0D1
:1005E8000005E1FB02E506F00042E0FB03E54FF001
:1005F8000006E1FB03569CF0000F18BF4EF0010EF9
:10060800A4F1FF04B6F5007F64F5407404D25FEAF4
:100618004E0E6D4146EB060642EAC62141EA5551A7
:100628004FEAC52040EA5E504FEACE2EB4F1FD0CE9
:1006380088BFBCF5E06F1ED8BEF1004F08BF5FEA67
:10064800500E50F1000041EB045170BD06F0004619
:1006580046EA010140EA020081EA0301B4EB5C04C6
:10066800C2BFD4EB0C0541EA045170BD41F48011BE
:100678004FF0000E013C00F3AB8014F1360FDEBFE3
:10068800002001F0004170BDC4F10004203C35DABF
:100698000C341BDC04F11404C4F1200500FA05F342
:1006A80020FA04F001FA05F240EA020001F00042E3
:1006B80021F0004110EBD37021FA04F642EB060159
:1006C8005EEA430E08BF20EAD37070BDC4F10C0483
:1006D800C4F1200500FA04F320FA05F001FA04F247
:1006E80040EA020001F0004110EBD37041F1000133
:1006F8005EEA430E08BF20EAD37070BDC4F120053E
:1007080000FA05F24EEA020E20FA04F301FA05F2A5
:1007180043EA020321FA04F001F0004121FA04F24D
:1007280020EA020000EBD3705EEA430E08BF20EA1D
:10073800D37070BD94F0000F0FD101F00046400057
:1007480041EB010111F4801F08BF013CF7D041EAD9
:10075800060195F0000F18BF704703F000465200DD
:1007680043EB030313F4801F08BF013DF7D043EAAE
:100778000603704794EA0C0F0CEA135518BF95EA64
:100788000C0F0CD050EA410618BF52EA4306D1D1EB
:1007980081EA030101F000414FF0000070BD50EA0A
:1007A800410606BF1046194652EA430619D094EA94
:1007B8000C0F02D150EA013613D195EA0C0F05D17E
:1007C80052EA03361CBF104619460AD181EA0301D2
:1007D80001F0004141F0FE4141F470014FF000008A
:1007E80070BD41F0FE4141F4780170BD70B54FF025
:1007F800FF0C4CF4E06C1CEA11541DBF1CEA1355A5
:1008080094EA0C0F95EA0C0F00F0A7F8A4EB050486
:1008180081EA030E52EA03354FEA013100F088807D
:100828004FEA03334FF0805545EA131343EA126346
:100838004FEA022245EA111545EA10654FEA0026FB
:100848000EF000419D4208BF964244F1FD0404F5B4
:10085800407402D25B084FEA3202B61A65EB030510
:100868005B084FEA32024FF480104FF4002CB6EBCD
:10087800020E75EB030E22BFB61A754640EA0C004D
:100888005B084FEA3202B6EB020E75EB030E22BF8D
:10089800B61A754640EA5C005B084FEA3202B6EBCE
:1008A800020E75EB030E22BFB61A754640EA9C008D
:1008B8005B084FEA3202B6EB020E75EB030E22BF5D
:1008C800B61A754640EADC0055EA060E18D04FEA1B
:1008D800051545EA16754FEA06164FEAC30343EABB
:1008E80052734FEAC2025FEA1C1CC0D111F4801F88
:1008F8000BD141EA00014FF000004FF0004CB6E781
:1009080011F4801F04BF01430020B4F1FD0C88BF1F
:10091800BCF5E06F3FF6AFAEB5EB030C04BFB6EB2A
:10092800020C5FEA500C50F1000041EB045170BD1D
:100938000EF0004E4EEA113114EB5C04C2BFD4EB4A
:100948000C0541EA045170BD41F480114FF0000ECE
:10095800013C90E645EA060E8DE60CEA135594EA4A
:100968000C0F08BF95EA0C0F3FF43BAF94EA0C0F4D
:100978000AD150EA01347FF434AF95EA0C0F7FF4C2
:1009880025AF104619462CE795EA0C0F06D152EA16
:1009980003353FF4FDAE1046194622E750EA4106FA
:1009A80018BF52EA43067FF4C5AE50EA41047FF40B
:1009B8000DAF52EA43057FF4EBAE12E74FEA41026E
:1009C80012F5001215D211D56FF47873B3EB625299
:1009D80012D94FEAC12343F0004343EA505311F0C0
:1009E800004F23FA02F018BF404270474FF0000052
:1009F800704750EA013005D111F0004008BF6FF090
:100A0800004070474FF00000704700BF53B94AB923
:100A1800002908BF00281CBF4FF0FF314FF0FF30FE
:100A280000F072B9ADF1080C6DE904CE00F006F8DB
:100A3800DDF804E0DDE9022304B070472DE9F04752
:100A4800089E04468846002B4BD18A42154667D932
:100A5800B2FA82F24AB1C2F1200701FA02F320FA8F
:100A680007F7954047EA030894404FEA154E230CD0
:100A7800B8FBFEF71FFA85FC0EFB178843EA08430C
:100A880007FB0CF1994209D9EB1807F1FF3080F008
:100A98001B81994240F21881023F2B445B1AA4B291
:100AA800B3FBFEF00EFB103344EA034400FB0CFCDE
:100AB800A44509D92C1900F1FF3380F00781A4451A
:100AC80040F2048102382C4440EA0740A4EB0C04AD
:100AD80000271EB1D4400023C6E900433946BDE8CB
:100AE800F0878B4209D9002E00F0EB800027C6E979
:100AF800000138463946BDE8F087B3FA83F7002F7E
:100B080047D18B4202D3824200F2FA80841A61EB09
:100B1800030301209846002EE0D0C6E90048DDE72F
:100B280002B9FFDEB2FA82F2002A40F08F80491B38
:100B38004FEA154E1FFA85F80127B1FBFEFC230C7E
:100B48000EFB1C1143EA014308FB0CF1994207D93B
:100B5800EB180CF1FF3002D2994200F2CD808446A6
:100B6800591AA3B2B1FBFEF00EFB101443EA044479
:100B780008FB00F8A04507D92C1900F1FF3302D271
:100B8800A04500F2B6801846A4EB080440EA0C40E1
:100B98009FE7C7F1200CBB4022FA0CFE4EEA030E79
:100BA80001FA07F420FA0CF521FA0CF34FEA1E4873
:100BB8002543B3FBF8F92C0C08FB19331FFA8EFAFE
:100BC80044EA034309FB0AF49C4202FA07F200FADA
:100BD80007F10BD91EEB030309F1FF3080F0878082
:100BE8009C4240F28480A9F1020973441B1BADB2F8
:100BF800B3FBF8F008FB103345EA034400FB0AFA9C
:100C0800A24508D91EEB040400F1FF336BD2A245BC
:100C180069D90238744440EA0940A0FB0289A4EB70
:100C28000A044C45C2464B4654D351D0002E69D0D5
:100C3800B1EB0A0564EB030404FA0CFCFD40FC402C
:100C48004CEA0505C6E90054002747E7C2F120032E
:100C580020FA03F7954001FA02F021FA03F34FEA6C
:100C6800154E3843010CB3FBFEF71FFA85F80EFB4F
:100C7800173341EA034107FB08F38B4204FA02F4F5
:100C880007D9691807F1FF3C2FD28B422DD9023FB3
:100C98002944CB1A81B2B3FBFEF00EFB103341EAB4
:100CA800034100FB08F38B4207D9691800F1FF3CA8
:100CB80017D28B4215D902382944C91A40EA074786
:100CC8003BE73746304609E70746E7E61846FBE6BE
:100CD8004145ABD2B8EB020A69EB0E020138134664
:100CE800A4E76046E9E7184695E76746D1E78146F5
:100CF8007CE702382C4447E7ACF1020C2B442FE781
:100D0800384608E73746E9E6704700BF30B50024A3
:100D18008DB02146202204A8CDE90144039405F0B2
:100D280099F9244B4FF4001108204FF480524FF0EA
:100D3800A045C3E90244C3E904441C7783F824406E
:100D4800C3E90B44DC6459601C244FF4807198613A
:100D5800DA63184601221D60C3E911415A771A6205
:100D680083F8382083F840201A6501F0FBFAE8B9C7
:100D7800002301A90F48019301F098FF98B90E4B81
:100D88000493062500237F24042204A90948099313
:100D9800CDE90553CDE9074201F0E6FC08B100F0C2
:100DA800F1FE0DB030BD00F0EDFEE8E700F0EAFE20
:100DB800DEE700BF480100201000C01030B589B040
:100DC80020220021684605F045F91F4B1F4A1A608A
:100DD8004FF4001408204FF480521C215C60986185
:100DE8004FF48074DA6359640022012118469C6428
:100DF800C3E90222C3E904221A7783F82420C3E94D
:100E08000B22DA645977196283F8381083F8401096
:100E1800196501F0A7FA98B90D4B00930625002330
:100E28007F240422694608480593CDE90153CDE99A
:100E3800034201F099FC08B100F0A4FE09B030BDEE
:100E480000F0A0FEE8E700BFDC0000200001005031
:100E58000200300470B502688AB00023B2F1A04FD6
:100E68000546CDE90533CDE9073309933AD0374B29
:100E78009A4201D00AB070BD354A13680133012B7C
:100E8800136058D0334B344CDA6C42F00102DA6408
:100E9800DB6C03F0010304930122032305A94FF03F
:100EA8009040CDE90523049E02F044FC2B4B2360BF
:100EB80024224FF4807380204FF480616260636164
:100EC800202200232061C4E906122046C4E9023327
:100ED800236202F0ADFA08B100F054FE6C65A56219
:100EE8000AB070BD1A4A13680133012B136017D07A
:100EF800184B1B4CDA6C42F00102DA64DB6C03F02D
:100F0800010302930C22032305A94FF09040CDE979
:100F18000523029E02F00EFC124B23600522C8E74F
:100F28000C4BDA6C42F40052DA64DB6C03F40053C5
:100F38000193019BDCE7074BDA6C42F40052DA6458
:100F4800DB6C03F400530393039B9BE70001005001
:100F58008C0000200010024014020020080002400B
:100F6800B40100203000024008B50A4B0A4A0B4978
:100F78001A6018460022C3E90121C3E90322C3E924
:100F8800052201F0FDFE00B908BDBDE8084000F0EB
:100F9800F9BD00BF7402002000020140300080004B
:100FA80010B50168114A86B000239142CDE901339A
:100FB800CDE90333059301D006B010BD03F180439A
:100FC80003F5043301A9DA6C42F00102DA64DB6C40
:100FD80003F001030093022203234FF09040009C8A
:100FE800CDE9012302F0A6FB06B010BD00020140C6
:100FF80038B50E4B0E4A1A6040F2011141F2210237
:1010080008200025202499809A6080210122D86038
:101018001846C3E9045499611A6202F005F800B948
:1010280038BDBDE8384000F0ADBD00BF98020020D3
:10103800003002400268094B9A4200D07047A3F57D
:10104800005382B09A6C42F480529A649B6C03F409
:1010580080530193019B02B0704700BF00300240EB
:1010680070B58CB068463022002104F0F3FF1248B6
:10107800124B036002F092F8D0B900230024002537
:10108800CDE90245CDE9044502260124002569463B
:101098001A4609488DF804308DF805300096CDE9D8
:1010A800064502F0DDF808B100F06CFD0CB070BD2B
:1010B80000F068FDE1E700BFBC0200200008005016
:1010C80010B50168164A88B000239142CDE9033370
:1010D800CDE90533079301D008B010BD03F1804373
:1010E80003F5043303A9DA6C42F48032DA64DA6C6B
:1010F80002F480320192019ADA6C42F00102DA6459
:10110800DB6C03F001030293102203234FF090409D
:10111800029CCDE9032302F00DFB08B010BD00BF0F
:1011280000080050134B00B59A6C42F004029A6410
:101138009A6C83B002F004020092009A9A6C42F012
:1011480001029A649B6C002203F00103114601938B
:101158000B20019B01F0CAFE0B2001F0FDFE0022CE
:1011680011460D2001F0C2FE0D2003B05DF804EB1E
:1011780001F0F2BE0010024010B5002486B0CDE99F
:101188000144CDE90344104B0594DA6C42F00102A6
:10119800DA64DB6C03F00103009301224FF4006171
:1011A8004FF09040009B02F0A1FB4FF40062012336
:1011B80001A94FF09040CDE90344CDE9012302F0A5
:1011C800B9FA06B010BD00BF0010024000222DE998
:1011D800F04702720446D1E905306260984204F192
:1011E80008020E46226000F0F5807E4D043B04386C
:1011F800082753F8042F117829B192F83420082AC7
:101208009CBFAA5CBF188342F3D1BB1EDDB2F9B202
:1012180005F03F0848F0400801F1FF3A0022204657
:1012280004F0A0FE23689F221A70236883F80180C7
:101238002368328A9A70338A22681B12D370236813
:10124800728A1A71738A22681B12537123680022EA
:101258009A71D6E90516B142D4F8008067D0DFF854
:1012680084C107203BE00B6893F83520B3F936902A
:1012780023685201B9F1000F02F06002C9F3042992
:1012880042EA0902B4BF6FF07F094FF0000949EA4A
:101298000202BEF1020F00F1030903F808205FFA09
:1012A80089F83ED00A682368B2F93690BEF1030F78
:1012B8004FEA294900F1040203F808905FFA82F81E
:1012C8002FD00A682368B2F93620121603F80820CE
:1012D8000530D4F80080C0B204318E4227D00B68A4
:1012E8001A78002AF8D093F83430082BF4D81CF870
:1012F80003E00EF1FF3EBEF1000FEDDD43EA0213FD
:1013080008F80030431C0F682268B7F83690DBB243
:1013180000F10208BEF1010F02F803905FFA88F8A5
:10132800A1D104318E424046D4F80080D7D108EBD1
:101338000A00002D4AD06B1ED9B201314246414401
:10134800002512F8013F6B4013F0800F4FEA43036A
:1013580018BF83F00703DBB213F0800F4FEA430393
:1013680018BF83F00703DBB213F0800F4FEA430383
:1013780018BF83F00703DBB213F0800F4FEA430373
:1013880018BF83F00703DBB213F0800F4FEA430363
:1013980018BF83F00703DBB213F0800F4FEA430353
:1013A80018BF83F00703DBB213F0800F4FEA430343
:1013B80018BF83F00703DBB213F0800F4FEA430333
:1013C80018BF83F007039142DDB2BAD105702046F9
:1013D800BDE8F0874FF0070A4FF0460806250821B8
:1013E8001CE700BF806200082DE9F043D1E905231E
:1013F8009A428DB0044600F108084CD068460E4663
:10140800FFF7E4FE019D08350023EDB21A46294690
:1014180008AF06A807938DF82030069704F0A2FDC0
:10142800069B3B221A70069B01225A70069B9D70F0
:10143800726A069BD278DA70069E3A233371019B52
:101448007371019A12BBA5F1020931464A461A483E
:1014580001F02EFE069B03F80900069B1D44000AB6
:1014680005F8010C069BC4F80080BB421BD0089A03
:101478002360A260079B0098636002AB984201D08A
:1014880004F084FC20460DB0BDE8F0830099B01D3F
:1014980004F0C7FDD7E70023C0E9008303722046A4
:1014A8000DB0BDE8F0830FCFA060C8F80410C8F8ED
:1014B8000820C8F80C30DDE7980200202DE9F04735
:1014C80000F108034FF00009C0E9003980F80890DE
:1014D800136A96681E44F6B206F10A0804465FFAD3
:1014E80088F817468A464A46414604F03BFD22687A
:1014F8009F21117006F10803DDB2236805F03F0251
:101508005A702368BAF810209A70BAF81030226816
:101518001B12D3702368BAF812201A71BAF8123065
:1015280022681B125371236883F8069023683A785F
:10153800DA713B6AB968226803F0030343EAC1031E
:101548001372BB682068002B55D13A6A002A5CD117
:1015580008F1FF310144002D49D0F21DD2B2013209
:101568000244002510F8013F6B4013F0800F4FEA4A
:10157800430318BF83F00703DBB213F0800F4FEA71
:10158800430318BF83F00703DBB213F0800F4FEA61
:10159800430318BF83F00703DBB213F0800F4FEA51
:1015A800430318BF83F00703DBB213F0800F4FEA41
:1015B800430318BF83F00703DBB213F0800F4FEA31
:1015C800430318BF83F00703DBB213F0800F4FEA21
:1015D800430318BF83F00703DBB213F0800F4FEA11
:1015E800430318BF83F007039042DDB2BAD10D70F0
:1015F8002046BDE8F0871A460930796804F011FDE5
:101608003A6ABB682068002AA2D009331844F969ED
:1016180004F007FD20689BE72DE9F0430646D1E971
:10162800052082428DB0A0EB020306F108075DD0C9
:101638000D46991095F84000431CDBB28B4285F8A3
:10164800403028BF002352F8202028BF85F84030BA
:1016580029466846FFF732FF019C08340023E4B2AC
:101668001A4621460DF1200806A807938DF8203068
:10167800CDF8188004F076FC069B3B221A70069B76
:1016880001225A70069B9C706A6A069BD278DA70AF
:10169800069D3A232B71019B6B71019A0ABBA4F139
:1016A800020929464A46194801F002FD069B03F83B
:1016B8000900069B1C44000A04F8010C069B3760CD
:1016C80043451BD0089A3360B260079B009873604B
:1016D80002AB984201D004F059FB30460DB0BDE88A
:1016E800F0830099A81D04F09CFCD8E7002330463D
:1016F800C6E9007333720DB0BDE8F083B8E80F0097
:10170800B0607960BA60FB60DFE700BF9802002034
:10171800F0B590F82030013B93B004460D46052BF8
:101728001AD8DFE803F0141C254D7C03C38F03EBA4
:101738000525D0E909126948E58701F0B9FCE38F6E
:1017480083426FD0012084F8200013B0F0BDA1F1CE
:101758003D03012B40F28480002013B0F0BD012925
:1017680000F083800123002084F8203013B0F0BDFE
:10177800CB1EDBB2022B80F83C30F3D9D4E9092721
:1017880004F12C039A4218BFE36A07F1010608BF67
:101798000F239E4209D901220023009239461A4696
:1017A80004F1240004F056FB626AD555636AA66208
:1017B80000229A5594F82030062B29D1012329E0DC
:1017C800D0E9091700F12C03994290F83C2018BF82
:1017D800C36A07F1010608BF0F23013A9E4280F849
:1017E8003C2008D901220023009239461A462430A9
:1017F80004F030FB616ACD55636AA66200229A55EF
:1018080094F83C30022BA7D894F82030062BD5D07A
:101818000133DBB2002084F8203013B0F0BD06237A
:10182800E187F7E7636A1B793B2B8BD03A2B21467C
:101838003ED00CA8FFF7D8FDDDE90C21A368CDE95F
:101848000421002B47D0E368204605AA04A998473D
:101858000C980EAB98423FF475AF04F097FA71E715
:10186800426A00238362137088E7D0E9092600F1F1
:101878002C039A4218BFC36A06F1010508BF0F235B
:101888009D4208D901220023009231461A4624308D
:1018980004F0E0FA626A01239355626AA5620021A6
:1018A800515594F82020062AB4D0D318DBB2B1E7FA
:1018B80006A8FFF7B1FEDDE90621A368CDE90221FC
:1018C8004BB1E368204603AA02A99847069808ABDB
:1018D8009842C2D136E704F054FB00BF98020020BA
:1018E800012A08BF01600020704700BF12880968FC
:1018F80002484FF47A7303F0D5B800BF1C030020E8
:10190800F0B500F1080683B00660044608460F46A5
:10191800FEF77EFC0F28054601900BD8012818D148
:101928003B782372019B2268636000212046D154D2
:1019380003B0F0BD002201A9204604F037FA019B4C
:1019480020600646A3602A463946304604F05EFB0E
:10195800E8E70028E6D0F6E72DE9F043044683B02F
:1019680000F80C1BD2F8009060601E4655689DF880
:1019780028809DF82C70B9F1000F46D00F2D0195E5
:1019880024D8012D49D199F8003023730023A5608C
:101998004355D6E9009504F12400E061B9F1000F40
:1019A80038D00F2D019520D8012D39D199F8003064
:1019B80084F824300023256243552046E38684F8C2
:1019C800348084F8357003B0BDE8F083002201A9A3
:1019D800201D04F0EBF9019B6060E3602A4649464C
:1019E80004F014FB019D6068D0E7002201A904F10E
:1019F8001C0004F0DBF9019BE06163622A4649465A
:101A080004F004FB019DE069D4E7002DB6D0064838
:101A180004F0C1F9002DC4D0F9E7002DB6D0DDE7F8
:101A2800002DC7D0EAE700BF8C6200080000000064
:101A3800F8B50268284B9A4200D0F8BD274B284CCD
:101A48001888284DFEF73EFD0022274BFEF7A4FD1F
:101A58000022264BFEF7A0FD0022254BFEF7E4FBF3
:101A680019A3D3E90023FEF7C1FEC4E90001214B05
:101A78001888FEF727FD00221B4BFEF78DFD00227C
:101A88001A4BFEF789FD12A3D3E90023FEF7AEFE39
:101A9800194BC3E90001D4E90001D3E90023FEF79B
:101AA8007BFD164BC3E90001D4E90001D5E90067C5
:101AB8000022134BFEF79AFE32463B46FEF7B6FB72
:101AC800C5E90001F8BD00BFFA7E6ABC7493883F7F
:101AD800FE858DB90F31AE3F000800409800002008
:101AE800B0000020A8000020000008400000303F9F
:101AF8000000F83F90000020C0000020B80000203F
:101B08000080764030B50021A5B00C4605A83822E3
:101B180004F0A0FA2146442213A8CDE90044CDE9F7
:101B28000244049404F096FA4FF4007001F0E4FEC5
:101B38004FF4807502234021142205A80593CDE9AE
:101B48000C330E93CDE910331293CDE908510F925F
:101B580001F050FF032319460F226846CDE9002300
:101B6800CDE90244049402F097F948F201024FF0DB
:101B7800005313A8CDE91324229302F05DFB25B08E
:101B880030BD00BF704700BF70B5D1E90025002304
:101B9800AD1AC0E900338360AB100E46044606D088
:101BA800B3F1804F16D2284604F0D6F80346C4E9AC
:101BB80000331D44A560D6E900129142A2EB01054D
:101BC80004D018462A4604F02CFA03462B446360D6
:101BD800204670BD04F0DCF82DE9F04FA1B000F00C
:101BE80089FBFFF78FFFFFF7C7FAFFF79BFAFFF7AD
:101BF8008DF8FFF7E3F8FFF7B7F9FFF731FA00F0D0
:101C0800B7FA00F027FAFFF7F3F97F21B14800F09F
:101C1800FDFF7F21B04800F0F9FF0021AF4801F037
:101C2800D3FA002240F2EF731146AC4801F000FBF2
:101C38000122AB49A74800F0A3FC0122A949A64804
:101C480000F09EFC09AC00224FF400614FF0904078
:101C580001F04CFE0FAEA4492046FFF751FEA34900
:101C68003046FFF74DFE382004F076F86425002151
:101C780033462246CDE900510390FFF76DFE0F98D9
:101C88000DF1440B584501D004F080F809980BADCC
:101C9800A84201D004F07AF895492046FFF730FEB3
:101CA80094493046FFF72CFE382004F055F80121FE
:101CB800CDE90011334622460746FFF74DFE0F983F
:101CC800584501D004F062F80998A84201D004F000
:101CD8005DF889492046FFF713FE88493046FFF72B
:101CE8000FFE382004F038F801230221CDE9003135
:101CF800224633468046FFF72FFE0F98584501D0FD
:101D080004F044F80998A84201D004F03FF87C494F
:101D18002046FFF7F5FD7B493046FFF7F1FD3820F7
:101D280004F01AF801230022CDE9003203213346DA
:101D380022468146FFF710FE0F98584501D004F05F
:101D480025F80998A84201D004F020F86E492046E9
:101D5800FFF7D6FD6D493046FFF7D2FD382003F076
:101D6800FBFF01230022CDE900320421334622463D
:101D78008246FFF7F1FD0F98584501D004F006F8A8
:101D88000998A84201D004F001F8039BCDF84CA0B3
:101D980000251420CDE90F37CDE91189CDE9065585
:101DA800089503F0D9FFB6468446BEE80F00CCF884
:101DB8000000DEF80000CCF81000CCF804100CF19C
:101DC800140E06A92046CCF80820CCF80C30CDF823
:101DD80018C0CDE907EEFFF7D7FE4D4B1393214608
:101DE80014A81195FFF7D0FE0998199501221AAB8E
:101DF8008DF868508DF878508DF87C508DF85C20FF
:101E0800189308B103F0C2FF94E8030004AB83E819
:101E1800030096E8030084E8030093E80300119B9D
:101E28003C4D3D4A0B9386E80300129911950C919D
:101E380012921BB103222146204698473748DFF803
:101E4800E8B0374C374D02F0E1FB4FF47A730122CA
:101E58003549364802F0B2FE236835490133D1E9E5
:101E6800000100222360334BFEF796FBFEF7A6FD28
:101E78003149324BF8860022D1E90001FEF78CFB8C
:101E8800FEF79CFD2E4BA8F83600D3E90001FEF7BB
:101E980095FD2C4BAAF83600D3E90001FEF78EFD1C
:101EA8009BF80010A9F836003046FFF731FC2B7874
:101EB8001BB928B101232B70C7E70028C5D0F9E763
:101EC8002368B3F5FA6FC0D9039000F01BF90398A3
:101ED8002060BAE748010020DC000020BC02002096
:101EE8009000002098000020B8620008E462000812
:101EF800C4620008CC620008D0620008D8620008FA
:101F0800DC620008E8620008EC620008F46200087D
:101F1800A1A45D55E9180008F5180008D0020020B2
:101F2800A0000020A4000020C80000201C030020FE
:101F3800B000002000002440C000002000005940EC
:101F4800B8000020A80000200D4B0E491A6E42F080
:101F580001021A661A6E82B002F001020092009A1B
:101F68009A6D42F080529A659B6D03F080530193FD
:101F7800019B8B6843F480438B6002B0704700BFBD
:101F88000010024000700040704700BFFEE700BF2D
:101F9800FEE700BFFEE700BFFEE700BF704700BFD7
:101FA800704700BF704700BF00F0B8B9014801F0A2
:101FB80071BB00BF14020020014801F06BBB00BFD9
:101FC800B4010020014802F011BC00BFD00200207B
:101FD800014802F09BBE00BF1C030020012070478F
:101FE80008B503F0D9FF162303604FF0FF3008BD92
:101FF80008B503F0D1FF16230360FEE70C4A08B5C5
:10200800136833B118446946884208D810601846E6
:1020180008BD084B1360184469468842F6D903F096
:10202800BBFF0C2303604FF0FF33184608BD00BF09
:10203800CC000020B0030020054BD3F888204FF0D7
:10204800006142F47002C3F888209960704700BFAD
:1020580000ED00E000B5194A194B136089B04F2311
:1020680042F20F71536010460023C2E90231049313
:10207800019313619361CDE905330793CDE90233E9
:1020880002F026FAB8B94FF4805304A90B48049318
:1020980002F0DCFA60B9002301A908480193039310
:1020A80002F09EFC08B1FFF76DFD09B05DF804FB76
:1020B800FFF768FDEFE7FFF765FDE4E7D0020020D2
:1020C8000008004002680E4B9A4200D0704703F5A2
:1020D800023300B59A6D42F004029A659B6D83B095
:1020E800002203F00403019311461E20019B00F017
:1020F800FDFE1E2003B05DF804EB00F02DBF00BF0D
:1021080000080040184B194A10B50C211A604FF40A
:10211800FA34002218465C605961C3E902221A6148
:10212800C3E90622C3E908229A6202F039FFC0B95E
:1021380000210D4803F06CFD80B900210A4803F026
:10214800B9FD40B9084803F019FD00B910BDBDE854
:102158001040FFF717BDFFF715FDF3E7FFF712FD76
:10216800EBE7FFF70FFDE3E71C0300200038014011
:10217800184B194A10B50C211A604FF47A34002212
:1021880018465C605961C3E902221A61C3E9062254
:10219800C3E908229A6202F003FFC0B900210D4882
:1021A80003F036FD80B900210A4803F083FD40B9E9
:1021B800084803F0E3FC00B910BDBDE81040FFF784
:1021C800E1BCFFF7DFFCF3E7FFF7DCFCEBE7FFF729
:1021D800D9FCE3E71C0300200038014070B5026811
:1021E8001B4B88B000249A42CDE90344CDE905444D
:1021F800079401D008B070BD03F558434FF4007040
:102208001A6E42F480421A661A6E02F480420192F3
:10221800019ADA6C42F00102DA64DB6C039003F095
:102228000103029303A90723032212254FF09040CC
:10223800CDE90623029E049501F07CFA2246214648
:10224800252000F053FE252000F086FE08B070BD62
:10225800003801400D4885460D480E490E4A0023B6
:1022680002E0D458C4500433C4188C42F9D30B4A42
:102278000B4C002301E013600432A242FBD3FFF7AA
:10228800DBFE03F08FFEFFF7A7FCFEE700800020CF
:102298000000002070000020686300087000002023
:1022A800B0030020FEE7000038B50F4B1B680BB9E0
:1022B800012038BD0D494FF47A720546B2FBF3F39D
:1022C8000868B0FBF3F000F055FE04460028EFD193
:1022D8000F2DEDD8024629464FF0FF3000F006FEDC
:1022E800034B20461D6038BD04000020000000207C
:1022F8000800002000B5032083B000F0E5FD0020B1
:10230800FFF7D2FF18B1012003B05DF804FB01907C
:10231800FFF71AFE019803B05DF804FB034A04496D
:10232800136809680B441360704700BFA8030020B6
:1023380004000020014B1868704700BFA803002064
:1023480038B50446FFF7F6FF631C054602D0044B78
:102358001B681C44FFF7EEFF401BA042FAD338BDB0
:102368000400002070B582B000230193002800F01B
:10237800A180C56D0446002D00F091802268936805
:102388009D0005D5936823F0204323F03F03936015
:102398009368D80017D4754B91681B6874489B09DB
:1023A80021F01041A0FB030321F03F019B0941F0FC
:1023B800805191600193019B2BB1019B013B0193DB
:1023C800019B002BF9D19368D9005AD4E36D43F0EF
:1023D8001003E365236E43F001032366936813F04B
:1023E800040F4FF00100E36D52D1DB0650D4E36DCA
:1023F80023F4817343F00203E3659368DE0709D48D
:102408004FF0A0435B499B688968CD0703F001033F
:1024180040F18380D4E90215E36B2B430B43657FBE
:1024280094F8241043EA4533012943EA014303D1D0
:10243800A16A013943EA4143E16A21B1256B01F4FC
:10244800787129430B43D6684B49656B31400B4380
:10245800D360136923F040632B43136193685907D2
:102468002BD593686369012B4FD0136B23F00F03AF
:102478001363E36D23F0030343F00103E36502B044
:1024880070BD936813F0040F4FF00000E36DACD0FB
:10249800E36D012043F01003E36502B070BDFEF761
:1024A800D9FC22682566936884F858509D007FF50A
:1024B8006FAF67E7012002B070BD93681B07D1D4E6
:1024C800D16894F83830267F256921F480415B0073
:1024D80021F0020143EA86330B43D36013693DB30D
:1024E80043F480331361D2F8C03023F47F5323F0D0
:1024F8003F032B43C2F8C03094F84030012B23D05F
:10250800136923F001031361ACE7116B236A21F00F
:102518000F01013B0B431363ABE7002B7FF47AAF4A
:10252800164965688B6823F47C132B438B6071E72D
:1025380023F480331361D2F8C03023F47F5323F09F
:102548003F03C2F8C030D7E7D4E91131E66C256DF6
:102558000B43116943F00103334321F4FF612B431B
:1025680021F004010B4313617CE700BF0000002049
:10257800632D3E05000100500740F0FF00030050A6
:102588002DE9F0474A4B06689D68B3685C0728D474
:1025980090F85830012B24D005F01F050123092D90
:1025A80090460F46044680F8583005D9002384F831
:1025B80058300120BDE8F08740F22123EB40D807CE
:1025C800F4D5B368D9070FD4B2683A4B1A4247D04A
:1025D800E36D43F01003E365236E43F001032366C4
:1025E800E4E70220BDE8F087E36D334A23F4706323
:1025F80023F0010343F480739642E3654ED0E36D04
:1026080023F48013E365E36D606D2C492C4A13F4C1
:1026180080531CBF236E23F006032366294BC36235
:102628001C23C0E90C1233607368002243F01003C6
:1026380084F858207360F16841F0010143463A4636
:10264800F16006F1400100F08BFF2268936823F0E7
:10265800004323F03F0343F004039360BDE8F08791
:10266800B368194A134043F00103B3609246FFF779
:1026780061FE814626683368DB07B5D4B368DA079C
:102688000FD4B36803EA0A0343F00103B360FFF70A
:1026980051FEA0EB09000228ECD999E7002DAED035
:1026A800B1E7FFF747FEA0EB09000228E2D98FE760
:1026B800000300503F00008000010050DD260008A4
:1026C80055270008ED260008C0FFFF7F704700BFB0
:1026D800704700BF08B5806AFFF7FAFF08BD00BF62
:1026E800704700BF836ADA6D12F0500F10B5DA6DCB
:1026F8001DD1196842F40072DA650A6812F0080FF1
:10270800CA681BD012F4406F0DD1CA6894040AD469
:10271800DA6D22F48072DA65DA6DD10403D4DA6DE9
:1027280042F00102DA651846FFF7D0FF10BDD20665
:1027380007D45B6DBDE810405B6B18479007F2D477
:10274800E6E71846FFF7CCFF10BD00BF806A08B562
:10275800C36D43F04003C365036E43F0040303668F
:10276800FFF7BEFF08BD00BF2DE9F041034682B068
:1027780093F858200020012A019000F003811C687A
:10278800A2680120560783F858004FD4D1E90020E9
:10279800860904F1300506F00C0600F01F00775991
:1027A8004FF01F0C0CFA00FCC2F3846227EA0C07F6
:1027B80082403A437251A268550749D5A2680A680F
:1027C800A068C00713D4CE68C148D4F8B050DFF869
:1027D80028C306F01807F840C2F31207104025EA8C
:1027E800070528436645C4F8B00000F08B80B94956
:1027F8000A422BD0B84DB949A8688A4200F0E07661
:102808001ED0B7498A421BD0B6498A4240F0BE80E2
:1028180010F080701AD1B44A944217D0AA6822F0F6
:10282800E072164346F08076AE6003E0DA6D42F05F
:102838002002DA65002283F8582002B0BDE8F08152
:10284800020203D4B4F1A04F00F0CB800020F1E7DE
:10285800A5680A6815F00805B2D18E68C2F3045E4F
:102868000720D20D00FA0EF0B6F1004F02F0040274
:102878006FEA000004F1140C00F01A8152F80C7091
:1028880006FA0EF63840064342F80C60626922F0F8
:1028980000426261D1F810C0E7680A68BCF1040F11
:1028A80004F1600000F0BB804E6950F82C80DFF81E
:1028B8004CE2C7F3C1077F0002F0F84242F0004241
:1028C800BE40164308EA0E0E46EA0E0640F82C6093
:1028D8000F698E6950F8272091F81CC022F0807289
:1028E800324340F827200E6950F82620BCF1010F2A
:1028F80022F0007208BF4FF00075154340F82650CB
:102908000A685DE7002F55D092FAA2F0B0FA80F07D
:10291800013000F01F00092800F2F28092FAA2F6B6
:10292800B6FA86F692FAA2F0B0FA80F001300136D3
:10293800012500F01F00B60605FA00F006F0F8467B
:10294800064392FAA2F5B5FA85F5013505F01F059B
:1029580005EB4500000530434FEAD05C0CF0040C51
:1029680004F11407C0F304505CF807508E6807227E
:10297800824025EA020506FA00F028434CF80700D1
:102988000A6834E7022002B0BDE8F08157498A425C
:102998007FF45CAF10F480007FF458AF524A944241
:1029A8003FF454AFAA6822F0E072324342F4800246
:1029B800AA603FE7920E013202F01F050126920637
:1029C80002F0F842AE40092D46EA020605EB450042
:1029D800C0D9A0F11E02120542F0007242EA0600B8
:1029E800BAE73D48424A8168424C21F0E0710E4303
:1029F80046F40006866012689209A4FB0212920946
:102A080002EB420292000192019A002A3FF41EAFA3
:102A1800019A013A0192019A002AF9D116E7256E26
:102A2800256EC2F31207C5F38465002F4AD1C2F39D
:102A38008466B54206D1226E22F0004222660A68F8
:102A4800C2F3120745684668C6F38466002F79D139
:102A5800C2F38465AE4240F09580426822F000429D
:102A680042600A6885688668C2F31205C6F3846600
:102A7800002D71D1C2F38465AE4200F10C077CD100
:102A8800826822F0004282600A6838683868C2F3B7
:102A98001205C0F38460002D6AD1C2F384658542B3
:102AA8007FF48EAE3A6822F000423A600A6887E600
:102AB80052F80C60304042F80C00626942F0004263
:102AC8006261E7E692FAA2F6B6FA86F6B1E700BFC7
:102AD800FFFF07000000088000030050000021C32A
:102AE8001000C090000052C700010050000084CBC5
:102AF80000000020632D3E0500007F4000F0FF032A
:102B080092FAA2F6B6FA86F692FAA2F0B0FA80F035
:102B180001300136012500F01F00B60605FA00F065
:102B280006F0F846064392FAA2F5B5FA85F501359E
:102B380005F01F0505EB4505A5F11E02120542F03B
:102B480000724BE792FAA2F5B5FA85F5AE4284D049
:102B580085688668C6F3846692FAA2F5B5FA85F5A3
:102B6800B54200F10C078BD0C568C068C0F384601B
:102B780092FAA2F5B5FA85F591E7C668C068C0F380
:102B880084608CE786688668C6F3846674E700BF4D
:102B980038B503689A68910702D59B68002038BD4C
:102BA8009A68D20726D59A6802F00D02012A09D040
:102BB800C36D43F01003C365036E43F0010303665E
:102BC800012038BD9A6822F0004222F03F0242F00C
:102BD800020203219A6019600446FFF7ABFB054621
:102BE80004E0FFF7A7FB401B022805D823689B6871
:102BF800DB07F6D4002038BDE36D43F01003E3652E
:102C0800236E43F001032366012038BD30B590F8E8
:102C1800583083B00022012B019235D0012380F86F
:102C2800583004460D46FFF7B3FFE36D20BB23F48D
:102C3800885323F0020322681B4943F00203E3652B
:102C4800936805F0804523F0404345F0004523F0A4
:102C58003F031D43956005E0019B01330193019BF0
:102C68008B4214D89368002BF6DBE36D23F0030343
:102C780043F00103E36502E043F01003E36500233A
:102C880084F8583003B030BD022003B030BDE36D86
:102C980023F0120343F0100300220120E36584F8B7
:102CA800582003B030BD00BF01DE040090F8582062
:102CB800012A47D0F0B504680E680346B4F1A04F66
:102CC8004FF0010083F8580007D0DA6D002142F078
:102CD8002002DA6583F85810F0BD274DAA6852071C
:102CE80009D5A268DA6D42F02002DA6501200022D7
:102CF80083F85820F0BDA06810F00400F2D11EB38C
:102D0800DFF878E04F68DEF8082093F838C022F43E
:102D180060423A4342EA4C32CEF80820A268D4070F
:102D280027D4A86810F0010021D1DEF808208C68AB
:102D380022F4716121F00F0146EA04020A43CEF839
:102D48000820D4E7022070470C4A916821F46041BA
:102D58009160A068A968C90700F0010007D430B9DC
:102D6800916821F4716121F00F019160BFE70020A3
:102D7800BDE7AA68BBE700BF000100500003005090
:102D8800F0B583B000230193002854D0026813687B
:102D9800002B04464FDB437F03F0FF01002B7ED05E
:102DA800D4E90163D4E903506169176833430B43DD
:102DB800166840492B43034331400B4313601368A3
:102DC800180201D53B024ED53B4B9A4262D00433E0
:102DD8009A426AD004339A4215BF6FF080426FF06E
:102DE80000524FF080414FF00051A3699F0725D052
:102DF800324DA868DE064CBF08431040A8602F4D2E
:102E0800E8689F064CBF08431040E8602B484161C2
:102E180045689E074CBF0D431540DB0745601DD52F
:102E2800264B1A6811431960637F03F0FF008BB1CA
:102E3800002003B0F0BD012003B0F0BD1F4B59685E
:102E48001140596019680A401A60637F03F0FF0057
:102E5800002BEDD10123637703B0F0BD17490B6850
:102E68001A400A60F1E7164B16491B689B09A1FB3B
:102E780003139B0903EB83039B000193019B002B26
:102E8800A2D0019B013B0193019B002BF9D10A4B76
:102E98009A429CD16FF400124FF40011A5E7017714
:102EA8000162FEF77DF822687AE76FF480024FF43A
:102EB80080019AE70F7E00FF0002014000040140F4
:102EC80000000020632D3E05074AD3684FF6FF0136
:102ED8000B40000243F0BF6300F4E06043F40033AA
:102EE8000343D360704700BF00ED00E0184BDB6878
:102EF800C3F3022330B4C3F10705042D03F104041E
:102F080028BF0425062C19D9033B4FF0FF349C40F9
:102F180022EA04044FF0FF32AA4021EA020101FA32
:102F280003F2224312010028D2B20ADB00F160400A
:102F380000F5614080F8002330BC70470024234628
:102F4800E8E7044B00F00F0003441A7630BC7047E2
:102F580000ED00E0FCEC00E0002807DB00F01F01BA
:102F680001234009024A8B4042F82030704700BFD5
:102F780000E100E00138B0F1807F0ED2084B10B4B8
:102F8800084C5860F02084F82300002207211046DE
:102F98009A6019605DF8044B70470120704700BFC4
:102FA80010E000E000ED00E02DE9F0415FEA920E4C
:102FB800076811D00C4601EB8E0C637894F80080FA
:102FC800E678A5781B0443EA08633343043443EAEC
:102FD8000523A4453B60F0D112F003020BD0012A6F
:102FE8001AD0022A0AD101EB8E0311F82E205B7841
:102FF80043EA02233B803868BDE8F08101EB8E028A
:1030080011F82E10537843EA01233B8093783B70E4
:1030180007683868BDE8F08111F82E303B70076802
:103028003868BDE8F08100BF00283CD0437F10B568
:1030380003F0FF020446FBB12379022262771BBB2F
:1030480023681A4A5A619A6822F018029A606279CB
:1030580022BB4FF0FF321A61D4E90520996821F0AC
:103068006001114399609A6822F0800202430121AD
:103078009A600020617710BD0277FDF7DBFF2379A6
:1030880002226277002BDBD0D4E90212204600F03E
:1030980051F830B962792368002ADAD022691A61B6
:1030A800DAE7012010BD0120704700BFB71DC10439
:1030B800F8B5022304684377A368D0F820C043F02A
:1030C8000103BCF1020F0646A3600D4617461BD04C
:1030D800BCF1030F0BD0BCF1010F03D0012300207A
:1030E8007377F8BDFFF760FF01237377F8BD3AB136
:1030F800043901EB820751F8043F23608F42FAD16B
:10310800206801237377F8BD5FEA520C0AD00B469A
:1031180001EB8C0019885A88043342EA014298422C
:103128002260F7D1FB0744BF35F82C302380206894
:10313800E7E700BF10B41E2302E013F1FF3321D3E9
:1031480021FA03F4E407F8D5182A1DD8DFE802F0BD
:103158000F1C1C1C1C1C1C1C231C1C1C1C1C1C1CAD
:103168000D1C1C1C1C1C1C1C2000072B0CD80068E8
:103178005DF8044B4161836823F018031A438260A9
:1031880000207047002AF2D001205DF8044B7047F8
:10319800062BECD9F8E70F2BE9D9F5E788B10379C5
:1031A80010B503F0FF0204463BB1002302210122BF
:1031B800217118462361227110BD4271FDF780FF0D
:1031C800F3E70120704700BFF8B54379012B2DD0F4
:1031D8000268022606710D4604461168012005F0B2
:1031E800100700FA07F30B4360711360FFF7A8F8A4
:1031F8002268136865B903F03E03B34203D15368EC
:1032080043F0010353600123002023716071F8BD6E
:10321800BE4003F47813B342F5D1536843F0020378
:1032280053600020012323716071F0E70220F8BD8C
:1032380010B483B0006800240194C46B019051B1AC
:10324800019914310A440192019A0020136003B0D5
:103258005DF8044B7047019908310A440192F3E77D
:103268004379012B00F0C4802DE9F0418F681446A2
:1032780002230122042F0E4605464271037179D0BC
:10328800036804F01004F269012A69D0D6E905C080
:10329800DA6B0721A14022F44048C2076FEA010116
:1032A8005AD500204FF4807247EA0C07A24096F8DE
:1032B80004C0074301EA0801D2437079BCF1010F49
:1032C80002EA01024FF40078316808BF47F48077BA
:1032D80008FA04F801286FEA080808BF47F40077DD
:1032E800022908EA020800F0858048EA0108A74098
:1032F80047EA0807DF631868D6E903124FF48046E7
:10330800A64020EA06001860186840F6FE76A64037
:1033180020EA060601FA04F0304318601868C0264F
:10332800A64020EA060018609201186EC1F38301D6
:1033380040F60F7602F470620A4306FA04F102FAC4
:1033480004F420EA01021443012100221C661046FD
:1033580029716A71BDE8F081820745D50120A1E78E
:10336800996B326A1F20A04021EA0001A2400A435B
:103378009A638BE7BCB9FEF7DDFF074604E0FEF76A
:10338800D9FFC01B01283ED82B685B6B1904F6D403
:103398000120FEF7D5FF2B68726A1A640DE0FEF76C
:1033A800C9FF01282FD82B685B6B002BF7DB0120A6
:1033B800FEF7C6FF2B68726A5A6404F010049A6C10
:1033C800B16AB76840F2FF30A04022EA0002A1408B
:1033D8000A439A64DA6CF16AFF20A04022EA0002EC
:1033E800A1400A43DA644EE7BCFA8CF0400959E779
:1033F8000220704700F0F6FE0B4B98420CD948F4B7
:1034080000482B6873E72B69032243F008032B61FC
:1034180010462A71BDE8F081044A2B6890427FF675
:1034280066AF48F4804862E70068890900B4C404BC
:1034380000287CD003463F4A006890422DE9F041BD
:1034480061D93D493D4A3E4C0144A2FB012109098D
:103458008900D3E902721E691C643A435C699D695C
:10346800DFF8F4E0DFF8CC8032434FF0020C22435F
:1034780083F825C0314CD0F800C0DE6959642A436E
:10348800C5B2083DA4FB05451C6A32432CF4FF4C29
:103498002C4E22432CF0700CC5F30414404598BF01
:1034A800764642EA0C0289080125DFF8B0C00260BE
:1034B80005FA04F406EB810EB7F5804F1C65C3E9E5
:1034C80012EC29D05868C2B20138032846F82120E6
:1034D800CCF8044026D81C491C4898651144013A88
:1034E800890002F01F0205FA02F200245965DA6524
:1034F8000C60426000200122D86383F8240083F81E
:103508002520BDE8F08112490C4A124C0144A2FB67
:103518000121090989009CE700225A6046F8212008
:10352800CCF804400022C3E91522DA65E2E701205D
:10353800704700BF07040240F8FBFDBFCDCCCCCCE0
:1035480000040240200802403F8200104009024067
:10355800F8FFFDBF0000024000080240800802405A
:10356800F0B490F82440012C4AD090F82540012569
:10357800AC4280F824503DD10468C76C022600256F
:1035880080F82560C5632668D0E914C526F00106D1
:103598002660C7F804C015B1D0E916677760466C95
:1035A800D0F808C006F01F070126BE40076C7E60F1
:1035B8006360036BBCF1100F0BBFA260A160E160F8
:1035C800E26003B3236843F00E032360836C1A6838
:1035D800D20303D51A6842F480721A601DB12B68B1
:1035E80043F480732B60236843F0010323600020B9
:1035F800F0BC7047002380F82430F0BC02207047EC
:103608000220F0BC7047236823F00403236023687A
:1036180043F00A032360D9E790F82530022B70B5F0
:103628000AD0012204230021C363144680F8252010
:1036380080F82410204670BD0368856C1968C66C34
:1036480021F00E01D0E910421960196821F001013A
:1036580019602B68416D23F480732B6002F01F0200
:1036680001239340026D6360726031B10B68D0E949
:10367800162423F480730B605460836B01220024AA
:1036880080F8252080F8244013B19847204670BD63
:103698001C46CFE770B4D0E910630422316805688E
:1036A80003F01F039A400A422C680AD014F0040F52
:1036B80007D02B689B0637D5036B7260CBB170BC03
:1036C800184702229A400A4215D014F0020F12D06D
:1036D8002B68990606D42B68012123F00A032B6076
:1036E80080F82510C36A7260002280F82420002B1D
:1036F800E5D170BC704708229A400A42F9D02207E7
:10370800F7D52A68416B22F00E022A60012202FADC
:1037180003F300247360C26380F8244080F82520F6
:103728000029E6D070BC08472B6823F004032B60FF
:10373800C2E700BF2DE9F04FD1F800E083B0BEF139
:10374800000F00F08180DFF8A09188460026012351
:1037580003FA06F212EA0E0772D0D8E9011421F032
:10376800100B06FA03FC0BF1FF35032303FA0CFADE
:10377800012D6FEA0A0A04FA0CF468D9C3680AEA48
:1037880003031C43C460026801F0030302EA0A0A47
:1037980003FA0CF343EA0A03CD00036050D54C4A00
:1037A800136E43F001031366136E26F0030404F14D
:1037B800804403F0010304F58034019306F0030309
:1037C800019AA5689B000F229A40B0F1904F25EA14
:1037D800020213D03F4DA8426BD03F4DA84263D0A0
:1037E8003E4DA8426AD03E4DA8426CD03D4DA842FD
:1037F8000CBF0525062505FA03F31A43A260D9F87C
:103808000030FA43CC0354BF13403B43C9F800309F
:10381800D9F804308D0354BF13403B43C9F8043032
:10382800D9F80830CC0254BF13403B43C9F80830DC
:10383800D9F80C30890254BF13403B43C9F80C3007
:1038480001363EFA06F382D103B0BDE8F08F8368F3
:10385800D8F80C5003EA0A0305FA0CF51D438560F5
:103868004368C1F3001523EA02032A46B2401A430B
:103878004260C36803EA0A031C43BBF1020FC46039
:1038880081D1F40800EB840406F00703256AD8F810
:1038980010209B004FF00F0B0BFA03FB25EA0B05DA
:1038A8009A402A4322626EE7022505FA03F31A4377
:1038B800A4E7012505FA03F31A439FE7032505FA50
:1038C80003F31A439AE7042505FA03F31A4395E725
:1038D800001002400004004800080048000C00489E
:1038E8000010004800140048000401400AB9816231
:1038F80070478161704700BF3B4A10B4136868B9CC
:1039080003F4C063B3F5806F14D0D2F880305DF84B
:10391800044B23F48073C2F880307047B0F5007F01
:103928002FD023F4C06343F48063136000205DF854
:10393800044B7047D2F880102C4B2D4821F480712D
:10394800C2F88010116821F4C06141F4007111605F
:103958001C685169322303FB04F3A0FB03039B0C8F
:10396800480503F1010306D500E023B15169490573
:1039780003F1FF33F9D41C4B5B695C05D6D50320F2
:10398800D5E703F4C063B3F5806F09D0D2F880306F
:103998005DF8044B43F480730020C2F88030704710
:1039A800D2F88010114B124841F48071C2F880108F
:1039B800116821F4C06141F4007111601C685169FB
:1039C800322303FB04F3A0FB03039B0C480503F11C
:1039D8000103D0D501E0002BCDD05169490503F191
:1039E800FF33C8D5F7E700BF007000400000002093
:1039F80083DE1B43002800F06C812DE9F041036849
:103A0800D90782B004462DD5B7498A68C96802F03B
:103A18000C020C2A00F0F580082A00F0F780636891
:103A2800B3F5803F00F02E81B3F5A02F00F0E081C0
:103A3800AD4D2A6822F480322A602A6822F4802256
:103A48002A60002B40F02381FEF774FC064605E04F
:103A5800FEF770FC801B642800F237812B689F03F7
:103A6800F6D423689E0700F1A5801A0719D5636963
:103A78009D4D002B00F0D780D5F8943043F001031A
:103A8800C5F89430FEF756FC064605E0FEF752FCF2
:103A9800801B022800F21981D5F894309F07F5D5CC
:103AA800236859073FD5904B9A6DD20000F12B81BE
:103AB8009A6D42F080529A659B6D03F08053019392
:103AC800019B0126894D2A68D70540F1EE80A3683D
:103AD800012B00F01A81052B00F0CB81824DD5F81F
:103AE800902022F00102C5F89020D5F8902022F00D
:103AF8000402C5F89020002B40F00E81FEF71AFC56
:103B080041F28837804606E0FEF714FCA0EB080077
:103B1800B84200F2DA80D5F890309A07F4D4002E33
:103B280040F0238123689B0618D5A3696E4D002BAE
:103B380000F00781D5F8983043F00103C5F89830B4
:103B4800FEF7F8FB064605E0FEF7F4FB801B0228AB
:103B580000F2BB80D5F898309F07F5D5E06928B307
:103B6800614DAA6802F00C020C2A00F04E812A6806
:103B7800022822F080722A6000F0FD80EA6822F0B4
:103B88000302EA60EA6822F0887222F48032EA606E
:103B9800FEF7D0FB2C46054605E0FEF7CBFB401BA5
:103BA800022800F2928023689B01F6D4002002B01C
:103BB800BDE8F0814C4A9368D26803F00C030C2BE3
:103BC80045D0042B47D0E368474D002B00F0838095
:103BD8002B6843F480732B60FEF7ACFB064604E0C9
:103BE800FEF7A8FB801B02286FD82B685805F7D56D
:103BF8006B68226923F0FE4343EA02636B60236823
:103C080033E701F0030103297FF409AF364A12684C
:103C180092037FF527AF6268002A7FF423AF012063
:103C280002B0BDE8F081D5F8943023F00103C5F85F
:103C38009430FEF77FFB064604E0FEF77BFB801B13
:103C4800022842D8D5F894309807F6D428E702F02D
:103C58000302022AB7D1244B1B685D0502D5E3682D
:103C6800002BDCD0204A20695368214923F0FE4309
:103C780043EA006353600868FEF716FB0028CED1BC
:103C88002368F2E6184A136843F480331360FEF79A
:103C980051FB154D064604E0FEF74CFB801B6428DB
:103CA80013D82B689B03F7D5DBE62A6842F48072A9
:103CB8002A60FEF73FFB07462B68D8053FF507AF9C
:103CC800FEF738FBC01B0228F6D9032002B0BDE876
:103CD800F081012070472B6823F480732B60FEF776
:103CE80029FB06460BE000BF0010024000700040B0
:103CF80008000020FEF71EFB801B0228E5D82B6871
:103D08005905F7D4BCE70026DCE6614AD2F89030C2
:103D180043F00103C2F89030FEF70CFB5C4D80467F
:103D280041F2883705E0FEF705FBA0EB0800B84232
:103D3800CBD8D5F890309907F5D5002E3FF4F2AEE0
:103D480013E0D5F8983023F00103C5F89830FEF752
:103D5800F1FA064604E0FEF7EDFA801B0228B4D813
:103D6800D5F898309807F6D4F8E6494A936D23F0C9
:103D780080539365D6E6FEF7DDFA064604E0FEF7C3
:103D8800D9FA801B0228A0D82B689901F7D4E968D2
:103D9800404B226AA76AE66A606A0B401343D4E97B
:103DA8000C1243EA0723013843EAC663490843EA89
:103DB80000130139520843EA4153013A43EA426386
:103DC800EB602B68324C43F080732B60EB6843F058
:103DD8008073EB60FEF7AEFA054605E0FEF7AAFA37
:103DE800401B02283FF671AF23689A01F6D5DDE63D
:103DF80003F18043A3F53C331A6842F480221A6029
:103E08001A6842F480321A6041E701283FF408AF8B
:103E1800EB68226A03F0030191427FF400AF616A04
:103E280003F0F0020139B2EB011F7FF4F8AEA16A8A
:103E380003F4FE42B2EB012F7FF4F1AEE16A03F026
:103E48007842B2EBC16F7FF4EAAE226B5208013AB6
:103E580003F4C001B1EB425F7FF4E1AE626B52083C
:103E6800013A03F0C063B3EB426F14BF0120002096
:103E7800D6E6074BD3F8902042F00402C3F890200E
:103E8800D3F8902042F00102C3F8902044E700BF25
:103E9800001002400C809F01002800F00581AD4A07
:103EA8002DE9F843136803F00F038B420CD2136813
:103EB80023F00F030B431360136803F00F038B42C7
:103EC80002D00120BDE8F8830368DF0704460D46E9
:103ED80040F188804268032A00F0AD809E4B022A98
:103EE8001B6800F0FF805B05EBD59B4B996801F0E0
:103EF8000C0104290AD0996801F00C01082905D0A1
:103F0800996801F00C010C2900F0FB804FF00008C3
:103F1800914EB36823F003031A43B260FEF70AFA1E
:103F280041F28837814605E0FEF704FAA0EB090064
:103F3800B84274D8B368626803F00C03B3EB820F1D
:103F4800F2D123689F0740F1D380580704D58249EE
:103F58008A6842F4E0628A60190706D57E4A936847
:103F680023F47C5343F4E06393607B4AA16893682D
:103F780023F0F0030B439360764E326802F00F0291
:103F8800AA4237D823685A0706D57349E0688A6871
:103F980022F4E06202438A601B0743D46E4A9368A6
:103FA80003F00C03042B00F0D380936803F00C0398
:103FB800082B00F09B80936803F00C030C2B75D042
:103FC8000023654A654C9268654866490068C2F3F3
:103FD8000312A25C02F01F02D3400B60BDE8F84355
:103FE800FEF762B99E07B0D45A4E326802F00F024B
:103FF800AA42C7D9326822F00F022A433260FEF77C
:1040080099F941F288378046336803F00F03AB42D1
:10401800B8D0FEF78FF9A0EB0800B842F4D9032016
:10402800BDE8F8834C4A2169936823F4605343EA56
:10403800C1039360B2E74849086880017FF541AF42
:10404800CE68C868484F06F00306032ECE680CBF3A
:1040580046494749C0F303100130B1FBF0F1C6F3FC
:1040680006203D4E01FB00F1F068C0F341600130CD
:104078004000B1FBF0F1B9427FF648AFB16811F0EA
:10408800F00F07D013F002083FF442AFA368002BEB
:104098007FF43CAF30498B6823F0F00343F0800392
:1040A8008B604FF0800833E701207047D068D368F1
:1040B800D26800F00300C3F303130328C2F30622F7
:1040C80003F101010CBF294B294BB3FBF1F303FBAF
:1040D80002F3214AD268C2F3416201325200B3FBB3
:1040E800F2F36EE799033FF500AFEAE61F4B68E786
:1040F800B8F1000F3FF440AFB36823F0F003B360AA
:104108003AE7D868D968184E00F003000328D86841
:104118000CBF164B164BC1F303110131B3FBF1F37E
:10412800C0F306210C4803FB01F3C168C1F34161E8
:1041380001314900B3FBF1F3B3427FF6E7AE836880
:1041480023F0F00343F0800383604FF08008DFE63C
:10415800074B36E70020024000100240F8620008D2
:10416800080000200000002000B4C40400127A00F7
:104178000024F400184B9A6802F00C02042A27D095
:104188009A6802F00C02082A24D09A6802F00C02FD
:104198000C2A01D000207047D968D868DB6801F084
:1041A8000301C0F303100329C3F3062300F101023E
:1041B8000CBF0A480A48B0FBF2F000FB03F0064BBC
:1041C800DB68C3F3416301335B00B0FBF3F0704776
:1041D80003487047014870470010024000127A00F7
:1041E8000024F400014B1868704700BF000000204D
:1041F800054B064A9B680649C3F302230868D35C4B
:1042080003F01F03D84070470010024008630008FD
:1042180000000020054B064A9B680649C3F3C223E9
:104228000868D35C03F01F03D840704700100240B1
:1042380008630008000000202DE9F04103680446E7
:1042480013F4002082B057D09F4B9A6DD00040F1F4
:104258000D8100279D4D2B6843F480732B60FEF77A
:1042680069F8064605E0FEF765F8801B022800F2AB
:104278000F812B68D905F6D5934B216CD3F8902084
:1042880012F4407228D08A4226D0D3F89000D3F88E
:10429800902042F48032C3F89020D3F8902022F482
:1042A8008032C3F8902020F44075C207C3F89050BC
:1042B80012D51D46FEF73EF841F28836804606E0E4
:1042C800FEF738F8A0EB0800B04200F2E180D5F81C
:1042D80090309B07F4D5216C7B4AD2F8903023F4B8
:1042E80040730B43C2F89030002027B1764A936D93
:1042F80023F0805393652368DE0708D57249656803
:10430800D1F8882022F003022A43C1F888209D07AB
:1043180008D56D49A568D1F8882022F00C022A43F7
:10432800C1F88820590708D56749E568D1F8882079
:1043380022F030022A43C1F888201A0708D56249BA
:104348002569D1F8882022F0C0022A43C1F88820C4
:104358009F0608D55C496569D1F8882022F4406237
:104368002A43C1F888205E0608D55749A569D1F8BF
:10437800882022F440522A43C1F888201D0608D517
:104388005149E569D1F8882022F440422A43C1F80E
:104398008820D90508D54C49256AD1F8882022F407
:1043A80040322A43C1F888209A0508D54649656AEB
:1043B800D1F8882022F440222A43C1F888205F05DA
:1043C8000BD54149A56AD1F8882022F440122A4326
:1043D800B5F5801FC1F888205CD01E050BD53A4979
:1043E800E56AD1F8882022F440022A43B5F5800F07
:1043F800C1F8882053D0DD040BD53349256BD1F89B
:10440800882022F040722A43B5F1807FC1F88820C5
:104418004AD099040BD52C49656BD1F8882022F035
:1044280040622A43B5F1006FC1F8882041D05A0490
:104438000BD52549A56BD1F8882022F040622A4384
:10444800B5F1006FC1F8882038D01B040BD51E4A7F
:10445800E16BD2F8883023F040530B43B1F1805F11
:10446800C2F888300DD002B0BDE8F0819A6D42F0F4
:1044780080529A659B6D03F080530193019B01273D
:10448800E8E6D36843F48033D36002B0BDE8F08136
:1044980003202AE7CA6842F48012CA609DE7CA6806
:1044A80042F48012CA60A6E7CA6842F48012CA6061
:1044B800AFE7CA6842F48012CA60B8E7CA6842F433
:1044C8008012CA60C1E700BF0010024000700040BF
:1044D800002800F08280F8B590F83D30044603F0DB
:1044E800FF0263B32268464EA569E068616802234B
:1044F80084F83D30B242136871D0B2F1804F52D087
:10450800A6F59436B2421FD006F58066B2421BD09B
:1045180006F59636B24217D006F54066B2426DD01F
:1045280006F58066B24269D006F58066B24265D06B
:1045380023F080032B431360D062916217E080F868
:104548003C20FDF7BFFDCDE7A6682E4F23F0700392
:104558003343266923F44073334323F080032B430A
:10456800BA421360D06291622BD16369136301234D
:104578005361002084F8483084F83E3084F83F3096
:1045880084F8403084F8413084F8423084F843306D
:1045980084F8443084F8453084F8463084F847304D
:1045A80084F83D30F8BDA768266923F070033B43C3
:1045B80023F44073334323F080032B431360D0620A
:1045C8009162114B9A42D0D003F580639A42CCD0C5
:1045D80003F580639A42CAD1C7E701207047A768EC
:1045E800266923F070033B4323F44073334323F0DD
:1045F80080032B431360D0629162B6E72669F3E724
:10460800002C0140003401400040014090F83D304A
:10461800012B01D0012070470368022280F83D2059
:10462800D968094A41F00101D96099680A40062A07
:1046380008D0B2F5803F05D01A6842F001021A602E
:1046480000207047002070470700010090F83C30B8
:10465800012B00F08A8002220368F0B480F83D2024
:104668009D680A685A4C702A04EA05044FF001054F
:1046780080F83C509C607AD024D8302A6BD040F225
:10468800A080502A00F08380602A40D0402A35D18B
:104698001D6A1E6A4C68CF6826F001061E629A6978
:1046A80025F00A0122F0F00242EA071221439A613A
:1046B80019629A6822F4401222F0700242F047020E
:1046C8009A601BE0434CA24245D03BD8B2F1101F80
:1046D80041D0103CA2423ED0B2F5005F0ED1D1E9E4
:1046E8000152CC6899682A4342EA042221F47F41A6
:1046F8000A439A609A6842F480429A600023012231
:1047080080F83D2080F83C30F0BC184670471C6AA1
:104718004D68CE6824F010041C6299691A6A21F465
:10472800704122F0A00242EA051241EA063199617D
:104738001A629A6822F4401222F0700242F067026C
:104748009A60DBE724498A4205D010318A4202D0B8
:1047580030398A42D2D1996821F4401142F00702D7
:1047680021F070010A439A60C8E702207047D1E936
:104778000152CC6899682A4342EA042221F47F4115
:104788000A439A609A6842F077029A60B6E71D6A0F
:104798001E6A4C68CF6826F001061E629A6925F0E9
:1047A8000A0122F0F00242EA071221439A611962D3
:1047B8009A6822F4401222F0700242F057029A607E
:1047C8009CE7102AC7D0202AC5D0002A96D1C2E774
:1047D8008800CEFF3000100060001000704700BF56
:1047E800704700BF704700BF704700BF03681A6971
:1047F800910710B5044603D5DA68920700F18A805C
:104808001A69520702D5DA68500770D41A69110775
:1048180002D5DA68120758D41A69D10602D5DA68BF
:10482800D2063ED41A69D00703D5DA68D10700F159
:104838008A801A69120603D5DA68100600F18B809F
:104848001A69D10503D5DA68120600F18C801A6955
:10485800500603D5DA68510600F18D801A69920670
:1048680003D5DA68900600F18E801A69D10203D563
:10487800DA68D20200F18F801A69900203D5DA68EB
:10488800910200F190801A69520203D5DA68500249
:1048980000F191801A69110202D5DA6812024AD42D
:1048A80010BD6FF010021A61DB69082213F4407F13
:1048B8002277204640F09080FFF790FF2046FFF7D0
:1048C80091FF002223682277ACE76FF008021A6193
:1048D800DB6904229B07227720467AD1FFF77EFF07
:1048E8002046FFF77FFF00222368227794E76FF0C6
:1048F80004021A619B69022213F4407F2277204642
:1049080064D1FFF76BFF2046FFF76CFF0022236896
:1049180022777BE76FF002021A619B6901229907EF
:10492800027750D1FFF75AFF2046FFF75BFF0022BE
:104938002368227764E76FF4000220461A61BDE815
:10494800104000F0ADB86FF001021A612046FDF783
:104958006FF823686DE76FF080021A61204600F057
:1049680095F823686CE76FF480721A61204600F0AE
:104978008FF823686BE76FF040021A612046FFF753
:1049880033FF23686AE76FF020021A61204600F0BF
:104998007BF8236869E76FF480121A61204600F0FB
:1049A80079F8236868E76FF400121A61204600F06E
:1049B80073F8236867E76FF480021A61204600F0F5
:1049C8006DF8236866E7FFF70BFFB0E7FFF708FF0E
:1049D8009CE7FFF705FF86E7FFF702FF71E700BFD7
:1049E80090F83C30012B49D0F0B4254A05680F688F
:1049F800022380F83D30012495426B6880F83C40E2
:104A0800AE6825D002F5006295422CD023F00073E1
:104A180023F070033B43B5F1804F6B600AD0194B0C
:104A28009D4207D003F580639D4203D003F59C3374
:104A38009D4204D18B6826F080061E43AE60002399
:104A4800012280F83D2080F83C30F0BC18467047C1
:104A58004C6823F47002224322F0007222F07002A4
:104A68003A436A60E6E74A6823F47004144324F082
:104A7800007424F070043C436C60DBE7022070474C
:104A8800002C014000040040704700BF704700BF81
:104A9800704700BF704700BF704700BF704700BF36
:104AA800704700BF2DE9F0410E46D0F8801020294C
:104AB80082B045D1002E47D00192002A44D01D462D
:104AC80090F87C30012B04463AD02123012100279D
:104AD800C0F8887080F87C10C0F88030FDF72AFC98
:104AE800A368019AA4F85420B3F5805F8046A4F81F
:104AF80056205DD0B4F8563020689BB2A3B1691C2B
:104B080026D1C2691206FCD5002E3FD016F8013B0B
:104B18008362B4F85630013B9BB2A4F85630B4F81F
:104B280056309BB2002BEAD1691C34D1C3695A06AE
:104B3800FCD520230020C4F8803084F87C0000E0F5
:104B4800022002B0BDE8F081012002B0BDE8F0818A
:104B5800C3691B06D8D4FDF7EDFBA0EB080085421E
:104B6800206801D3002DCAD1036823F4D0730360F1
:104B78008368202223F0010300218360C4F8802089
:104B8800032084F87C10C4F88420DAE737F8023B65
:104B9800C3F30803BCE7C3695B06CAD4FDF7CAFBC5
:104BA800A0EB080085422068DED3002DBCD1DBE7EE
:104BB8002369002B9ED137461E469BE72DE9F0431B
:104BC8000E46D0F88410202983B03FD1002E41D062
:104BD8000192002A3ED01D4690F87C30012B0446F5
:104BE80034D0222301210027C0F8887080F87C1077
:104BF800C0F88430FDF79EFBA368019AA4F85C20F6
:104C0800B3F5805F8146A4F85E2060D033B3B3F17A
:104C1800805F6FD0A4F860704FF00008B4F85E3081
:104C28009BB2002B4CD02068691C1ED1C269920629
:104C3800FCD5436A3B40002E35D006F8013BB4F85A
:104C48005E30013B9BB2A4F85E30E7E7022003B078
:104C5800BDE8F083012003B0BDE8F0832369002B91
:104C68003ED1FF27A4F86070D6E7C3699B06E0D45D
:104C7800FDF760FBA0EB0900854201D3002DD2D1DE
:104C880023681A6822F4D0721A609A68202122F0E8
:104C9800010200259A600320C4F8801084F87C5033
:104CA800C4F88410D3E728F8023BB4F85E30013B1F
:104CB8009BB2A4F85E30B4F85E309BB2002BB3D13F
:104CC80020230020C4F8843084F87C00BFE72369DF
:104CD80053B940F2FF17B046A4F860701E469DE72E
:104CE8007F27A4F8607097E7FF23B846A4F86030E0
:104CF8001F4693E72369002BF2D03F27A4F8607082
:104D08008AE700BF704700BF704700BF0368DA69D1
:104D18002DE9F041150704461868996863D06B4D72
:104D28000D4000F08280D70709D5C60507D50126B2
:104D38001E62D4F8886046F00106C4F888609707B8
:104D480002F0040640F18580CF0709D502271F62CB
:104D5800D4F8887047F00407C4F88870002E7CD116
:104D6800170705D5860600F18880002D40F085805C
:104D7800D4F88850002D6AD0950607D5800640F1F2
:104D88008980E26E12B1204690472368D4F8885093
:104D980099684F0603D415F0080500F091801A6849
:104DA80022F490721A609A6822F0805222F001026E
:104DB80020219A60C4F884109A6800215606E1669A
:104DC80064D59A68A06F22F040029A6000285DD0EE
:104DD8003F4B8363FEF720FC002838D0A06FBDE866
:104DE800F041836B1847970609D5860605D5E36E0B
:104DF8006BB32046BDE8F0411847CD00F7D4D50283
:104E080009D4160619D5050615D5236FFBB120461A
:104E1800BDE8F04118474F02F3D54FF48012204601
:104E28001A62BDE8F04100F0A3BE10F4907FE6D00E
:104E3800D70784D579E70902E7D4570601D546068E
:104E48002CD4150212D4D30101D5002833DBBDE8D8
:104E5800F081002E84D0CE0782D504261E62D4F8B5
:104E6800886046F00206C4F8886079E74100EAD510
:104E78002046BDE8F04100F07FBE08251D62D4F849
:104E8800885045F00805C4F8885071E72046FFF7B8
:104E98003BFFDCE7CA007FF579AF72E71A68202587
:104EA80022F0400200211A602046C4F88050216791
:104EB800FFF728FFCBE72046BDE8F04100F05ABED7
:104EC8002046FFF721FFC4F88850C0E70100001012
:104ED800DD4E000808B5836A0022A3F85E20184654
:104EE800A3F85620FFF710FF08BD00BF836ADA0752
:104EF80010B406D50168C46A4A6822F40032224315
:104F08004A609C0706D50168046B4A6822F480321F
:104F180022434A60590706D50168446B4A6822F45F
:104F2800802222434A601A0706D50168846B4A68C2
:104F380022F4004222434A60DC0606D50168C46BAD
:104F48008A6822F4805222438A60990606D501684D
:104F5800046C8A6822F4005222438A605A0609D5F2
:104F68000168446C4A6822F480122243B4F5801F19
:104F78004A600BD01B0606D50268C16C536823F43F
:104F880000230B4353605DF8044B70474A68846CF8
:104F980022F4C00222434A60ECE700BF0000000090
:104FA800002800F06B82D0F880302DE9F0480446E4
:104FB800002B46D02368BA482422C4F88020D4E9BC
:104FC80004651968A26821F0010119603243E1699A
:104FD8001E682A43656E0A4330402A4302431A601A
:104FE8005A68E568AF48A66922F440522A438342CA
:104FF8005A60656A2AD09868226AAB4F20F06E40E2
:1050080020F43060324302439A60DA6A22F00F02D9
:105018002A43BB42DA627DD0A44A934200F09380CF
:10502800A34A934200F04E81A24A934200F088813D
:1050380000234FF00112C4E91A2323670120BDE8B9
:10504800F08880F87C30FDF7C9F8B3E799689A488A
:1050580021F06E4121F4306131439960DA6A22F01F
:105068000F022A43DA62D0F8883003F44063B3F5BC
:10507800806F00F0378240F20382B3F5006F00F0D2
:105088007483B3F5406FD3D1002D00F09883012DC0
:1050980000F0B983022D00F0C883032D00F0EA83E5
:1050A800042D00F0FE83052D00F01784062D00F076
:1050B8004084072D00F08884082D00F0AC84092D69
:1050C80000F0B2840A2D00F0F3840B2D0CBF802071
:1050D8004FF400400823626802EB42018142A7D8DE
:1050E800B0EB023FA4D8082BA2D801A151F823F0B5
:1050F800F556000839500008A9560008395000082C
:10510800675700083950000839500008395000081E
:1051180031560008684B694AD3F8883003F0030316
:10512800D35CB1F5004F00F09081082B00F21A8390
:10513800DFE813F0AF001100D70018038800180348
:105148001803180318015C4B5D4AD3F8883003F044
:105158000C03D35CE5E7FFF75DF8636A002B76D1B3
:105168006168002200EB5103B3FBF1F39BB2A3F19A
:1051780010004FF6EF7188423FF65AAF25680021BC
:105188004FF00110EB60C4E91A012167002A7FF48F
:1051980055AFA36A002B40F0548123685A6822F463
:1051A80090425A609A6822F022029A609A6842F005
:1051B80008029A601A68002142F001021A60C4F8D5
:1051C8008810FDF7B7F823681A68110706460CD44B
:1051D8001A68520726D420230020C4F8803084F8A7
:1051E8007C00C4F88430BDE8F088DD6915F400154A
:1051F800EED1FDF79FF8801BB0F1007F2368F4D350
:105208001A6822F4D0721A609A68202122F00102EA
:105218009A600320C4F8801084F87C50C4F8841085
:10522800BDE8F088DD6915F48005D4D1FDF782F872
:10523800801BB0F1007F2368F4D3E1E7B1F5004F9C
:1052480000F08C81FEF796FF636A002B88D0012B53
:1052580000F0B082022B00F07F81032B00F07981EF
:10526800042B00F0BA82052B00F0B482062B00F064
:10527800EF82072B00F01083082B00F02883092BFE
:1052880000F061830A2B00F05C830B2B08BF000A37
:1052980066E7FEF7ADFF636A002B3FF461AFD6E720
:1052A800F369FFCF0080004000380140004400400F
:1052B80000480040004C0040001002401063000805
:1052C80014630008D34BD3F8883003F03003102B55
:1052D800B4D06ED9202B40F02C81B1F5004F00F0EE
:1052E8004481002D00F02C81012D00F07A82022DDE
:1052F80000F09682032D00F0A682042D00F0CA82E9
:10530800052D00F0DB82062D00F0F182072D00F05C
:105318001C83082D00F02C83092D00F0A9830A2D89
:1053280000F0A483BC4B4FF224420B2D08BF134658
:105338006168002203EB5103B3FBF1F39BB216E75C
:10534800B44BD3F8883003F0C003402B3FF476AF5A
:105358002FD9802BC1D0C02B7FF46AAEB1F5004F96
:1053680000F03081002D00F0E880012D00F03B8234
:10537800022D00F05782032D00F06782042D00F003
:105388008682052D00F09C82062D00F0B282072D42
:1053980000F0D482082D00F01C83092D00F06D83E5
:1053A8000A2D00F067830B2D14BF4FF400438023B0
:1053B800BEE7002B7FF43CAEB1F5004F7FF469AF38
:1053C800FEF716FF626A02B3012A00F0FC81022A86
:1053D80000F00582032A00F01E82042A00F03182C0
:1053E800052A00F05082062A00F06D82072A00F094
:1053F8008382082A00F0AB82092A00F0FE820A2A7A
:1054080000F0F9820B2A08BF000A6268530803EB10
:105418004003B3FBF2F39BB2A3F110014FF6EF7216
:1054280091423FF605AE23F00F022068C3F3420312
:1054380013434FF001110022C360C4E91A12226716
:10544800A7E62046FFF752FDA7E6082B3FF6F0AD8A
:1054580001A252F823F000BFC95300084D550008B7
:105468007355000839500008655500083950000880
:105478003950000839500008CD5500080120704700
:10548800002B7FF4D5ADFEF7B3FE636A03B3012B9F
:1054980000F0BD81022B00F0AC81032B00F0A68147
:1054A800042B00F0DD81052B00F0D781062B00F0DE
:1054B8003982072B00F08682082B00F09482092B92
:1054C80000F0C3820A2B00F0EF820B2B08BF000A02
:1054D800002300287FF4FFAD4FF00113C4E91B003F
:1054E800A36656E6FEF746FE636A03B3012B00F097
:1054F8009081022B00F08281032B00F07C81042B29
:1055080000F0B381052B00F0AD81062B00F0FF8180
:10551800072B00F06382082B00F07182092B00F042
:1055280096820A2B00F0C2820B2B08BF000A0423C4
:10553800CFE7302B3FF412AF7AE54FF40043F7E69C
:10554800354BF5E6FEF766FE626A002A3FF45DAF6A
:105558003AE7324BA3FB0030800801E6FEF70AFE6B
:10556800626A002A3FF451AF2EE7002D00F0308127
:10557800012D00F05E81022D00F08381032D00F0E3
:105588009781042D00F0B181052D00F0BA81062D18
:1055980000F02282072D00F02882082D00F04C82AE
:1055A800092D00F091820A2D00F090821C4B1D4AB3
:1055B8000B2D08BF1346626803EB5203B3FBF2F3EB
:1055C8009BB229E7002D00F00081012D00F0338106
:1055D800022D00F04C81032D00F06781042D00F0AE
:1055E8008181052D00F0A281062D00F0F981072D9B
:1055F80000F00782082D00F01C82092D00F061825E
:105608000A2D00F065820B2D14BF4FF480334FF440
:105618008073D0E7001002400024F400ABAAAAAAC5
:105628000048E80148E80100636A03B3012B00F071
:105638007281022B00F09581032B00F0E581042B89
:1056480000F0FF81052B00F02282062B00F01C825F
:10565800072B00F01582082B00F04382092B00F07D
:105668004F820A2B00F048820B2B00F041824FF446
:10567800000500265308E81846F100010023FBF74F
:10568800C5F9A0F54072BB4B9A423FF6D1AC2168F0
:1056980000234FF00112C860C4E91A23236778E594
:1056A800636A03B3012B00F03A81022B00F05D819D
:1056B800032B00F09C81042B00F0C081052B00F027
:1056C800F081062B00F0E981072B00F0E381082B1D
:1056D80000F00182092B00F01A820A2B00F01482D4
:1056E8000B2B00F00282A44D0026C3E7FEF780FDD5
:1056F800636A00210BB3012B00F0DC80022B00F061
:10570800FD80032B00F02581042B00F02781052B59
:1057180000F0A781062B00F09F81072B00F09981EC
:10572800082B00F0DB81092B00F0F7810A2B00F031
:10573800F1810B2B04BF000A002162680F0247EABF
:1057480010670602500816EB000B47F1000C58468C
:1057580061460023FBF75AF9A0F5407293E7FEF77C
:1057680009FDC5E70122002301E52DB3012D47D02E
:10577800022D63D0032D00F08180042D00F08E806F
:10578800052D00F0A680062D00F0BD80072D00F045
:105798001581082D00F03B81092D00F041810A2D6B
:1057A80000F08B81754B4FF224400B2D18BF184623
:1057B800022390E44008D3E4022370488BE40823D2
:1057C8004FF4004087E440081FE64FF48033F2E6C8
:1057D8006B4BF0E66B4BA3FB0030C008C0E48008BD
:1057E80013E6694BA4E54FF48043A1E5674BA3FB9F
:1057F800003080086CE6654BA3FB0030800896E615
:105808000223614867E408234FF4804063E44008BA
:105818005EE640088BE65D4BA3FB00239808F4E5A1
:105828005B4B85E54FF4005382E508234FF40050A5
:1058380051E4524BBFE64FF40043BCE62B465448B4
:1058480049E4C008E1E5534B72E541F255536FE571
:105858004E4BA3FB0030C00882E44A4BA3FB003048
:10586800C00835E6474BA3FB0030C0085FE64FF49D
:105878008043A0E6082341F255502CE40223454812
:1058880029E4414B97E60A23B0FBF3F0BDE54FF45A
:1058980080534DE5404B4BE5000961E402233E4847
:1058A80019E408234FF4805015E442F6AA2382E64F
:1058B8003A4B80E649084FEA30003EE7384B37E577
:1058C80040F6CC4334E50C23B0FBF3F09DE54009EA
:1058D80046E402233248FFF7FEBB082340F6CC40DB
:1058E800FFF7F9BB4FF4005365E6294B63E62D4BF0
:1058F8001EE540F6AA231BE5000986E5800800217D
:105908001BE7294B57E602232648FFF7E4BB0C2385
:10591800B0FBF3F00BE64FF480050026AAE6234D12
:105928000026A7E60C23B0FBF3F0D1E541F6981367
:1059380041E6082340F6AA20FFF7CDBB4FF40063E9
:10594800F6E4C0090CE480090AE4194BF0E44009C4
:105958005BE506220023FBF759F8EEE6C0080021B4
:10596800EBE64FF40015002684E6124D002681E68A
:10597800114BDDE4FFFC0F00000024F40024F400C8
:105988000048E801CDCCCCCC00127A00ABAAAAAA78
:1059980000093D00AAB0280080841E00546151000F
:1059A800006A18005558140000D430000000127A1C
:1059B80040420F000000093D20A1070002235C4877
:1059C800FFF789BB000983E508234FF40060FFF760
:1059D80082BB4FF48063ABE4564BECE50009A6E5C7
:1059E80041F25453E7E5400972E5534BE3E54CA611
:1059F800D6E900563EE6C00907E5800905E54009F5
:105A080095E54FF48053D6E54C4D002632E6022347
:105A18004B48FFF760BB2B464FF48060FFF75BBB3A
:105A280002234848FFF757BB08234FF40070FFF7DD
:105A380052BB4FF40063BEE53D4BBCE5424D00262A
:105A480018E64FF48015002614E6800940E5800921
:105A58006DE50009002170E60C220023FAF7D6FF55
:105A68006BE60A220023FAF7D1FF66E6374B5FE4BC
:105A7800344B5DE44FF480735AE44FF4007357E4F9
:105A88004FF400250026F5E5314D0026F2E5314DAD
:105A98000026EFE5304D0026ECE523A6D6E90056B2
:105AA800E8E52E4D0026E5E5C00911E5C0093EE50B
:105AB80008234FF48070FFF70EBB02232348FFF73B
:105AC8000ABB4FF4806376E51D4B74E51D4B72E508
