:020000040800F2
:1000000000800020BD320008F12F0008F52F000805
:10001000F92F0008FD2F0008013000080000000043
:100020000000000000000000000000000530000893
:1000300009300008000000000D30000811300008F1
:100040000D3300080D3300080D3300080D33000890
:100050000D3300080D3300080D3300080D33000880
:100060000D3300080D3300080D330008153000086B
:100070000D330008213000080D3300080D3300084F
:100080000D330008000000000D3300080D33000898
:100090000D3300080D3300080D3300080D33000840
:1000A0000D3300080D3300080D3300080D33000830
:1000B0000D3300080D3300082D3000080D33000803
:1000C0000D3300080D3300080D3300080D33000810
:1000D0000D330008393000080D3300080D330008D7
:1000E0000D3300080D3300080D3300080D330008F0
:1000F0000D3300080D3300080D3300080000000028
:10010000000000000D330008000000000D3300085F
:100110000D330008000000000D3300080D33000807
:100120000D3300080D3300080D3300080D330008AF
:100130000D33000800000000000000000D3300082F
:100140000D3300080D33000800000000000000001F
:10015000000000000000000000000000000000009F
:100160000000000000000000000000000D33000847
:100170000D33000800000000000000000000000037
:10018000000000000D330008000000000000000027
:10019000000000000000000000000000000000005F
:1001A00000000000000000000D3300080D330008BF
:1001B0000D3300080D3300080D3300080000000067
:1001C000000000000D3300080000000000000000E7
:0801D0000D3300080D33000897
:1001E00010B5054C237833B9044B13B10448AFF371
:1001F00000800123237010BD980000200000000043
:10020000D07F000808B5034B1BB103490348AFF387
:10021000008008BD000000009C000020D07F000886
:1002200001F0FF01102A2BDB10F0070F08D010F8A7
:10023000013B013A8B422DD010F0070F42B3F6D1AB
:10024000F0B441EA012141EA014122F007047FF0C4
:1002500000070023F0E80256083C85EA010586EA1B
:10026000010685FA47F5A3FA87F586FA47F6A5FA57
:1002700087F68EB9EED1F0BC01F0FF0102F0070263
:1002800032B110F8013B013A83EA010313B1F8D10E
:100290000020704701387047002D06BF35460338EF
:1002A000073815F0010F07D1013015F4807F02BF28
:1002B000013015F4C03F0130F0BC0138704700BF79
:1002C000034613F8012B002AFBD1181A0138704796
:1002D00081F0004102E000BF83F0004330B54FEAF7
:1002E00041044FEA430594EA050F08BF90EA020F64
:1002F0001FBF54EA000C55EA020C7FEA645C7FEAF7
:10030000655C00F0E2804FEA5454D4EB5555B8BF19
:100310006D420CDD2C4480EA020281EA030382EA8A
:10032000000083EA010180EA020281EA0303362D1C
:1003300088BF30BD11F0004F4FEA01314FF4801CEF
:100340004CEA113102D0404261EB410113F0004F01
:100350004FEA03334CEA133302D0524263EB4303B8
:1003600094EA050F00F0A780A4F10104D5F1200E56
:100370000DDB02FA0EFC22FA05F2801841F10001B1
:1003800003FA0EF2801843FA05F359410EE0A5F185
:1003900020050EF1200E012A03FA0EFC28BF4CF0B6
:1003A000020C43FA05F3C01851EBE37101F000456C
:1003B00007D54FF0000EDCF1000C7EEB00006EEB79
:1003C0000101B1F5801F1BD3B1F5001F0CD3490803
:1003D0005FEA30004FEA3C0C04F101044FEA44525A
:1003E00012F5800F80F09A80BCF1004F08BF5FEAE1
:1003F000500C50F1000041EB045141EA050130BDC1
:100400005FEA4C0C404141EB010111F4801FA4F163
:100410000104E9D191F0000F04BF01460020B1FAB8
:1004200081F308BF2033A3F10B03B3F120020CDAF0
:100430000C3208DD02F1140CC2F10C0201FA0CF0CE
:1004400021FA02F10CE002F11402D8BFC2F1200C33
:1004500001FA02F120FA0CFCDCBF41EA0C019040E9
:10046000E41AA2BF01EB0451294330BD6FEA040432
:100470001F3C1CDA0C340EDC04F11404C4F120021D
:1004800020FA04F001FA02F340EA030021FA04F32F
:1004900045EA030130BDC4F10C04C4F1200220FA86
:1004A00002F001FA04F340EA0300294630BD21FAC4
:1004B00004F0294630BD94F0000F83F4801306BF8A
:1004C00081F480110134013D4EE77FEA645C18BF7E
:1004D0007FEA655C29D094EA050F08BF90EA020F15
:1004E00005D054EA000C04BF1946104630BD91EA0D
:1004F000030F1EBF0021002030BD5FEA545C05D110
:100500004000494128BF41F0004130BD14F580044E
:100510003CBF01F5801130BD01F0004545F0FE41C2
:1005200041F470014FF0000030BD7FEA645C1ABFF7
:10053000194610467FEA655C1CBF0B46024650EA2E
:10054000013406BF52EA033591EA030F41F400215A
:1005500030BD00BF90F0000F04BF0021704730B5E0
:100560004FF4806404F132044FF000054FF00001B5
:1005700050E700BF90F0000F04BF0021704730B576
:100580004FF4806404F1320410F0004548BF40424B
:100590004FF000013EE700BF42004FEAE2014FEAA0
:1005A00031014FEA02701FBF12F07F4393F07F4F7B
:1005B00081F06051704732F07F4208BF704793F07E
:1005C0007F4F04BF41F40021704730B54FF4607491
:1005D00001F0004521F000411CE700BF50EA010294
:1005E00008BF704730B54FF000050AE050EA01023D
:1005F00008BF704730B511F0004502D5404261EBAD
:1006000041014FF4806404F132045FEA915C3FF4ED
:10061000D8AE4FF003025FEADC0C18BF03325FEA8A
:10062000DC0C18BF033202EBDC02C2F1200300FA3B
:1006300003FC20FA02F001FA03FE40EA0E0021FA60
:1006400002F11444BDE600BF70B54FF0FF0C4CF44E
:10065000E06C1CEA11541DBF1CEA135594EA0C0F00
:1006600095EA0C0F00F0DEF82C4481EA030621EA3B
:100670004C5123EA4C5350EA013518BF52EA033576
:1006800041F4801143F4801338D0A0FB02CE4FF028
:100690000005E1FB02E506F00042E0FB03E54FF058
:1006A0000006E1FB03569CF0000F18BF4EF0010E50
:1006B000A4F1FF04B6F5007F64F5407404D25FEA4C
:1006C0004E0E6D4146EB060642EAC62141EA5551FF
:1006D0004FEAC52040EA5E504FEACE2EB4F1FD0C41
:1006E00088BFBCF5E06F1ED8BEF1004F08BF5FEABF
:1006F000500E50F1000041EB045170BD06F0004671
:1007000046EA010140EA020081EA0301B4EB5C041D
:10071000C2BFD4EB0C0541EA045170BD41F4801115
:100720004FF0000E013C00F3AB8014F1360FDEBF3A
:10073000002001F0004170BDC4F10004203C35DA16
:100740000C341BDC04F11404C4F1200500FA05F399
:1007500020FA04F001FA05F240EA020001F000423A
:1007600021F0004110EBD37021FA04F642EB0601B0
:100770005EEA430E08BF20EAD37070BDC4F10C04DA
:10078000C4F1200500FA04F320FA05F001FA04F29E
:1007900040EA020001F0004110EBD37041F100018A
:1007A0005EEA430E08BF20EAD37070BDC4F1200595
:1007B00000FA05F24EEA020E20FA04F301FA05F2FD
:1007C00043EA020321FA04F001F0004121FA04F2A5
:1007D00020EA020000EBD3705EEA430E08BF20EA75
:1007E000D37070BD94F0000F0FD101F000464000AF
:1007F00041EB010111F4801F08BF013CF7D041EA31
:10080000060195F0000F18BF704703F00046520034
:1008100043EB030313F4801F08BF013DF7D043EA05
:100820000603704794EA0C0F0CEA135518BF95EABB
:100830000C0F0CD050EA410618BF52EA4306D1D142
:1008400081EA030101F000414FF0000070BD50EA61
:10085000410606BF1046194652EA430619D094EAEB
:100860000C0F02D150EA013613D195EA0C0F05D1D5
:1008700052EA03361CBF104619460AD181EA030129
:1008800001F0004141F0FE4141F470014FF00000E1
:1008900070BD41F0FE4141F4780170BD70B54FF07C
:1008A000FF0C4CF4E06C1CEA11541DBF1CEA1355FC
:1008B00094EA0C0F95EA0C0F00F0A7F8A4EB0504DE
:1008C00081EA030E52EA03354FEA013100F08880D5
:1008D0004FEA03334FF0805545EA131343EA12639E
:1008E0004FEA022245EA111545EA10654FEA002653
:1008F0000EF000419D4208BF964244F1FD0404F50C
:10090000407402D25B084FEA3202B61A65EB030567
:100910005B084FEA32024FF480104FF4002CB6EB24
:10092000020E75EB030E22BFB61A754640EA0C00A4
:100930005B084FEA3202B6EB020E75EB030E22BFE4
:10094000B61A754640EA5C005B084FEA3202B6EB25
:10095000020E75EB030E22BFB61A754640EA9C00E4
:100960005B084FEA3202B6EB020E75EB030E22BFB4
:10097000B61A754640EADC0055EA060E18D04FEA72
:10098000051545EA16754FEA06164FEAC30343EA12
:1009900052734FEAC2025FEA1C1CC0D111F4801FDF
:1009A0000BD141EA00014FF000004FF0004CB6E7D8
:1009B00011F4801F04BF01430020B4F1FD0C88BF77
:1009C000BCF5E06F3FF6AFAEB5EB030C04BFB6EB82
:1009D000020C5FEA500C50F1000041EB045170BD75
:1009E0000EF0004E4EEA113114EB5C04C2BFD4EBA2
:1009F0000C0541EA045170BD41F480114FF0000E26
:100A0000013C90E645EA060E8DE60CEA135594EAA1
:100A10000C0F08BF95EA0C0F3FF43BAF94EA0C0FA4
:100A20000AD150EA01347FF434AF95EA0C0F7FF419
:100A300025AF104619462CE795EA0C0F06D152EA6D
:100A400003353FF4FDAE1046194622E750EA410651
:100A500018BF52EA43067FF4C5AE50EA41047FF462
:100A60000DAF52EA43057FF4EBAE12E74FEA4102C5
:100A700012F5001215D211D56FF47873B3EB6252F0
:100A800012D94FEAC12343F0004343EA505311F017
:100A9000004F23FA02F018BF404270474FF00000A9
:100AA000704750EA013005D111F0004008BF6FF0E7
:100AB000004070474FF00000704700BF53B94AB97B
:100AC000002908BF00281CBF4FF0FF314FF0FF3056
:100AD00000F072B9ADF1080C6DE904CE00F006F833
:100AE000DDF804E0DDE9022304B070472DE9F047AA
:100AF000089E04468846002B4BD18A42154667D98A
:100B0000B2FA82F24AB1C2F1200701FA02F320FAE6
:100B100007F7954047EA030894404FEA154E230C27
:100B2000B8FBFEF71FFA85FC0EFB178843EA084363
:100B300007FB0CF1994209D9EB1807F1FF3080F05F
:100B40001B81994240F21881023F2B445B1AA4B2E8
:100B5000B3FBFEF00EFB103344EA034400FB0CFC35
:100B6000A44509D92C1900F1FF3380F00781A44571
:100B700040F2048102382C4440EA0740A4EB0C0404
:100B800000271EB1D4400023C6E900433946BDE822
:100B9000F0878B4209D9002E00F0EB800027C6E9D0
:100BA000000138463946BDE8F087B3FA83F7002FD5
:100BB00047D18B4202D3824200F2FA80841A61EB61
:100BC000030301209846002EE0D0C6E90048DDE787
:100BD00002B9FFDEB2FA82F2002A40F08F80491B90
:100BE0004FEA154E1FFA85F80127B1FBFEFC230CD6
:100BF0000EFB1C1143EA014308FB0CF1994207D993
:100C0000EB180CF1FF3002D2994200F2CD808446FD
:100C1000591AA3B2B1FBFEF00EFB101443EA0444D0
:100C200008FB00F8A04507D92C1900F1FF3302D2C8
:100C3000A04500F2B6801846A4EB080440EA0C4038
:100C40009FE7C7F1200CBB4022FA0CFE4EEA030ED0
:100C500001FA07F420FA0CF521FA0CF34FEA1E48CA
:100C60002543B3FBF8F92C0C08FB19331FFA8EFA55
:100C700044EA034309FB0AF49C4202FA07F200FA31
:100C800007F10BD91EEB030309F1FF3080F08780D9
:100C90009C4240F28480A9F1020973441B1BADB24F
:100CA000B3FBF8F008FB103345EA034400FB0AFAF3
:100CB000A24508D91EEB040400F1FF336BD2A24514
:100CC00069D90238744440EA0940A0FB0289A4EBC8
:100CD0000A044C45C2464B4654D351D0002E69D02D
:100CE000B1EB0A0564EB030404FA0CFCFD40FC4084
:100CF0004CEA0505C6E90054002747E7C2F1200386
:100D000020FA03F7954001FA02F021FA03F34FEAC3
:100D1000154E3843010CB3FBFEF71FFA85F80EFBA6
:100D2000173341EA034107FB08F38B4204FA02F44C
:100D300007D9691807F1FF3C2FD28B422DD9023F0A
:100D40002944CB1A81B2B3FBFEF00EFB103341EA0B
:100D5000034100FB08F38B4207D9691800F1FF3CFF
:100D600017D28B4215D902382944C91A40EA0747DD
:100D70003BE73746304609E70746E7E61846FBE615
:100D80004145ABD2B8EB020A69EB0E0201381346BB
:100D9000A4E76046E9E7184695E76746D1E781464C
:100DA0007CE702382C4447E7ACF1020C2B442FE7D8
:100DB000384608E73746E9E6704700BF30B50024FB
:100DC0008DB02146202204A8CDE90144039406F009
:100DD000D1FC244B4FF4001108204FF480524FF007
:100DE000A045C3E90244C3E904441C7783F82440C6
:100DF000C3E90B44DC6459601C244FF48071986192
:100E0000DA63184601221D60C3E911415A771A625C
:100E100083F8382083F840201A6502F0D7FAE8B941
:100E2000002301A90F48019302F074FF98B90E4BFB
:100E30000493062500237F24042204A9094809936A
:100E4000CDE90553CDE9074202F0C2FC08B101F03B
:100E5000DFFA0DB030BD01F0DBFAE8E701F0D8FAB7
:100E6000DEE700BF780100201000C01030B589B067
:100E700020220021684606F07DFC1F4B1F4A1A60A5
:100E80004FF4001408204FF480521C215C609861DC
:100E90004FF48074DA6359640022012118469C647F
:100EA000C3E90222C3E904221A7783F82420C3E9A4
:100EB0000B22DA645977196283F8381083F84010EE
:100EC000196502F083FA98B90D4B009306250023AB
:100ED0007F240422694608480593CDE90153CDE9F2
:100EE000034202F075FC08B101F092FA09B030BD7E
:100EF00001F08EFAE8E700BF0C010020000100506D
:100F00000200300470B502688AB00023B2F1A04F2D
:100F10000546CDE90533CDE9073309933AD0374B80
:100F20009A4201D00AB070BD354A13680133012BD3
:100F3000136058D0334B344CDA6C42F00102DA645F
:100F4000DB6C03F0010304930122032305A94FF096
:100F50009040CDE90523049E03F0B0FD2B4B2360A8
:100F600024224FF4807380204FF4806162606361BB
:100F7000202200232061C4E906122046C4E902337E
:100F8000236203F089FA08B101F042FA6C65A562A8
:100F90000AB070BD1A4A13680133012B136017D0D1
:100FA000184B1B4CDA6C42F00102DA64DB6C03F084
:100FB000010302930C22032305A94FF09040CDE9D1
:100FC0000523029E03F07AFD124B23600522C8E739
:100FD0000C4BDA6C42F40052DA64DB6C03F400531D
:100FE0000193019BDCE7074BDA6C42F40052DA64B0
:100FF000DB6C03F400530393039B9BE70001005059
:10100000B40000200010024044020020080002400A
:10101000E40100203000024008B50A4B0A4A0B499F
:101020001A6018460022C3E90121C3E90322C3E97B
:10103000052202F0D9FE00B908BDBDE8084001F064
:10104000E7B900BFA4020020000201403000800088
:1010500010B50168114A86B000239142CDE90133F1
:10106000CDE90333059301D006B010BD03F18043F1
:1010700003F5043301A9DA6C42F00102DA64DB6C97
:1010800003F001030093022203234FF09040009CE1
:10109000CDE9012303F012FD06B010BD00020140AE
:1010A00038B50E4B0E4A1A6040F2011141F221028E
:1010B00008200025202499809A6080210122D86090
:1010C0001846C3E9045499611A6202F0E1FF00B9BD
:1010D00038BDBDE8384001F09BB900BFC802002010
:1010E000003002400268094B9A4200D07047A3F5D5
:1010F000005382B09A6C42F480529A649B6C03F461
:1011000080530193019B02B0704700BF0030024042
:1011100070B58CB068463022002106F02BFB1248D7
:10112000124B036003F06EF8D0B9002300240025B1
:10113000CDE90245CDE90445022601240025694692
:101140001A4609488DF804308DF805300096CDE92F
:10115000064503F0B9F808B101F05AF90CB070BDBA
:1011600001F056F9E1E700BFEC0200200008005052
:1011700010B50168164A88B000239142CDE90333C7
:10118000CDE90533079301D008B010BD03F18043CA
:1011900003F5043303A9DA6C42F48032DA64DA6CC2
:1011A00002F480320192019ADA6C42F00102DA64B0
:1011B000DB6C03F001030293102203234FF09040F5
:1011C000029CCDE9032303F079FC08B010BD00BFF9
:1011D00000080050134B00B59A6C42F004029A6468
:1011E0009A6C83B002F004020092009A9A6C42F06A
:1011F00001029A649B6C002203F0010311460193E3
:101200000B20019B02F0A6FE0B2002F0D9FE00226B
:1012100011460D2002F09EFE0D2003B05DF804EB98
:1012200002F0CEBE0010024030B5002487B0CDE9F8
:101230000144CDE90344194B0594DA6C42F00102F4
:10124000DA64DB6C03F00103009322464FF48071F3
:101250004FF09040009B03F00DFD01224FF4006120
:101260004FF0904003F006FD01254FF4807201A974
:1012700003234FF09040019204930394029503F0EE
:101280001DFC4FF4006301A94FF09040CDE90254DA
:101290000494019303F012FC07B030BD001002402B
:1012A0002DE9F04FC36C5A7987B05208019200F0D3
:1012B00043810646002700F134094FF0060803EB8E
:1012C0000802B16B13F808A092F801B00B46FCB20B
:1012D000002900F0DB804A46187CA0422ABF1A464B
:1012E000DB689B68002BF7D1914500F0CF80107C24
:1012F000A04240F2AD802420CDE9022305F0F0FEAB
:10130000039B029A0474C361137C9C42054680F0DF
:10131000A480F16B029191420DD01046039205F02A
:1013200064FF037C0299A34280F00981C368039A99
:10133000002B00F0348101204B46294605F057FF71
:10134000736C01337364EB69002B46D0B36B002BD5
:101350004CD04D461A7CA2422ABF1D46DB689B68D2
:10136000002BF7D1A94541D02A7CA24227D92420BD
:10137000029305F0B5FE029B0474C3612B7C9C4272
:10138000014680F0C280F36B9D420ED02846CDE925
:10139000023105F02AFF0246007CA042DDE902315D
:1013A00080F0FF80D368002B47D02A460D460120ED
:1013B0004B46294605F01BFF736C01337364EB69E0
:1013C0004AEA0B2AADF816A0002B00F03F812B6AE9
:1013D00005F114000DF116019847019B01379F425A
:1013E00008F1020800F0A880F36C68E7242005F0FB
:1013F00077FE736C047400220546C2611BB1326C27
:10140000137CA3421AD3B36B0BB9AFE01346197C1C
:101410008C4235BF9A68DA6801200020002AF5D195
:10142000002840F0A4808C421A46294600F2AF8082
:101430001D46084605F06EFEC1E70D46914500F0D9
:10144000DD80287C137C98422CBF00200120AFE770
:10145000D369002BC1D00B467BE76AD9316C91422E
:101460000ED010460393029205F097FE017CA14234
:1014700040F2AE80029A039BD16809B102465AE756
:10148000204698422CBF0020012055E7242005F07B
:1014900027FE736C047400220546C2614BB1326CA6
:1014A000137CA34205D291453FF445AF287C137CC1
:1014B000E7E7B36B0BB913E0134693F810C064452C
:1014C00035BF9A68DA6801210021002AF4D141B9B8
:1014D00064451946284613D81D4605F01BFE32E721
:1014E0004B46F26B9A42DED01846029305F07DFE21
:1014F00090F810C0029B6445194603462846EBD974
:10150000002940F0A5800D46E7E792D9336C9D4253
:101510000CD02846029105F040FE037C0299A342BC
:1015200002466DD9EB68002B7FF440AF2A460D468A
:1015300087E728461546D0E707B0BDE8F08FB36BC4
:101540002BB94B469942CFD12846D9E7134693F899
:1015500010C0644535BF9A68DA6801200020002A6F
:10156000F4D10028B4D09942BED1EDE74B46F26BDE
:101570009A423FF463AF1846029305F036FE017CB1
:10158000029B8C421A46294603467FF651AF002A39
:101590007FF453AF0846154605F0BCFD0FE7024641
:1015A00081E7B56B0DB948E0154695F810C0644564
:1015B00035BFAA68EA6801200020002AF4D100287B
:1015C0003CD12A466445E2D8084605F0A3FDF6E67C
:1015D000B36B0BB936E0134693F810C0644535BFC2
:1015E0009A68DA6801210021002AF4D100293FF429
:1015F0006FAFF16B99427FF477AFA5E70120D7E693
:10160000B56B0DB920E01D4695F810C0644535BF97
:10161000AB68EB6801220022002BF4D1002AD0D065
:10162000F26BAA42B3D02846029105F0DEFD2A46AD
:1016300090F810C002990546C4E74D46AB42F2D17E
:101640001A46A4E74B46D4E74D46E9E706F029F8E9
:101650000A4628E72DE9F04100F108030446002579
:1016600090B00E46C0E900352821904605722A4602
:1016700006F008F822683B2313702268012151709C
:10168000226828219170F16C2268C978D170226893
:101690001371226820235371B269059506AF8DF846
:1016A00018500497002A45D0F3698DF80F800DF18A
:1016B0000F020AA806F1100198470A9A049B0CAD84
:1016C000AA4243D0DDE90B01BB42CDE904202AD078
:1016D000069A069143B30A930C9200220B921A7059
:1016E0000A98A84201D005F015FD059A1F2A1FD9B6
:1016F0002168881D049906F024F8216816482622DE
:1017000002F00AFD2368049A83F826002168030A80
:10171000BA4281F8273002D0104605F0FBFC204683
:1017200010B0BDE8F08106910A950CAD2B46D4E7C8
:10173000C2F120032025114604A80022009505F0DF
:1017400059FF059A2168002AD8D0D2E70AA904A82F
:1017500005F0EAFE0A9BC0E7C802002000232DE93D
:10176000F04F03720546D1E909206B60904205F104
:10177000080383B00E462B6000F0F380804C043ADF
:101780000438082152F8043F93F83430082B00F253
:10179000E280E35C8242194401F10101F2D18C1E26
:1017A000E4B2C9B204F03F074B1E47F04007019373
:1017B0000022284605F066FF2B689F221A702B68CE
:1017C0005F702B68328C9A70338C2A681B12D3702E
:1017D0002B68728C1A71738C2A681B1253712B68D8
:1017E00000229A71D6E9091E71452F685ED0DFF894
:1017F00090810722B9460E6896F83400082851D81F
:10180000531C18F80070DBB29C46002F4AD0367883
:1018100040EA061009F802000E682868B66BC65444
:10182000012F02F1020206D90B6828689E6BD3B221
:101830003212C2549C46D1F800902868D9F838601A
:101840005A1C022F03F1020A4FEA264BD2B214D9D6
:10185000032F00F802B0944600F0898008682A68D7
:1018600090F93B005FFA8AFC033302F80C00D1F8D0
:1018700000902868D9F83860DAB299F8353010F855
:101880000C705B01002E03F0600307F01F0643EAB3
:101890000603B4BF6FF07F060026334300F80C3018
:1018A000D5F8009004318E45A5D14F46019B3B44AD
:1018B0001846002C4AD0611EC9B201313A4639445B
:1018C000002412F8013F634013F0800F4FEA4303F6
:1018D00018BF83F00703DBB213F0800F4FEA430316
:1018E00018BF83F00703DBB213F0800F4FEA430306
:1018F00018BF83F00703DBB213F0800F4FEA4303F6
:1019000018BF83F00703DBB213F0800F4FEA4303E5
:1019100018BF83F00703DBB213F0800F4FEA4303D5
:1019200018BF83F00703DBB213F0800F4FEA4303C5
:1019300018BF83F00703DBB213F0800F4FEA4303B5
:1019400018BF83F007039142DCB2BAD10470284675
:1019500003B0BDE8F08F824201F101017FF412AFC4
:101960001DE70723019346270624082120E7D1F825
:1019700000902868D9F838605FFA8AF27DE700BFE6
:10198000E87F00082DE9F043D1E909239A428DB0A0
:10199000044600F108084CD068460E46FFF7DEFE0C
:1019A000019D08350023EDB21A46294608AF06A866
:1019B00007938DF82030069705F064FE069B3B22C6
:1019C0001A70069B01225A70069B9D70F26C069B52
:1019D000D278DA70069E3A233371019B7371019AB3
:1019E00012BBA5F1020931464A461A4802F094FB9F
:1019F000069B03F80900069B1D44000A05F8010C2C
:101A0000069BC4F80080BB421BD0089A2360A260EA
:101A1000079B0098636002AB984201D005F07AFB07
:101A200020460DB0BDE8F0830099B01D05F089FE99
:101A3000D7E70023C0E90083037220460DB0BDE85C
:101A4000F0830FCFA060C8F80410C8F80820C8F8C9
:101A50000C30DDE7C80200202DE9F04700F1080353
:101A60004FF00009C0E9003980F80890136A9668C1
:101A70001E44F6B206F10A0804465FFA88F81746D3
:101A80008A464A46414605F0FDFD22689F211170B5
:101A900006F10803DDB2236805F03F025A7023689F
:101AA000BAF820209A70BAF8203022681B12D3703E
:101AB0002368BAF822201A71BAF8223022681B1261
:101AC0005371236883F8069023683A78DA713B6A89
:101AD000B968226803F0030343EAC1031372BB68C9
:101AE0002068002B55D13A6A002A5CD108F1FF31F9
:101AF0000144002D49D0F21DD2B20132024400252A
:101B000010F8013F6B4013F0800F4FEA430318BFFA
:101B100083F00703DBB213F0800F4FEA430318BFD3
:101B200083F00703DBB213F0800F4FEA430318BFC3
:101B300083F00703DBB213F0800F4FEA430318BFB3
:101B400083F00703DBB213F0800F4FEA430318BFA3
:101B500083F00703DBB213F0800F4FEA430318BF93
:101B600083F00703DBB213F0800F4FEA430318BF83
:101B700083F00703DBB213F0800F4FEA430318BF73
:101B800083F007039042DDB2BAD10D702046BDE864
:101B9000F0871A460930796805F0D3FD3A6ABB68C8
:101BA0002068002AA2D009331844F96905F0C9FD5C
:101BB00020689BE72DE9F0430646D1E909208242DF
:101BC0008DB0A0EB020306F108075DD00D46991019
:101BD00095F86800431CDBB28B4285F8683028BF5B
:101BE000002352F8202028BF85F86830294668462F
:101BF000FFF732FF019C08340023E4B21A46214665
:101C00000DF1200806A807938DF82030CDF8188034
:101C100005F038FD069B3B221A70069B01225A7084
:101C2000069B9C70EA6C069BD278DA70069D3A237C
:101C30002B71019B6B71019A0ABBA4F10209294621
:101C40004A46194802F068FA069B03F80900069B09
:101C50001C44000A04F8010C069B376043451BD066
:101C6000089A3360B260079B0098736002AB984299
:101C700001D005F04FFA30460DB0BDE8F083009971
:101C8000A81D05F05EFDD8E700233046C6E90073C5
:101C900033720DB0BDE8F083B8E80F00B060796032
:101CA000BA60FB60DFE700BFC8020020F0B590F823
:101CB0004830013B9BB004460D46052B20D8DFE899
:101CC00003F017222B538203B0F8663003EB05258F
:101CD000D0E913127848A4F8665002F01DFAB4F85F
:101CE0006630834273D0012084F848001BB0F0BDF9
:101CF000C16CA5F13D030022012B02650A7011D9C8
:101D000000201BB0F0BD012900F0848001230020D9
:101D100084F848301BB0F0BDCB1EDBB2022B80F83C
:101D20006430F3D9D4E9132704F154039A4218BF5D
:101D3000636D07F1010608BF0F239E4209D90122F6
:101D40000023009239461A4604F14C0005F013FCBA
:101D5000E26CD555E36C266500229A5594F848301C
:101D6000062B29D1012329E0D0E9131700F15403F0
:101D7000994290F8642018BF436D07F1010608BF2F
:101D80000F23013A9E4280F8642008D901220023E3
:101D9000009239461A464C3005F0EDFBE16CCD550A
:101DA000E36C266500229A5594F86430022BA7D87C
:101DB00094F84830062BD5D00133DBB2002084F8EC
:101DC00048301BB0F0BD0623A4F86610F6E7E36CBC
:101DD0005A78012A87D11A79312A51D03B2A53D017
:101DE0003A2A214639D014A8FFF7E4FEDDE9142190
:101DF000A368CDE90621002B5BD0E368204607AA43
:101E000006A99847149816AB98423FF46CAF05F0BA
:101E100081F968E7D0E9132600F154039A4218BF0C
:101E2000436D06F1010508BF0F239D4208D9012229
:101E30000023009231461A464C3005F09CFBE26CC0
:101E400001239355E26C25650021515594F84820F3
:101E5000062AB3D0D318DBB2B0E70EA8FFF792FD85
:101E6000DDE90E21A368CDE9042113B3E368204620
:101E700005AA04A998470E9810AB9842C7D132E73B
:101E80002046FFF70DFA2EE79A79214608A8FFF7BA
:101E9000E1FBDDE90821A368CDE902214BB1E3684C
:101EA000204603AA02A9984708980AAB9842AED1E7
:101EB00019E705F0F6FB00BFC80200200B88B3F558
:101EC000FA5F04D1024B00200021C3E900017047F2
:101ED000D0000020012A08BF01600020704700BF29
:101EE000012A08BF01600020704700BF012A08BF17
:101EF00001600020704700BF1288096802484FF453
:101F00007A7303F093BF00BF4C030020F0B500F1DB
:101F1000080683B00660044608460F46FEF7D0F96F
:101F20000F280546019009D8012818D13B78237263
:101F3000002320466560735503B0F0BD002201A95F
:101F4000204605F09DFA019B20600646A3602A46C4
:101F50003046394605F0EAFB019D2668E8E700288F
:101F6000E6D0F4E72DE9F043044683B000F80C1BFB
:101F7000D2F8009060601E4655689DF828809DF854
:101F80002C70B9F1000F46D00F2D019524D8012DEA
:101F900049D199F8003023730023A5604355D6E951
:101FA000009504F12400E061B9F1000F38D00F2D45
:101FB000019520D8012D39D199F8003084F82430CA
:101FC0000023256243552046A36384F8348084F8B7
:101FD000357003B0BDE8F083002201A9201D05F093
:101FE0004FFA019B6060E3602A46494605F09EFB7C
:101FF000019D6068D0E7002201A904F11C0005F0F2
:102000003FFA019BE06163622A46494605F08EFB78
:10201000019DE069D4E7002DB6D0064805F026FA08
:10202000002DC4D0F9E7002DB6D0DDE7002DC7D0D4
:10203000EAE700BFF47F0008F8B50268284B9A422F
:1020400000D0F8BD274B284C1888284DFEF792FA8F
:102050000022274BFEF7F8FA0022264BFEF7F4FA8F
:102060000022254BFEF738F919A3D3E90023FEF728
:1020700015FCC4E90001214B1888FEF77BFA002209
:102080001B4BFEF7E1FA00221A4BFEF7DDFA12A312
:10209000D3E90023FEF702FC194BC3E90001D4E9A0
:1020A0000001D3E90023FEF7CFFA164BC3E9000184
:1020B000D4E90001D5E900670022134BFEF7EEFBDF
:1020C00032463B46FEF70AF9C5E90001F8BD00BFFC
:1020D000FA7E6ABC7493883FFE858DB90F31AE3F9E
:1020E00000080040C0000020D8000020D0000020E0
:1020F000000008400000303F0000F83FB80000201A
:10210000E8000020E0000020008076402DE9F04843
:1021100086B002F0D9FB174B9A694CF2FA3142F0C3
:1021200040429A61012419613F22002301A902A8BB
:102130000394CDE90424029302F010FC98B90E4DEB
:102140000E49B5F900604FEA064BB5F9026000236D
:102150001BEB060202F022FB28B902F0C9FB204665
:1021600006B0BDE8F08802F0C3FB002006B0BDE871
:10217000F08800BF00200240F800002000F80108AD
:102180002DE9F0477E4A7F4B17689D78BC6B7E4AED
:102190007E4B8AB0013D0592EDB207F134080493FD
:1021A000002C00F08F804646227CAA422ABF264699
:1021B000E468A468002CF7D1B04500F08380337C3C
:1021C000AB4223D9242004F08BFF0574C461347C16
:1021D000A542814646D2D7F83CA056450BD03046A2
:1021E00005F003F8037CAB42024680F08280C368AE
:1021F000002B00F09F8032464E4601204346314678
:1022000004F0F5FF7B6C01337B6453E05F4B089473
:1022100006AC2046022202A99847DDE9043794E87B
:1022200003006D4606F1140285E8030092E80300FE
:1022300084E8030095E8030082E80300D6E907522A
:10224000F36108950992376225B1032221462046A1
:10225000A847049B1BB102A90846032298470AB06D
:10226000BDE8F08723D93B6C9E4209D0304604F08C
:1022700094FF037CAB4202465ED9F368002BBBD1CE
:1022800032464E4630E0BC6B0CB948E01C46227C1E
:10229000954235BFA368E36801210021002BF5D1E9
:1022A00000293DD1A2469542B14633D8264648463C
:1022B00004F030FF049B00220892002BA8D1099F54
:1022C00006ACACE7242004F00BFF00230574C361C7
:1022D0007B6C0646002BD6D03A6C137CAB42D2D234
:1022E000904543D0357C147CA5422CBF00200120B2
:1022F00084E7BE6B0EB93BE01E46327C954235BF8B
:10230000B368F36801210021002BF5D129BBB24647
:102310009542CCD9BAF1000F2ED15646C7E74446B4
:10232000FA6BA242DCD0204604F05FFFA246027C9A
:102330000446B8E74E46D3E7BE6B0EB91AE01E4618
:10234000327C954235BFB368F36801210021002B30
:10235000F5D10029DBD0D7F83CA0B245DAD0304621
:1023600004F043FFB246027C0646D1E7012045E770
:102370004646F2E74646EEE74E465246B0E700BF15
:10238000CC000020F8000020BD1E0008D51E00086B
:1023900030B50021A5B00C4605A8382205F0EAF9B1
:1023A0002146442213A8CDE90044CDE90244049417
:1023B00005F0E0F94FF4007002F062FC4FF4807514
:1023C00002234021142205A80593CDE90C330E9376
:1023D000CDE910331293CDE908510F9202F0CEFCF3
:1023E000032319460F226846CDE90023CDE90244B4
:1023F000049402F015FF48F201024FF0005313A8B5
:10240000CDE91324229303F0DBF825B030BD00BFE3
:10241000704700BF70B5D1E900250023AD1AC0E9AF
:1024200000338360AB100E46044606D0B3F1804FF4
:1024300016D2284604F054FE0346C4E900331D4476
:10244000A560D6E900129142A2EB010504D018461E
:102450002A4605F076F903462B446360204670BD9A
:1024600005F001F82DE9F04F91B000F077FFFFF78C
:102470008FFFFEF7D9FEFEF7ADFEFEF79FFCFEF7DD
:10248000F5FCFEF7C9FDFEF743FE00F0A5FE00F0E7
:1024900015FEFEF705FEC74B1B681AB2511C00F073
:1024A000F481C54C1B14238062807F21C34801F056
:1024B000E1FB7F21C24801F0DDFB0021C14801F0B2
:1024C000B7FEB4F90030BF48002203F5006311469F
:1024D00001F0E2FE0122BC49B84801F085F8012272
:1024E000BA49B74801F080F800224FF400614FF07C
:1024F000904002F0BFFB0AADB54904A8FFF706FD06
:10250000B4492846FFF702FD3C2004F0E9FD6424AD
:1025100000212B4604AACDE900410646FFF722FD23
:102520000A980DF1300B584501D004F0F3FD0498E2
:1025300006ACA04201D004F0EDFDA74904A8FFF7C6
:10254000E5FCA6492846FFF7E1FC3C2004F0C8FD65
:102550000121CDE900112B4604AA0746FFF702FD31
:102560000A98584501D004F0D5FD0498A04201D046
:1025700004F0D0FD9A4904A8FFF7C8FC9949284601
:10258000FFF7C4FC3C2004F0ABFD01230221CDE9A0
:10259000003104AA2B468046FFF7E4FC0A98584510
:1025A00001D004F0B7FD0498A04201D004F0B2FDC0
:1025B0008D4904A8FFF7AAFC8C492846FFF7A6FC22
:1025C0003C2004F08DFD01230022CDE900320321DF
:1025D0002B4604AA8146FFF7C5FC0A98584501D04E
:1025E00004F098FD0498A04201D004F093FD8049C6
:1025F00004A8FFF78BFC7F492846FFF787FC3C20A7
:1026000004F06EFD01230022CDE9003204212B46A7
:1026100004AA8246FFF7A6FC0A98584501D004F0A8
:1026200079FD0498A04201D004F074FD4FF0000B36
:102630001420CDE90A67CDE90C89CDF838A0CDE9A1
:1026400004BBCDF818B004F04BFD2E4604460FCE67
:1026500020603068A260E3602061616004F11406CC
:1026600004A928460494CDE90566FFF7D3FE6C2043
:1026700004F036FD604B03620446C0F808B0C0F8B1
:1026800018B029462430FFF7C5FE5C4E0A9884F83E
:1026900034B0012104F1540204F13403C4F838B019
:1026A000C4F844B0C4F850B084F854B084F864B0AE
:1026B00084F868B084F84810E264C4E90F333460E9
:1026C00010B104F027FD3468DFF868C14C4A95E882
:1026D00003000DF1080B8BE8030094E8030085E884
:1026E00003009BE8030084E80300D4E902310C9363
:1026F000C4F808C00D91E2601BB1032229462846A8
:102700009847FFF73DFD95E803003368DFF828C1DF
:1027100003F110028BE8030092E8030085E8030050
:102720009BE8030082E80300D3E90641354A0C9494
:10273000C3F818C00D91DA611CB10322294628465E
:10274000A0473148DFF8CCB0304C314D03F022F9CE
:102750004FF47A7301222F492F4803F0F3FB2368CB
:102760002E490133D1E90001002223602C4BFDF7F3
:102770006BFFFEF77BF92B492B4B0FFA80FCC7F858
:1027800038C0D1E900010022FDF75EFFFEF76EF9C7
:10279000264A03B2D2E90001C8F83830FEF766F9DC
:1027A000234A03B2D2E90001CAF83830FEF75EF9D5
:1027B00044E000BF00F80108F80000207801002084
:1027C0000C010020EC020020B8000020C000002016
:1027D000F080000840800008FC80000804810008A8
:1027E0000881000868800008108100081C8100082A
:1027F0002081000828810008A1A45D55CC0000209C
:10280000F91E0008552B000800030020F0000020EE
:10281000C9000020F40000204C030020D800002054
:1028200000002440E800002000005940E0000020A3
:10283000D0000020E11E0008ED1E00089BF80010EB
:1028400003B23068C9F83830FFF730FA2B781BB97B
:1028500030B101232B707BE700283FF479AFF8E714
:102860002368B3F57A7F7FF673AF0A4B1B784BB1C1
:1028700000F07CFC07490B78002283F001030B7009
:10288000226065E700F0A8FCF4E7FFF73FFC024C8C
:102890000BE600BF00000020F80000202DE9F04FFB
:1028A00085B00391002900F0E18006460B46DB6805
:1028B0000293002B00F0C580DB680193002B00F031
:1028C000AB80D3F80CA0BAF1000F00F09080DAF8DA
:1028D0000C90B9F1000F75D0D9F80C80B8F1000F49
:1028E0005BD0D8F80C70002F42D0FD686DB3BB46AA
:1028F000EC68B4B1E1683046FFF7D0FFE369A76840
:1029000004F114010322084633B19847204604F02D
:1029100001FC37B13C46EDE7204604F0FBFB002FFD
:10292000F8D1EB69AC6853B105F1140108460322F4
:102930009847284604F0EEFB34B12546D8E72846F0
:1029400004F0E8FB002CF8D15F46FB69BC6853B18A
:1029500007F11401084603229847384604F0DAFBD1
:1029600034B12746C1E7384604F0D4FB002CF8D137
:10297000D8F81C30D8F8084053B108F114010846C3
:1029800003229847404604F0C5FB34B1A046A8E7AF
:10299000404604F0BFFB002CF8D1D9F81C30D9F820
:1029A000084053B109F114010846032298474846EC
:1029B00004F0B0FB34B1A1468EE7484604F0AAFB10
:1029C000002CF8D1DAF81C30DAF8084053B10AF1DB
:1029D0001401084603229847504604F09BFB34B18B
:1029E000A24674E7504604F095FB002CF8D1019DF7
:1029F000EB69AC685BB105F1140108460322984706
:102A0000284604F087FB3CB10194234659E7284649
:102A100004F080FB002CF7D1029DEB69AC685BB140
:102A200005F11401084603229847284604F072FB7A
:102A30003CB1029423463FE7284604F06BFB002C90
:102A4000F7D1039DEB69AC685BB105F11401084651
:102A500003229847284604F05DFB3CB103942346CB
:102A600025E7039804F056FB002CF7D105B0BDE82C
:102A7000F08F00BF2DE9F8430B468168064600F150
:102A80000408002960D01A7847460C46237C9342FC
:102A900013D2E468002CF9D1F3687569BB424FD1B9
:102AA000B8454DD13046FFF7F9FE0023C6E903884B
:102AB000B36073612846BDE8F883A36804D927464C
:102AC0001C46002CE2D1E7E7E0683BB11D7C954253
:102AD0002ABF1C46DB689B68002BF7D138B1037C0A
:102AE00093428ABF0746C06880680028F7D1F36820
:102AF000D6F814909C424D4628D0A74201D11FE041
:102B00002C46204604F05DFB41460546204604F075
:102B1000D0FBC36900F1140C04460322614613B1D3
:102B200060469847204604F0F5FA7069BD4200F10E
:102B3000FF307061E4D1A9EB00052846BDE8F883B9
:102B400000252846BDE8F8834746A5E7B845D4D117
:102B5000A8E700BF2DE9F04F137800F10805B02B6E
:102B600095B004462E4600F05A8136D8702B00F0FE
:102B70004C81902B24D101F0A7FEB84B9A694CF2FE
:102B8000FA3142F040423F209A611961002201234C
:102B90000E9006A90CA80D930F930C9201F0DEFE87
:102BA00060B9AF4FAF49B7F900804FEA084AB7F9AB
:102BB000028000231AEB080201F0F0FD01F098FEFC
:102BC000A94B1B78052B00F28981DFE813F0050182
:102BD000B10075003500FA001300D02B00F06081C1
:102BE000E02BEDD1A04A1378042BEBD80133DBB2F4
:102BF0001370E7E714A91D2341F8203D256000224A
:102C0000204604F03DFC994D206006460FCD0C9FF8
:102C1000A76030607160B26007CD2D78F3603061DD
:102C200035777161B2610C9B226863600021204698
:102C3000D15415B0BDE8F08F8D498E4BD1E900AB72
:102C40000022D1E90001FDF7FFFCFDF70FFF8A4AE2
:102C50004FEAE07882FB00120346C8EB6218642258
:102C600002FB18385946B8F1000F5046B8BFC8F1FA
:102C70000008FDF7FBFE7A4B8049B3F90030009362
:102C80000CAF02464346384604F078FE25603846CD
:102C9000FDF716FB0F280546069000F22781012854
:102CA00040F04A819DF83030237200232046656051
:102CB000735515B0BDE8F08F714A724BD2E90089A7
:102CC000D3E90001FDF7D2FE80EAE076A6EBE076DC
:102CD00049464046FDF7CAFE0CAF02463346384629
:102CE000694904F04BFE08AE38460696FDF7E8FA4F
:102CF0000F288046059000F20A81012840F01681D5
:102D00009DF830308DF8203032460023CDF81C80FD
:102D100002F80830069B2560B34200F01181089A42
:102D2000A2602360079B6360204615B0BDE8F08F6A
:102D30004F4B564EDFF840A1D3E90089D3E900019B
:102D400096ED007B4B4B00228DED027BFDF77CFC6A
:102D5000FDF78CFE8AFB0031C3170246C3EB6113FB
:102D60004FF0640B40460BFB1328B8F1000F4946A7
:102D7000D6E90067B8BFC8F10008FDF777FE00226A
:102D80003C4B814639463046FDF75EFCFDF76EFE52
:102D90008AFB003AC317C3EB6A130BFB130B8BEAD6
:102DA000EB73A3EBEB73DDE902010193FDF75EFE2C
:102DB0000CAF009043464A463846354904F0DEFDE4
:102DC00091E7274BB3F9022032490CAF384604F0A3
:102DD000D5FD5BE70023137014A9202341F8203DA3
:102DE00025600022204604F04BFB2B4D2060064658
:102DF0000FCD0C9FA76030607160B260F3600FCDA3
:102E000030617161B261F3610DE7174A1378632B8A
:102E1000E0D0002BE0D0013BDBB21370D2E6124FC2
:102E20003B78032B00F09280042B7FF4CBAEDFF8CD
:102E30003080B8F90220002AC6DD184B14A91868A2
:102E400001F83E2D3030FFF715FEB8F80230013B97
:102E5000A8F80230FFF794F93B78B3E6002002406F
:102E6000F800002000F80108C8000020D080000809
:102E7000D8000020000059401F85EB518C800008CD
:102E8000D0000020E00000206C800008E800002056
:102E900044800008B080000820800008CC0000209A
:102EA0003B4F3B78032B62D0042B7FF48BAEDFF8D3
:102EB000EC80B8F90220172A86DC364B14A9186872
:102EC00001F83D2D3030FFF7D5FDB8F80230013361
:102ED000A8F80230FFF754F93B7873E60023204648
:102EE000C4E90053237215B0BDE8F08F002206A993
:102EF000204604F0C5FA069BA360064620602A46D9
:102F00003046394604F012FC069D2668CDE606A838
:102F1000002205A904F0B4FA059B069008934246E6
:102F2000394604F003FCDDE90582EEE6324600286E
:102F30003FF4EBAE3046F2E700283FF4B6AEDEE7F2
:102F40000FCEA0606960AA60EB60EBE6DFF84CC0D2
:102F50001148BCF80010013909B2002201F50063E4
:102F6000ACF80010114601F097F93B785CE7DFF808
:102F70002CC00948BCF80010013109B2002201F54B
:102F80000063ACF80010114601F086F93B788BE73E
:102F9000C8000020CC000020EC020020F800002037
:102FA000024B4FF400221A60704700BFF800002067
:102FB0000D4B0E491A6E42F001021A661A6E82B06B
:102FC00002F001020092009A9A6D42F080529A65D6
:102FD0009B6D03F080530193019B8B6843F4804306
:102FE0008B6002B0704700BF0010024000700040CC
:102FF000704700BFFEE700BFFEE700BFFEE700BF6F
:10300000FEE700BF704700BF704700BF704700BFBA
:1030100000F0B8B9014801F071BB00BF44020020C4
:10302000014801F06BBB00BFE4010020014802F041
:10303000A1BD00BF00030020014803F02BB800BF72
:103040004C0300200120704708B504F035FB16231F
:1030500003604FF0FF3008BD08B504F02DFB1623C8
:103060000360FEE70C4A08B5136833B1184469469B
:10307000884208D81060184608BD084B13601844F1
:1030800069468842F6D904F017FB0C2303604FF021
:10309000FF33184608BD00BFFC000020E0030020FD
:1030A000054BD3F888204FF0006142F47002C3F85A
:1030B00088209960704700BF00ED00E000B5194A14
:1030C000194B136089B04F2342F20F7153601046C1
:1030D0000023C2E902310493019313619361CDE9A6
:1030E00005330793CDE9023302F0B6FBB8B94FF4CC
:1030F000805304A90B48049302F06CFC60B90023D0
:1031000001A908480193039302F02EFE08B1FFF7CE
:103110007FF909B05DF804FBFFF77AF9EFE7FFF7F5
:1031200077F9E4E7000300200008004002680E4B36
:103130009A4200D0704703F5023300B59A6D42F011
:1031400004029A659B6D83B0002203F0040301938F
:1031500011461E20019B00F0FDFE1E2003B05DF80D
:1031600004EB00F02DBF00BF00080040184B194AC7
:1031700010B50C211A604FF4FA34002218465C6036
:103180005961C3E902221A61C3E90622C3E9082290
:103190009A6203F0C9F8C0B900210D4803F0FCFEA3
:1031A00080B900210A4803F049FF40B9084803F0FC
:1031B000A9FE00B910BDBDE81040FFF729B9FFF71F
:1031C00027F9F3E7FFF724F9EBE7FFF721F9E3E746
:1031D0004C03002000380140184B194A10B50C214F
:1031E0001A604FF47A34002218465C605961C3E9D2
:1031F00002221A61C3E90622C3E908229A6203F097
:1032000093F8C0B900210D4803F0C6FE80B9002133
:103210000A4803F013FF40B9084803F073FE00B9F1
:1032200010BDBDE81040FFF7F3B8FFF7F1F8F3E782
:10323000FFF7EEF8EBE7FFF7EBF8E3E74C030020CE
:103240000038014070B502681B4B88B000249A42D8
:10325000CDE90344CDE90544079401D008B070BD21
:1032600003F558434FF400701A6E42F480421A6618
:103270001A6E02F480420192019ADA6C42F0010265
:10328000DA64DB6C039003F00103029303A90723C4
:10329000032212254FF09040CDE90623029E0495AB
:1032A00001F00CFC22462146252000F053FE25208B
:1032B00000F086FE08B070BD003801400D4885461C
:1032C0000D480E490E4A002302E0D458C45004337E
:1032D000C4188C42F9D30B4A0B4C002301E0136055
:1032E0000432A242FBD3FFF7DBFE04F0EBF9FFF759
:1032F000B9F8FEE7008000200000002094000020C4
:10330000D481000898000020E0030020FEE70000C0
:1033100038B50F4B1B680BB9012038BD0D494FF470
:103320007A720546B2FBF3F30868B0FBF3F000F0E5
:1033300055FE04460028EFD10F2DEDD80246294650
:103340004FF0FF3000F006FE034B20461D6038BDF5
:1033500008000020040000200C00002000B503201D
:1033600083B000F0E5FD0020FFF7D2FF18B1012087
:1033700003B05DF804FB0190FFF71AFE019803B05B
:103380005DF804FB034A0449136809680B441360A1
:10339000704700BFD803002008000020014B1868C8
:1033A000704700BFD803002038B50446FFF7F6FF8A
:1033B000631C054602D0044B1B681C44FFF7EEFF5C
:1033C000401BA042FAD338BD0800002070B582B07F
:1033D00000230193002800F0A180C56D0446002D54
:1033E00000F09180226893689D0005D5936823F0D2
:1033F000204323F03F0393609368D80017D4754BA4
:1034000091681B6874489B0921F01041A0FB0303DD
:1034100021F03F019B0941F0805191600193019B94
:103420002BB1019B013B0193019B002BF9D19368C8
:10343000D9005AD4E36D43F01003E365236E43F0E3
:1034400001032366936813F0040F4FF00100E36D4E
:1034500052D1DB0650D4E36D23F4817343F00203B1
:10346000E3659368DE0709D44FF0A0435B499B688E
:103470008968CD0703F0010340F18380D4E9021588
:10348000E36B2B430B43657F94F8241043EA4533E9
:10349000012943EA014303D1A16A013943EA4143C7
:1034A000E16A21B1256B01F4787129430B43D66899
:1034B0004B49656B31400B43D360136923F0406384
:1034C0002B431361936859072BD593686369012BCC
:1034D0004FD0136B23F00F031363E36D23F003034B
:1034E00043F00103E36502B070BD936813F0040F6D
:1034F0004FF00000E36DACD0E36D012043F010030A
:10350000E36502B070BDFDF7FDFC22682566936897
:1035100084F858509D007FF56FAF67E7012002B037
:1035200070BD93681B07D1D4D16894F83830267FDA
:10353000256921F480415B0021F0020143EA8633D2
:103540000B43D36013693DB343F480331361D2F866
:10355000C03023F47F5323F03F032B43C2F8C03025
:1035600094F84030012B23D0136923F00103136139
:10357000ACE7116B236A21F00F01013B0B4313638E
:10358000ABE7002B7FF47AAF164965688B6823F4AC
:103590007C132B438B6071E723F480331361D2F8E3
:1035A000C03023F47F5323F03F03C2F8C030D7E785
:1035B000D4E91131E66C256D0B43116943F0010329
:1035C000334321F4FF612B4321F004010B431361CA
:1035D0007CE700BF04000020632D3E050001005081
:1035E0000740F0FF000300502DE9F0474A4B066802
:1035F0009D68B3685C0728D490F85830012B24D01C
:1036000005F01F050123092D90460F46044680F85A
:10361000583005D9002384F858300120BDE8F087E0
:1036200040F22123EB40D807F4D5B368D9070FD473
:10363000B2683A4B1A4247D0E36D43F01003E3659A
:10364000236E43F001032366E4E70220BDE8F08720
:10365000E36D334A23F4706323F0010343F4807372
:103660009642E3654ED0E36D23F48013E365E36D8A
:10367000606D2C492C4A13F480531CBF236E23F039
:1036800006032366294BC3621C23C0E90C12336076
:103690007368002243F0100384F858207360F168C7
:1036A00041F0010143463A46F16006F1400100F065
:1036B0008BFF2268936823F0004323F03F0343F01D
:1036C00004039360BDE8F087B368194A134043F0E0
:1036D0000103B3609246FFF761FE814626683368B6
:1036E000DB07B5D4B368DA070FD4B36803EA0A037B
:1036F00043F00103B360FFF751FEA0EB090002287D
:10370000ECD999E7002DAED0B1E7FFF747FEA0EB6B
:1037100009000228E2D98FE7000300503F00008033
:10372000000100503D370008B53700084D3700084C
:10373000C0FFFF7F704700BF704700BF08B5806AB9
:10374000FFF7FAFF08BD00BF704700BF836ADA6D5C
:1037500012F0500F10B5DA6D1DD1196842F40072E5
:10376000DA650A6812F0080FCA681BD012F4406FBD
:103770000DD1CA6894040AD4DA6D22F48072DA6535
:10378000DA6DD10403D4DA6D42F00102DA6518462D
:10379000FFF7D0FF10BDD20607D45B6DBDE8104027
:1037A0005B6B18479007F2D4E6E71846FFF7CCFFAB
:1037B00010BD00BF806A08B5C36D43F04003C36508
:1037C000036E43F004030366FFF7BEFF08BD00BFAE
:1037D0002DE9F041034682B093F858200020012AD9
:1037E000019000F003811C68A2680120560783F84D
:1037F00058004FD4D1E90020860904F1300506F0C5
:103800000C0600F01F0077594FF01F0C0CFA00FC5B
:10381000C2F3846227EA0C0782403A437251A268DD
:10382000550749D5A2680A68A068C00713D4CE68B6
:10383000C148D4F8B050DFF828C306F01807F840A4
:10384000C2F31207104025EA070528436645C4F86D
:10385000B00000F08B80B9490A422BD0B84DB9496D
:10386000A8688A4200F0E0761ED0B7498A421BD091
:10387000B6498A4240F0BE8010F080701AD1B44A36
:10388000944217D0AA6822F0E072164346F0807680
:10389000AE6003E0DA6D42F02002DA65002283F8C0
:1038A000582002B0BDE8F081020203D4B4F1A04F69
:1038B00000F0CB800020F1E7A5680A6815F0080544
:1038C000B2D18E68C2F3045E0720D20D00FA0EF06A
:1038D000B6F1004F02F004026FEA000004F1140C8C
:1038E00000F01A8152F80C7006FA0EF638400643C2
:1038F00042F80C60626922F000426261D1F810C0A7
:10390000E7680A68BCF1040F04F1600000F0BB80B6
:103910004E6950F82C80DFF84CE2C7F3C1077F00F6
:1039200002F0F84242F00042BE40164308EA0E0E92
:1039300046EA0E0640F82C600F698E6950F8272081
:1039400091F81CC022F08072324340F827200E69A3
:1039500050F82620BCF1010F22F0007208BF4FF092
:103960000075154340F826500A685DE7002F55D0D2
:1039700092FAA2F0B0FA80F0013000F01F0009289E
:1039800000F2F28092FAA2F6B6FA86F692FAA2F065
:10399000B0FA80F001300136012500F01F00B606B4
:1039A00005FA00F006F0F846064392FAA2F5B5FAD9
:1039B00085F5013505F01F0505EB45000005304391
:1039C0004FEAD05C0CF0040C04F11407C0F304506F
:1039D0005CF807508E680722824025EA020506FA45
:1039E00000F028434CF807000A6834E7022002B0D0
:1039F000BDE8F08157498A427FF45CAF10F4800043
:103A00007FF458AF524A94423FF454AFAA6822F070
:103A1000E072324342F48002AA603FE7920E013224
:103A200002F01F050126920602F0F842AE40092D71
:103A300046EA020605EB4500C0D9A0F11E021205B8
:103A400042F0007242EA0600BAE73D48424A816805
:103A5000424C21F0E0710E4346F400068660126885
:103A60009209A4FB0212920902EB42029200019217
:103A7000019A002A3FF41EAF019A013A0192019A7D
:103A8000002AF9D116E7256E256EC2F31207C5F399
:103A90008465002F4AD1C2F38466B54206D1226EF6
:103AA00022F0004222660A68C2F31207456846689F
:103AB000C6F38466002F79D1C2F38465AE4240F02C
:103AC0009580426822F0004242600A6885688668F4
:103AD000C2F31205C6F38466002D71D1C2F384656A
:103AE000AE4200F10C077CD1826822F00042826075
:103AF0000A6838683868C2F31205C0F38460002D84
:103B00006AD1C2F3846585427FF48EAE3A6822F0B2
:103B100000423A600A6887E652F80C60304042F88A
:103B20000C00626942F000426261E7E692FAA2F696
:103B3000B6FA86F6B1E700BFFFFF07000000088075
:103B400000030050000021C31000C090000052C7C5
:103B500000010050000084CB04000020632D3E05CE
:103B600000007F4000F0FF0392FAA2F6B6FA86F654
:103B700092FAA2F0B0FA80F001300136012500F08F
:103B80001F00B60605FA00F006F0F846064392FA62
:103B9000A2F5B5FA85F5013505F01F0505EB4505DC
:103BA000A5F11E02120542F000724BE792FAA2F54F
:103BB000B5FA85F5AE4284D085688668C6F384661A
:103BC00092FAA2F5B5FA85F5B54200F10C078BD053
:103BD000C568C068C0F3846092FAA2F5B5FA85F5AD
:103BE00091E7C668C068C0F384608CE78668866821
:103BF000C6F3846674E700BF38B503689A68910716
:103C000002D59B68002038BD9A68D20726D59A68ED
:103C100002F00D02012A09D0C36D43F01003C36501
:103C2000036E43F001030366012038BD9A6822F059
:103C3000004222F03F0242F0020203219A60196022
:103C40000446FFF7ABFB054604E0FFF7A7FB401B6C
:103C5000022805D823689B68DB07F6D4002038BD0E
:103C6000E36D43F01003E365236E43F00103236625
:103C7000012038BD30B590F8583083B00022012BB8
:103C8000019235D0012380F8583004460D46FFF7E5
:103C9000B3FFE36D20BB23F4885323F002032268B3
:103CA0001B4943F00203E365936805F0804523F068
:103CB000404345F0004523F03F031D43956005E078
:103CC000019B01330193019B8B4214D89368002B15
:103CD000F6DBE36D23F0030343F00103E36502E049
:103CE00043F01003E365002384F8583003B030BD7F
:103CF000022003B030BDE36D23F0120343F0100344
:103D000000220120E36584F8582003B030BD00BFD5
:103D100001DE040090F85820012A47D0F0B504686D
:103D20000E680346B4F1A04F4FF0010083F858002D
:103D300007D0DA6D002142F02002DA6583F85810CE
:103D4000F0BD274DAA68520709D5A268DA6D42F086
:103D50002002DA650120002283F85820F0BDA06817
:103D600010F00400F2D11EB3DFF878E04F68DEF8FF
:103D7000082093F838C022F460423A4342EA4C32B9
:103D8000CEF80820A268D40727D4A86810F0010054
:103D900021D1DEF808208C6822F4716121F00F0136
:103DA00046EA04020A43CEF80820D4E7022070470E
:103DB0000C4A916821F460419160A068A968C90724
:103DC00000F0010007D430B9916821F4716121F04D
:103DD0000F019160BFE70020BDE7AA68BBE700BF05
:103DE0000001005000030050F0B583B000230193A0
:103DF000002854D002681368002B04464FDB437F31
:103E000003F0FF01002B7ED0D4E90163D4E9035015
:103E10006169176833430B43166840492B430343DA
:103E200031400B4313601368180201D53B024ED595
:103E30003B4B9A4262D004339A426AD004339A428E
:103E400015BF6FF080426FF000524FF080414FF08D
:103E50000051A3699F0725D0324DA868DE064CBFEC
:103E600008431040A8602F4DE8689F064CBF0843E8
:103E70001040E8602B48416145689E074CBF0D43E8
:103E80001540DB0745601DD5264B1A6811431960A4
:103E9000637F03F0FF008BB1002003B0F0BD012071
:103EA00003B0F0BD1F4B59681140596019680A40B2
:103EB0001A60637F03F0FF00002BEDD101236377CD
:103EC00003B0F0BD17490B681A400A60F1E7164BC2
:103ED00016491B689B09A1FB03139B0903EB830392
:103EE0009B000193019B002BA2D0019B013B0193FE
:103EF000019B002BF9D10A4B9A429CD16FF400121E
:103F00004FF40011A5E701770162FDF7A1F82268DF
:103F10007AE76FF480024FF480019AE70F7E00FF8A
:103F2000000201400004014004000020632D3E0512
:103F3000074AD3684FF6FF010B40000243F0BF630E
:103F400000F4E06043F400330343D360704700BFE4
:103F500000ED00E0184BDB68C3F3022330B4C3F17B
:103F60000705042D03F1040428BF0425062C19D9E4
:103F7000033B4FF0FF349C4022EA04044FF0FF3231
:103F8000AA4021EA020101FA03F2224312010028A9
:103F9000D2B20ADB00F1604000F5614080F80023F6
:103FA00030BC704700242346E8E7044B00F00F00C4
:103FB00003441A7630BC704700ED00E0FCEC00E0F2
:103FC000002807DB00F01F0101234009024A8B4053
:103FD00042F82030704700BF00E100E00138B0F146
:103FE000807F0ED2084B10B4084C5860F02084F843
:103FF00023000022072110469A6019605DF8044BE7
:1040000070470120704700BF10E000E000ED00E0C5
:104010002DE9F0415FEA920E076811D00C4601EBE2
:104020008E0C637894F80080E678A5781B0443EA48
:1040300008633343043443EA0523A4453B60F0D1CD
:1040400012F003020BD0012A1AD0022A0AD101EB86
:104050008E0311F82E205B7843EA02233B803868F8
:10406000BDE8F08101EB8E0211F82E10537843EA7F
:1040700001233B8093783B7007683868BDE8F08186
:1040800011F82E303B7007683868BDE8F08100BF3A
:1040900000283CD0437F10B503F0FF020446FBB17B
:1040A0002379022262771BBB23681A4A5A619A68F5
:1040B00022F018029A60627922BB4FF0FF321A6137
:1040C000D4E90520996821F06001114399609A684C
:1040D00022F08002024301219A600020617710BD26
:1040E0000277FCF7FFFF237902226277002BDBD0F7
:1040F000D4E90212204600F051F830B96279236801
:10410000002ADAD022691A61DAE7012010BD012005
:10411000704700BFB71DC104F8B502230468437798
:10412000A368D0F820C043F00103BCF1020F06469B
:10413000A3600D4617461BD0BCF1030F0BD0BCF19A
:10414000010F03D0012300207377F8BDFFF760FF54
:1041500001237377F8BD3AB1043901EB820751F8B6
:10416000043F23608F42FAD1206801237377F8BDA2
:104170005FEA520C0AD00B4601EB8C0019885A8872
:10418000043342EA014298422260F7D1FB0744BF60
:1041900035F82C3023802068E7E700BF10B41E23D9
:1041A00002E013F1FF3321D321FA03F4E407F8D539
:1041B000182A1DD8DFE802F00F1C1C1C1C1C1C1C3C
:1041C000231C1C1C1C1C1C1C0D1C1C1C1C1C1C1C37
:1041D0002000072B0CD800685DF8044B4161836810
:1041E00023F018031A43826000207047002AF2D09F
:1041F00001205DF8044B7047062BECD9F8E70F2B34
:10420000E9D9F5E788B1037910B503F0FF02044658
:104210003BB1002302210122217118462361227142
:1042200010BD4271FCF7A4FFF3E70120704700BF07
:10423000F8B54379012B2DD00268022606710D4690
:1042400004461168012005F0100700FA07F30B433C
:1042500060711360FFF7A8F82268136865B903F06E
:104260003E03B34203D1536843F00103536001237B
:10427000002023716071F8BDBE4003F47813B3428F
:10428000F5D1536843F002035360002001232371EA
:104290006071F0E70220F8BD10B483B0006800241C
:1042A0000194C46B019051B1019914310A440192F7
:1042B000019A0020136003B05DF8044B7047019928
:1042C00008310A440192F3E74379012B00F0C480DE
:1042D0002DE9F0418F68144602230122042F0E4677
:1042E00005464271037179D0036804F01004F26945
:1042F000012A69D0D6E905C0DA6B0721A14022F472
:104300004048C2076FEA01015AD500204FF480727D
:1043100047EA0C07A24096F804C0074301EA0801E7
:10432000D2437079BCF1010F02EA01024FF4007828
:10433000316808BF47F4807708FA04F801286FEA6B
:10434000080808BF47F40077022908EA020800F0CD
:10435000858048EA0108A74047EA0807DF63186834
:10436000D6E903124FF48046A64020EA0600186002
:10437000186840F6FE76A64020EA060601FA04F028
:10438000304318601868C026A64020EA060018606E
:104390009201186EC1F3830140F60F7602F4706249
:1043A0000A4306FA04F102FA04F420EA0102144373
:1043B000012100221C66104629716A71BDE8F08156
:1043C000820745D50120A1E7996B326A1F20A040E2
:1043D00021EA0001A2400A439A638BE7BCB9FEF7C9
:1043E000DDFF074604E0FEF7D9FFC01B01283ED8D9
:1043F0002B685B6B1904F6D40120FEF7D5FF2B6800
:10440000726A1A640DE0FEF7C9FF01282FD82B68E5
:104410005B6B002BF7DB0120FEF7C6FF2B68726A8F
:104420005A6404F010049A6CB16AB76840F2FF3025
:10443000A04022EA0002A1400A439A64DA6CF16AC1
:10444000FF20A04022EA0002A1400A43DA644EE7BE
:10445000BCFA8CF0400959E70220704701F086F859
:104460000B4B98420CD948F400482B6873E72B6932
:10447000032243F008032B6110462A71BDE8F08146
:10448000044A2B6890427FF666AF48F4804862E7A2
:104490000068890900B4C40400287CD003463F4A60
:1044A000006890422DE9F04161D93D493D4A3E4CBA
:1044B0000144A2FB012109098900D3E902721E69A6
:1044C0001C643A435C699D69DFF8F4E0DFF8CC8056
:1044D00032434FF0020C224383F825C0314CD0F810
:1044E00000C0DE6959642A43C5B2083DA4FB0545F6
:1044F0001C6A32432CF4FF4C2C4E22432CF0700CDF
:10450000C5F30414404598BF764642EA0C02890878
:104510000125DFF8B0C0026005FA04F406EB810E55
:10452000B7F5804F1C65C3E912EC29D05868C2B2B8
:104530000138032846F82120CCF8044026D81C492D
:104540001C4898651144013A890002F01F0205FADF
:1045500002F200245965DA650C60426000200122F5
:10456000D86383F8240083F82520BDE8F081124940
:104570000C4A124C0144A2FB0121090989009CE765
:1045800000225A6046F82120CCF804400022C3E9FA
:104590001522DA65E2E70120704700BF07040240F8
:1045A000F8FBFDBFCDCCCCCC00040240200802407B
:1045B0003F82001040090240F8FFFDBF00000240AA
:1045C0000008024080080240F0B490F82440012C1A
:1045D0004AD090F825400125AC4280F824503DD1C6
:1045E0000468C76C0226002580F82560C56326682C
:1045F000D0E914C526F001062660C7F804C015B13D
:10460000D0E916677760466CD0F808C006F01F073F
:104610000126BE40076C7E606360036BBCF1100F27
:104620000BBFA260A160E160E26003B3236843F0C6
:104630000E032360836C1A68D20303D51A6842F410
:1046400080721A601DB12B6843F480732B6023685D
:1046500043F0010323600020F0BC7047002380F882
:104660002430F0BC022070470220F0BC7047236861
:1046700023F004032360236843F00A032360D9E78F
:1046800090F82530022B70B50AD0012204230021B6
:10469000C363144680F8252080F82410204670BD9E
:1046A0000368856C1968C66C21F00E01D0E91042D0
:1046B0001960196821F0010119602B68416D23F41C
:1046C00080732B6002F01F0201239340026D636030
:1046D000726031B10B68D0E9162423F480730B604B
:1046E0005460836B0122002480F8252080F8244048
:1046F00013B19847204670BD1C46CFE770B4D0E98F
:10470000106304223168056803F01F039A400A42CF
:104710002C680AD014F0040F07D02B689B0637D5FD
:10472000036B7260CBB170BC184702229A400A42F8
:1047300015D014F0020F12D02B68990606D42B68FE
:10474000012123F00A032B6080F82510C36A7260F0
:10475000002280F82420002BE5D170BC704708228D
:104760009A400A42F9D02207F7D52A68416B22F015
:104770000E022A60012202FA03F300247360C2636E
:1047800080F8244080F825200029E6D070BC084736
:104790002B6823F004032B60C2E700BF2DE9F0472C
:1047A000DFF8208198F80060012E56D09A46012348
:1047B00014460D46814688F80030FEF7EFFD404E66
:1047C000074605E0FEF7EAFDC01BB0F57A7F3ED84C
:1047D0003269D103F6D437694CF2FA331F403FD126
:1047E0003369DA0744BF012333610023C8F804307A
:1047F000B9F1000F3CD1324A536943F001035361D0
:104800002C60BFF36F8F0127C5F804A0FEF7C6FD2B
:104810002B4C054605E0FEF7C1FD401BB0F57A7F45
:1048200043D82369DB03F6D423694CF2FA321340F0
:104830003DD1206910F0010002D00122184622610A
:1048400037B11F4A536923EA0707576100E0032085
:10485000002388F80030BDE8F0870220BDE8F0872B
:10486000D8F804303B43C8F8043001203761EFE743
:1048700009F1FF33012BC9D811494B6943F4802357
:1048800022464B61EFF3108072B62D1B04F5807148
:104890001368535104328A42FAD180F31088B9F177
:1048A000020F08BF4FF48027B0E70320C8E7D8F80D
:1048B00004201A43C8F8042001202361C0E700BF88
:1048C0000020024010000020064B5A69002A01DB3C
:1048D000002070470449054A99609A605869C00FE2
:1048E000704700BF0020024023016745AB89EFCD30
:1048F000044B5A6942F000425A615869C043C00FE4
:10490000704700BF0020024070B50646FEF746FD26
:10491000104C054604E0FEF741FD401BB04216D89E
:104920002369DB03F7D423694CF2FA32134007D131
:10493000206910F0010002D001221846226170BDEA
:1049400005494A681A434A600120236170BD03206B
:1049500070BD00BF00200240100000202DE9F0478C
:10496000544F3B78012B78D0054601244FF47A70E0
:1049700088463C70FFF7C8FF824620B100233B7099
:104980005046BDE8F0874C4B78601A6812F4007FFF
:104990001A6867D1520540F18B801A68022122F40F
:1049A00080621A6039772B68012B68D04FF0FF3393
:1049B000C8F80030D5E9026333449E4227D23E4C0A
:1049C0004FEAC60905E0D5E9023201361344B34285
:1049D0001DD9636909F4FF6223F4FC731343636117
:1049E000636943F002036361636943F48033636185
:1049F0004FF47A70FFF788FF636923F4FD7309F1C0
:104A0000080963610028DED0C8F8006082463B7F59
:104A1000DBB203F0FD02012A0CD1274A116841F4F0
:104A200000611160116821F400611160116841F4A6
:104A300000711160023B012B0CD81F4B1A6842F425
:104A400080521A601A6822F480521A601A6842F47E
:104A500080621A6000233B7790E74FF0020A5046CD
:104A6000BDE8F08722F400721A601A6851051DD55E
:104A70001A68032122F480621A60397793E76B6821
:104A8000DB0704D50C4A536943F0040353610A4C15
:104A9000636943F4803363614FF47A70FFF734FF46
:104AA000636923F0040382466361B0E73C777AE7E9
:104AB000387778E710000020002002402DE9F04F01
:104AC000D1F800E083B0BEF1000F00F08180DFF884
:104AD000A09188460026012303FA06F212EA0E0787
:104AE00072D0D8E9011421F0100B06FA03FC0BF187
:104AF000FF35032303FA0CFA012D6FEA0A0A04FAC0
:104B00000CF468D9C3680AEA03031C43C460026852
:104B100001F0030302EA0A0A03FA0CF343EA0A0368
:104B2000CD00036050D54C4A136E43F00103136669
:104B3000136E26F0030404F1804403F0010304F52E
:104B40008034019306F00303019AA5689B000F22AD
:104B50009A40B0F1904F25EA020213D03F4DA8428F
:104B60006BD03F4DA84263D03E4DA8426AD03E4D27
:104B7000A8426CD03D4DA8420CBF0525062505FA7C
:104B800003F31A43A260D9F80030FA43CC0354BFB0
:104B900013403B43C9F80030D9F804308D0354BFAB
:104BA00013403B43C9F80430D9F80830CC0254BF55
:104BB00013403B43C9F80830D9F80C30890254BF80
:104BC00013403B43C9F80C3001363EFA06F382D15C
:104BD00003B0BDE8F08F8368D8F80C5003EA0A03ED
:104BE00005FA0CF51D4385604368C1F3001523EAFF
:104BF00002032A46B2401A434260C36803EA0A032A
:104C00001C43BBF1020FC46081D1F40800EB8404A3
:104C100006F00703256AD8F810209B004FF00F0B11
:104C20000BFA03FB25EA0B059A402A4322626EE742
:104C3000022505FA03F31A43A4E7012505FA03F355
:104C40001A439FE7032505FA03F31A439AE704255D
:104C500005FA03F31A4395E70010024000040048E8
:104C600000080048000C00480010004800140048EC
:104C7000000401400AB9816270478161704700BF3A
:104C80003B4A10B4136868B903F4C063B3F5806F8E
:104C900014D0D2F880305DF8044B23F48073C2F84E
:104CA00080307047B0F5007F2FD023F4C06343F409
:104CB0008063136000205DF8044B7047D2F88010C9
:104CC0002C4B2D4821F48071C2F88010116821F41A
:104CD000C06141F4007111601C685169322303FB0B
:104CE00004F3A0FB03039B0C480503F1010306D565
:104CF00000E023B15169490503F1FF33F9D41C4B9E
:104D00005B695C05D6D50320D5E703F4C063B3F532
:104D1000806F09D0D2F880305DF8044B43F4807383
:104D20000020C2F880307047D2F88010114B124832
:104D300041F48071C2F88010116821F4C06141F41F
:104D4000007111601C685169322303FB04F3A0FB5E
:104D500003039B0C480503F10103D0D501E0002BB0
:104D6000CDD05169490503F1FF33C8D5F7E700BF3E
:104D7000007000400400002083DE1B43002800F088
:104D80006C812DE9F0410368D90782B004462DD526
:104D9000B7498A68C96802F00C020C2A00F0F58055
:104DA000082A00F0F7806368B3F5803F00F02E8199
:104DB000B3F5A02F00F0E081AD4D2A6822F48032D7
:104DC0002A602A6822F480222A60002B40F0238186
:104DD000FEF7E4FA064605E0FEF7E0FA801B6428D9
:104DE00000F237812B689F03F6D423689E0700F1F9
:104DF000A5801A0719D563699D4D002B00F0D78057
:104E0000D5F8943043F00103C5F89430FEF7C6FAA4
:104E1000064605E0FEF7C2FA801B022800F219815F
:104E2000D5F894309F07F5D5236859073FD5904BA7
:104E30009A6DD20000F12B819A6D42F080529A65F2
:104E40009B6D03F080530193019B0126894D2A68D5
:104E5000D70540F1EE80A368012B00F01A81052BE5
:104E600000F0CB81824DD5F8902022F00102C5F8E8
:104E70009020D5F8902022F00402C5F89020002B55
:104E800040F00E81FEF78AFA41F28837804606E04C
:104E9000FEF784FAA0EB0800B84200F2DA80D5F8F9
:104EA00090309A07F4D4002E40F0238123689B06AB
:104EB00018D5A3696E4D002B00F00781D5F8983006
:104EC00043F00103C5F89830FEF768FA064605E09E
:104ED000FEF764FA801B022800F2BB80D5F89830F8
:104EE0009F07F5D5E06928B3614DAA6802F00C026E
:104EF0000C2A00F04E812A68022822F080722A6073
:104F000000F0FD80EA6822F00302EA60EA6822F01D
:104F1000887222F48032EA60FEF740FA2C46054699
:104F200005E0FEF73BFA401B022800F2928023685E
:104F30009B01F6D4002002B0BDE8F0814C4A936892
:104F4000D26803F00C030C2B45D0042B47D0E36848
:104F5000474D002B00F083802B6843F480732B6057
:104F6000FEF71CFA064604E0FEF718FA801B02283A
:104F70006FD82B685805F7D56B68226923F0FE437C
:104F800043EA02636B60236833E701F003010329FE
:104F90007FF409AF364A126892037FF527AF626843
:104FA000002A7FF423AF012002B0BDE8F081D5F8DC
:104FB000943023F00103C5F89430FEF7EFF906466C
:104FC00004E0FEF7EBF9801B022842D8D5F89430B4
:104FD0009807F6D428E702F00302022AB7D1244B3F
:104FE0001B685D0502D5E368002BDCD0204A2069F0
:104FF0005368214923F0FE4343EA00635360086885
:10500000FEF786F90028CED12368F2E6184A136825
:1050100043F480331360FEF7C1F9154D064604E0F2
:10502000FEF7BCF9801B642813D82B689B03F7D5C7
:10503000DBE62A6842F480722A60FEF7AFF9074681
:105040002B68D8053FF507AFFEF7A8F9C01B02286B
:10505000F6D9032002B0BDE8F081012070472B682B
:1050600023F480732B60FEF799F906460BE000BF2E
:1050700000100240007000400C000020FEF78EF986
:10508000801B0228E5D82B685905F7D4BCE7002619
:10509000DCE6614AD2F8903043F00103C2F8903068
:1050A000FEF77CF95C4D804641F2883705E0FEF75B
:1050B00075F9A0EB0800B842CBD8D5F89030990725
:1050C000F5D5002E3FF4F2AE13E0D5F8983023F07A
:1050D0000103C5F89830FEF761F9064604E0FEF7D3
:1050E0005DF9801B0228B4D8D5F898309807F6D41B
:1050F000F8E6494A936D23F080539365D6E6FEF7B0
:105100004DF9064604E0FEF749F9801B0228A0D8B5
:105110002B689901F7D4E968404B226AA76AE66ACE
:10512000606A0B401343D4E90C1243EA07230138A9
:1051300043EAC663490843EA00130139520843EAC7
:105140004153013A43EA4263EB602B68324C43F02F
:1051500080732B60EB6843F08073EB60FEF71EF901
:10516000054605E0FEF71AF9401B02283FF671AF2D
:1051700023689A01F6D5DDE603F18043A3F53C33BD
:105180001A6842F480221A601A6842F480321A6067
:1051900041E701283FF408AFEB68226A03F00301FE
:1051A00091427FF400AF616A03F0F0020139B2EB83
:1051B000011F7FF4F8AEA16A03F4FE42B2EB012FA7
:1051C0007FF4F1AEE16A03F07842B2EBC16F7FF495
:1051D000EAAE226B5208013A03F4C001B1EB425F20
:1051E0007FF4E1AE626B5208013A03F0C063B3EBA7
:1051F000426F14BF01200020D6E6074BD3F8902061
:1052000042F00402C3F89020D3F8902042F001024B
:10521000C3F8902044E700BF001002400C809F01BB
:10522000002800F00581AD4A2DE9F843136803F02A
:105230000F038B420CD2136823F00F030B43136050
:10524000136803F00F038B4202D00120BDE8F883FE
:105250000368DF0704460D4640F188804268032A50
:1052600000F0AD809E4B022A1B6800F0FF805B05BA
:10527000EBD59B4B996801F00C0104290AD0996881
:1052800001F00C01082905D0996801F00C010C29E6
:1052900000F0FB804FF00008914EB36823F0030349
:1052A0001A43B260FEF77AF841F28837814605E08A
:1052B000FEF774F8A0EB0900B84274D8B3686268CE
:1052C00003F00C03B3EB820FF2D123689F0740F188
:1052D000D380580704D582498A6842F4E0628A6024
:1052E000190706D57E4A936823F47C5343F4E063A0
:1052F00093607B4AA168936823F0F0030B439360AB
:10530000764E326802F00F02AA4237D823685A0755
:1053100006D57349E0688A6822F4E06202438A6035
:105320001B0743D46E4A936803F00C03042B00F070
:10533000D380936803F00C03082B00F09B809368E4
:1053400003F00C030C2B75D00023654A654C926862
:10535000654866490068C2F30312A25C02F01F02AE
:10536000D3400B60BDE8F843FDF7D2BF9E07B0D431
:105370005A4E326802F00F02AA42C7D9326822F0B0
:105380000F022A433260FEF709F841F2883780465F
:10539000336803F00F03AB42B8D0FDF7FFFFA0EB7B
:1053A0000800B842F4D90320BDE8F8834C4A2169CB
:1053B000936823F4605343EAC1039360B2E748491A
:1053C000086880017FF541AFCE68C868484F06F095
:1053D0000306032ECE680CBF46494749C0F30310AD
:1053E0000130B1FBF0F1C6F306203D4E01FB00F1A8
:1053F000F068C0F3416001304000B1FBF0F1B94208
:105400007FF648AFB16811F0F00F07D013F0020833
:105410003FF442AFA368002B7FF43CAF30498B6868
:1054200023F0F00343F080038B604FF0800833E7F4
:1054300001207047D068D368D26800F00300C3F33E
:1054400003130328C2F3062203F101010CBF294B09
:10545000294BB3FBF1F303FB02F3214AD268C2F3F9
:10546000416201325200B3FBF2F36EE799033FF55C
:1054700000AFEAE61F4B68E7B8F1000F3FF440AF1A
:10548000B36823F0F003B3603AE7D868D968184EE0
:1054900000F003000328D8680CBF164B164BC1F36D
:1054A00003110131B3FBF1F3C0F306210C4803FBF8
:1054B00001F3C168C1F3416101314900B3FBF1F36C
:1054C000B3427FF6E7AE836823F0F00343F0800336
:1054D00083604FF08008DFE6074B36E7002002408C
:1054E000001002402C8100080C0000200400002065
:1054F00000B4C40400127A000024F400184B9A6827
:1055000002F00C02042A27D09A6802F00C02082A42
:1055100024D09A6802F00C020C2A01D000207047B7
:10552000D968D868DB6801F00301C0F303100329D0
:10553000C3F3062300F101020CBF0A480A48B0FB7E
:10554000F2F000FB03F0064BDB68C3F34163013369
:105550005B00B0FBF3F070470348704701487047A9
:105560000010024000127A000024F400014B186879
:10557000704700BF04000020054B064A9B6806499F
:10558000C3F302230868D35C03F01F03D8407047BD
:10559000001002403C81000804000020054B064A30
:1055A0009B680649C3F3C2230868D35C03F01F035A
:1055B000D8407047001002403C81000804000020E1
:1055C0002DE9F0410368044613F4002082B057D05F
:1055D0009F4B9A6DD00040F10D8100279D4D2B68A7
:1055E00043F480732B60FDF7D9FE064605E0FDF716
:1055F000D5FE801B022800F20F812B68D905F6D555
:10560000934B216CD3F8902012F4407228D08A4238
:1056100026D0D3F89000D3F8902042F48032C3F81B
:105620009020D3F8902022F48032C3F8902020F408
:105630004075C207C3F8905012D51D46FDF7AEFE67
:1056400041F28836804606E0FDF7A8FEA0EB080090
:10565000B04200F2E180D5F890309B07F4D5216C80
:105660007B4AD2F8903023F440730B43C2F8903059
:10567000002027B1764A936D23F080539365236809
:10568000DE0708D572496568D1F8882022F0030248
:105690002A43C1F888209D0708D56D49A568D1F82F
:1056A000882022F00C022A43C1F88820590708D527
:1056B0006749E568D1F8882022F030022A43C1F812
:1056C00088201A0708D562492569D1F8882022F078
:1056D000C0022A43C1F888209F0608D55C49656945
:1056E000D1F8882022F440622A43C1F888205E065F
:1056F00008D55749A569D1F8882022F440522A4399
:10570000C1F888201D0608D55149E569D1F88820DF
:1057100022F440422A43C1F88820D90508D54C49D3
:10572000256AD1F8882022F440322A43C1F8882023
:105730009A0508D54649656AD1F8882022F44022A6
:105740002A43C1F888205F050BD54149A56AD1F8E5
:10575000882022F440122A43B5F5801FC1F8882022
:105760005CD01E050BD53A49E56AD1F8882022F4B1
:1057700040022A43B5F5800FC1F8882053D0DD04DC
:105780000BD53349256BD1F8882022F040722A438B
:10579000B5F1807FC1F888204AD099040BD52C49F7
:1057A000656BD1F8882022F040622A43B5F1006F82
:1057B000C1F8882041D05A040BD52549A56BD1F8F2
:1057C000882022F040622A43B5F1006FC1F888209A
:1057D00038D01B040BD51E4AE16BD2F8883023F079
:1057E00040530B43B1F1805FC2F888300DD002B056
:1057F000BDE8F0819A6D42F080529A659B6D03F08E
:1058000080530193019B0127E8E6D36843F480337A
:10581000D36002B0BDE8F08103202AE7CA6842F4F1
:105820008012CA609DE7CA6842F48012CA60A6E787
:10583000CA6842F48012CA60AFE7CA6842F48012B4
:10584000CA60B8E7CA6842F48012CA60C1E700BF04
:105850000010024000700040002800F08280F8B57F
:1058600090F83D30044603F0FF0263B32268464ED1
:10587000A569E0686168022384F83D30B24213688C
:1058800071D0B2F1804F52D0A6F59436B2421FD0FB
:1058900006F58066B2421BD006F59636B24217D0A6
:1058A00006F54066B2426DD006F58066B24269D018
:1058B00006F58066B24265D023F080032B43136067
:1058C000D062916217E080F83C20FDF72FFCCDE715
:1058D000A6682E4F23F070033343266923F44073E8
:1058E000334323F080032B43BA421360D0629162AA
:1058F0002BD16369136301235361002084F848307E
:1059000084F83E3084F83F3084F8403084F84130E9
:1059100084F8423084F8433084F8443084F84530C9
:1059200084F8463084F8473084F83D30F8BDA768E5
:10593000266923F070033B4323F44073334323F081
:1059400080032B431360D0629162114B9A42D0D0F6
:1059500003F580639A42CCD003F580639A42CAD1A2
:10596000C7E701207047A768266923F070033B430F
:1059700023F44073334323F080032B431360D0623E
:105980009162B6E72669F3E7002C0140003401403C
:105990000040014090F83D30012B01D001207047BC
:1059A0000368022280F83D20D968094A41F00101CC
:1059B000D96099680A40062A08D0B2F5803F05D020
:1059C0001A6842F001021A600020704700207047F8
:1059D0000700010090F83C30012B00F08A80022281
:1059E0000368F0B480F83D209D680A685A4C702A1C
:1059F00004EA05044FF0010580F83C509C607AD021
:105A000024D8302A6BD040F2A080502A00F0838046
:105A1000602A40D0402A35D11D6A1E6A4C68CF6882
:105A200026F001061E629A6925F00A0122F0F002B2
:105A300042EA071221439A6119629A6822F44012DD
:105A400022F0700242F047029A601BE0434CA242EF
:105A500045D03BD8B2F1101F41D0103CA2423ED0FD
:105A6000B2F5005F0ED1D1E90152CC6899682A43A2
:105A700042EA042221F47F410A439A609A6842F480
:105A800080429A600023012280F83D2080F83C305B
:105A9000F0BC184670471C6A4D68CE6824F01004AC
:105AA0001C6299691A6A21F4704122F0A00242EA4C
:105AB000051241EA063199611A629A6822F440128D
:105AC00022F0700242F067029A60DBE724498A42C2
:105AD00005D010318A4202D030398A42D2D1996839
