:020000040800F2
:1000000000800020693F0008893A00088D3A000806
:10001000913A0008953A0008993A0008000000005B
:100020000000000000000000000000009D3A0008F1
:10003000A13A000800000000A53A0008A93A00080B
:10004000B93F0008B93F0008B93F0008B93F0008B0
:10005000B93F0008B93F0008B93F0008B93F0008A0
:10006000B93F0008B93F0008B93F0008AD3A0008A1
:10007000B93F0008B93A0008B93F0008B93F000885
:10008000B93F000800000000B93F0008B93F000870
:10009000B93F0008B93F0008B93F0008B93F000860
:1000A000B93F0008B93F0008B93F0008B93F000850
:1000B000B93F0008C53A0008D13A0008B93F000826
:1000C000B93F0008B93F0008B93F0008B93F000830
:1000D000B93F0008DD3A0008B93F0008B93F000801
:1000E000B93F0008B93F0008B93F0008B93F000810
:1000F000B93F0008B93F0008B93F00080000000000
:1001000000000000B93F000800000000B93F0008EF
:10011000B93F000800000000E93A0008B93F0008B4
:10012000B93F0008B93F0008B93F0008B93F0008CF
:10013000B93F00080000000000000000B93F0008BF
:10014000B93F0008B93F00080000000000000000AF
:10015000000000000000000000000000000000009F
:10016000000000000000000000000000B93F00088F
:10017000B93F00080000000000000000000000007F
:1001800000000000B93F000800000000000000006F
:10019000000000000000000000000000000000005F
:1001A0000000000000000000B93F0008B93F00084F
:1001B000B93F0008B93F0008B93F0008000000003F
:1001C00000000000B93F000800000000000000002F
:0801D000B93F0008B93F000827
:1001E00010B5054C237833B9044B13B10448AFF371
:1001F00000800123237010BD980000200000000043
:10020000008F000808B5034B1BB103490348AFF347
:10021000008008BD000000009C000020008F000846
:1002200001F0FF01102A2BDB10F0070F08D010F8A7
:10023000013B013A8B422DD010F0070F42B3F6D1AB
:10024000F0B441EA012141EA014122F007047FF0C4
:1002500000070023F0E80256083C85EA010586EA1B
:10026000010685FA47F5A3FA87F586FA47F6A5FA57
:1002700087F68EB9EED1F0BC01F0FF0102F0070263
:1002800032B110F8013B013A83EA010313B1F8D10E
:100290000020704701387047002D06BF35460338EF
:1002A000073815F0010F07D1013015F4807F02BF28
:1002B000013015F4C03F0130F0BC0138704700BF79
:1002C000034613F8012B002AFBD1181A0138704796
:1002D00081F0004102E000BF83F0004330B54FEAF7
:1002E00041044FEA430594EA050F08BF90EA020F64
:1002F0001FBF54EA000C55EA020C7FEA645C7FEAF7
:10030000655C00F0E2804FEA5454D4EB5555B8BF19
:100310006D420CDD2C4480EA020281EA030382EA8A
:10032000000083EA010180EA020281EA0303362D1C
:1003300088BF30BD11F0004F4FEA01314FF4801CEF
:100340004CEA113102D0404261EB410113F0004F01
:100350004FEA03334CEA133302D0524263EB4303B8
:1003600094EA050F00F0A780A4F10104D5F1200E56
:100370000DDB02FA0EFC22FA05F2801841F10001B1
:1003800003FA0EF2801843FA05F359410EE0A5F185
:1003900020050EF1200E012A03FA0EFC28BF4CF0B6
:1003A000020C43FA05F3C01851EBE37101F000456C
:1003B00007D54FF0000EDCF1000C7EEB00006EEB79
:1003C0000101B1F5801F1BD3B1F5001F0CD3490803
:1003D0005FEA30004FEA3C0C04F101044FEA44525A
:1003E00012F5800F80F09A80BCF1004F08BF5FEAE1
:1003F000500C50F1000041EB045141EA050130BDC1
:100400005FEA4C0C404141EB010111F4801FA4F163
:100410000104E9D191F0000F04BF01460020B1FAB8
:1004200081F308BF2033A3F10B03B3F120020CDAF0
:100430000C3208DD02F1140CC2F10C0201FA0CF0CE
:1004400021FA02F10CE002F11402D8BFC2F1200C33
:1004500001FA02F120FA0CFCDCBF41EA0C019040E9
:10046000E41AA2BF01EB0451294330BD6FEA040432
:100470001F3C1CDA0C340EDC04F11404C4F120021D
:1004800020FA04F001FA02F340EA030021FA04F32F
:1004900045EA030130BDC4F10C04C4F1200220FA86
:1004A00002F001FA04F340EA0300294630BD21FAC4
:1004B00004F0294630BD94F0000F83F4801306BF8A
:1004C00081F480110134013D4EE77FEA645C18BF7E
:1004D0007FEA655C29D094EA050F08BF90EA020F15
:1004E00005D054EA000C04BF1946104630BD91EA0D
:1004F000030F1EBF0021002030BD5FEA545C05D110
:100500004000494128BF41F0004130BD14F580044E
:100510003CBF01F5801130BD01F0004545F0FE41C2
:1005200041F470014FF0000030BD7FEA645C1ABFF7
:10053000194610467FEA655C1CBF0B46024650EA2E
:10054000013406BF52EA033591EA030F41F400215A
:1005500030BD00BF90F0000F04BF0021704730B5E0
:100560004FF4806404F132044FF000054FF00001B5
:1005700050E700BF90F0000F04BF0021704730B576
:100580004FF4806404F1320410F0004548BF40424B
:100590004FF000013EE700BF42004FEAE2014FEAA0
:1005A00031014FEA02701FBF12F07F4393F07F4F7B
:1005B00081F06051704732F07F4208BF704793F07E
:1005C0007F4F04BF41F40021704730B54FF4607491
:1005D00001F0004521F000411CE700BF50EA010294
:1005E00008BF704730B54FF000050AE050EA01023D
:1005F00008BF704730B511F0004502D5404261EBAD
:1006000041014FF4806404F132045FEA915C3FF4ED
:10061000D8AE4FF003025FEADC0C18BF03325FEA8A
:10062000DC0C18BF033202EBDC02C2F1200300FA3B
:1006300003FC20FA02F001FA03FE40EA0E0021FA60
:1006400002F11444BDE600BF70B54FF0FF0C4CF44E
:10065000E06C1CEA11541DBF1CEA135594EA0C0F00
:1006600095EA0C0F00F0DEF82C4481EA030621EA3B
:100670004C5123EA4C5350EA013518BF52EA033576
:1006800041F4801143F4801338D0A0FB02CE4FF028
:100690000005E1FB02E506F00042E0FB03E54FF058
:1006A0000006E1FB03569CF0000F18BF4EF0010E50
:1006B000A4F1FF04B6F5007F64F5407404D25FEA4C
:1006C0004E0E6D4146EB060642EAC62141EA5551FF
:1006D0004FEAC52040EA5E504FEACE2EB4F1FD0C41
:1006E00088BFBCF5E06F1ED8BEF1004F08BF5FEABF
:1006F000500E50F1000041EB045170BD06F0004671
:1007000046EA010140EA020081EA0301B4EB5C041D
:10071000C2BFD4EB0C0541EA045170BD41F4801115
:100720004FF0000E013C00F3AB8014F1360FDEBF3A
:10073000002001F0004170BDC4F10004203C35DA16
:100740000C341BDC04F11404C4F1200500FA05F399
:1007500020FA04F001FA05F240EA020001F000423A
:1007600021F0004110EBD37021FA04F642EB0601B0
:100770005EEA430E08BF20EAD37070BDC4F10C04DA
:10078000C4F1200500FA04F320FA05F001FA04F29E
:1007900040EA020001F0004110EBD37041F100018A
:1007A0005EEA430E08BF20EAD37070BDC4F1200595
:1007B00000FA05F24EEA020E20FA04F301FA05F2FD
:1007C00043EA020321FA04F001F0004121FA04F2A5
:1007D00020EA020000EBD3705EEA430E08BF20EA75
:1007E000D37070BD94F0000F0FD101F000464000AF
:1007F00041EB010111F4801F08BF013CF7D041EA31
:10080000060195F0000F18BF704703F00046520034
:1008100043EB030313F4801F08BF013DF7D043EA05
:100820000603704794EA0C0F0CEA135518BF95EABB
:100830000C0F0CD050EA410618BF52EA4306D1D142
:1008400081EA030101F000414FF0000070BD50EA61
:10085000410606BF1046194652EA430619D094EAEB
:100860000C0F02D150EA013613D195EA0C0F05D1D5
:1008700052EA03361CBF104619460AD181EA030129
:1008800001F0004141F0FE4141F470014FF00000E1
:1008900070BD41F0FE4141F4780170BD70B54FF07C
:1008A000FF0C4CF4E06C1CEA11541DBF1CEA1355FC
:1008B00094EA0C0F95EA0C0F00F0A7F8A4EB0504DE
:1008C00081EA030E52EA03354FEA013100F08880D5
:1008D0004FEA03334FF0805545EA131343EA12639E
:1008E0004FEA022245EA111545EA10654FEA002653
:1008F0000EF000419D4208BF964244F1FD0404F50C
:10090000407402D25B084FEA3202B61A65EB030567
:100910005B084FEA32024FF480104FF4002CB6EB24
:10092000020E75EB030E22BFB61A754640EA0C00A4
:100930005B084FEA3202B6EB020E75EB030E22BFE4
:10094000B61A754640EA5C005B084FEA3202B6EB25
:10095000020E75EB030E22BFB61A754640EA9C00E4
:100960005B084FEA3202B6EB020E75EB030E22BFB4
:10097000B61A754640EADC0055EA060E18D04FEA72
:10098000051545EA16754FEA06164FEAC30343EA12
:1009900052734FEAC2025FEA1C1CC0D111F4801FDF
:1009A0000BD141EA00014FF000004FF0004CB6E7D8
:1009B00011F4801F04BF01430020B4F1FD0C88BF77
:1009C000BCF5E06F3FF6AFAEB5EB030C04BFB6EB82
:1009D000020C5FEA500C50F1000041EB045170BD75
:1009E0000EF0004E4EEA113114EB5C04C2BFD4EBA2
:1009F0000C0541EA045170BD41F480114FF0000E26
:100A0000013C90E645EA060E8DE60CEA135594EAA1
:100A10000C0F08BF95EA0C0F3FF43BAF94EA0C0FA4
:100A20000AD150EA01347FF434AF95EA0C0F7FF419
:100A300025AF104619462CE795EA0C0F06D152EA6D
:100A400003353FF4FDAE1046194622E750EA410651
:100A500018BF52EA43067FF4C5AE50EA41047FF462
:100A60000DAF52EA43057FF4EBAE12E74FF0FF3CC7
:100A700006E000BF4FF0010C02E000BF4FF0010C98
:100A80004DF804CD4FEA410C7FEA6C5C4FEA430C11
:100A900018BF7FEA6C5C1BD001B050EA410C0CBF60
:100AA00052EA430C91EA030F02BF90EA020F0020C2
:100AB000704710F1000F91EA030F58BF994208BF29
:100AC00090422CBFD8176FEAE37040F001007047E6
:100AD0004FEA410C7FEA6C5C02D150EA013C07D13D
:100AE0004FEA430C7FEA6C5CD6D152EA033CD3D088
:100AF0005DF8040B704700BF8446104662468C4682
:100B00001946634600E000BF01B5FFF7B7FF0028B4
:100B100048BF10F1000F01BD4DF808EDFFF7F4FFDD
:100B20000CBF012000205DF808FB00BF4DF808ED68
:100B3000FFF7EAFF34BF012000205DF808FB00BF8B
:100B40004DF808EDFFF7E0FF94BF012000205DF8AD
:100B500008FB00BF4DF808EDFFF7CEFF94BF012062
:100B600000205DF808FB00BF4DF808EDFFF7C4FF5B
:100B700034BF012000205DF808FB00BF4FEA4102AE
:100B800012F5001215D211D56FF47873B3EB6252DF
:100B900012D94FEAC12343F0004343EA505311F006
:100BA000004F23FA02F018BF404270474FF0000098
:100BB000704750EA013005D111F0004008BF6FF0D6
:100BC000004070474FF00000704700BF53B94AB96A
:100BD000002908BF00281CBF4FF0FF314FF0FF3045
:100BE00000F072B9ADF1080C6DE904CE00F006F822
:100BF000DDF804E0DDE9022304B070472DE9F04799
:100C0000089E04468846002B4BD18A42154667D978
:100C1000B2FA82F24AB1C2F1200701FA02F320FAD5
:100C200007F7954047EA030894404FEA154E230C16
:100C3000B8FBFEF71FFA85FC0EFB178843EA084352
:100C400007FB0CF1994209D9EB1807F1FF3080F04E
:100C50001B81994240F21881023F2B445B1AA4B2D7
:100C6000B3FBFEF00EFB103344EA034400FB0CFC24
:100C7000A44509D92C1900F1FF3380F00781A44560
:100C800040F2048102382C4440EA0740A4EB0C04F3
:100C900000271EB1D4400023C6E900433946BDE811
:100CA000F0878B4209D9002E00F0EB800027C6E9BF
:100CB000000138463946BDE8F087B3FA83F7002FC4
:100CC00047D18B4202D3824200F2FA80841A61EB50
:100CD000030301209846002EE0D0C6E90048DDE776
:100CE00002B9FFDEB2FA82F2002A40F08F80491B7F
:100CF0004FEA154E1FFA85F80127B1FBFEFC230CC5
:100D00000EFB1C1143EA014308FB0CF1994207D981
:100D1000EB180CF1FF3002D2994200F2CD808446EC
:100D2000591AA3B2B1FBFEF00EFB101443EA0444BF
:100D300008FB00F8A04507D92C1900F1FF3302D2B7
:100D4000A04500F2B6801846A4EB080440EA0C4027
:100D50009FE7C7F1200CBB4022FA0CFE4EEA030EBF
:100D600001FA07F420FA0CF521FA0CF34FEA1E48B9
:100D70002543B3FBF8F92C0C08FB19331FFA8EFA44
:100D800044EA034309FB0AF49C4202FA07F200FA20
:100D900007F10BD91EEB030309F1FF3080F08780C8
:100DA0009C4240F28480A9F1020973441B1BADB23E
:100DB000B3FBF8F008FB103345EA034400FB0AFAE2
:100DC000A24508D91EEB040400F1FF336BD2A24503
:100DD00069D90238744440EA0940A0FB0289A4EBB7
:100DE0000A044C45C2464B4654D351D0002E69D01C
:100DF000B1EB0A0564EB030404FA0CFCFD40FC4073
:100E00004CEA0505C6E90054002747E7C2F1200374
:100E100020FA03F7954001FA02F021FA03F34FEAB2
:100E2000154E3843010CB3FBFEF71FFA85F80EFB95
:100E3000173341EA034107FB08F38B4204FA02F43B
:100E400007D9691807F1FF3C2FD28B422DD9023FF9
:100E50002944CB1A81B2B3FBFEF00EFB103341EAFA
:100E6000034100FB08F38B4207D9691800F1FF3CEE
:100E700017D28B4215D902382944C91A40EA0747CC
:100E80003BE73746304609E70746E7E61846FBE604
:100E90004145ABD2B8EB020A69EB0E0201381346AA
:100EA000A4E76046E9E7184695E76746D1E781463B
:100EB0007CE702382C4447E7ACF1020C2B442FE7C7
:100EC000384608E73746E9E6704700BF30B50024EA
:100ED0008DB02146202204A8CDE90144039407F0F7
:100EE000CDFB244B4FF4001108204FF480524FF0FB
:100EF000A045C3E90244C3E904441C7783F82440B5
:100F0000C3E90B44DC6459601C244FF48071986180
:100F1000DA63184601221D60C3E911415A771A624B
:100F200083F8382083F840201A6503F0A5F8E8B963
:100F3000002301A90F48019303F042FD98B90E4B1D
:100F40000493062500237F24042204A90948099359
:100F5000CDE90553CDE9074203F090FA08B102F05C
:100F6000EFFA0DB030BD02F0EBFAE8E702F0E8FA74
:100F7000DEE700BF840100201000C01030B589B04A
:100F800020220021684607F079FB1E4B1E4A1A609A
:100F90004FF4001408204FF480521C215C609861CB
:100FA0008024DA6359640022012118469C64C3E955
:100FB0000222C3E904221A7783F82420C3E90B2212
:100FC000DA645977196283F8381083F8401019658C
:100FD00003F052F898B90D4B0093062500237F24A7
:100FE0000422694607480593CDE90153CDE9034240
:100FF00003F044FA08B102F0A3FA09B030BD02F0E0
:101000009FFAE8E7180100200001005002003004B8
:1010100070B502688AB00023B2F1A04F0546CDE951
:101020000533CDE9073309933AD0374B9A4201D0C3
:101030000AB070BD354A13680133012B136058D0D4
:10104000334B344CDA6C42F00102DA64DB6C03F0AF
:10105000010304930122032305A94FF09040CDE939
:101060000523049E04F0EAFB2B4B236024224FF45B
:10107000807380204FF480616260636120220023CE
:101080002061C4E906122046C4E90233236204F059
:10109000C3F808B102F054FA6C65A5620AB070BDDD
:1010A0001A4A13680133012B136017D0184B1B4CDD
:1010B000DA6C42F00102DA64DB6C03F001030293A4
:1010C0000C22032305A94FF09040CDE90523029E91
:1010D00004F0B4FB124B23600522C8E70C4BDA6C1A
:1010E00042F40052DA64DB6C03F400530193019B79
:1010F000DCE7074BDA6C42F40052DA64DB6C03F491
:1011000000530393039B9BE700010050B4000020B1
:10111000001002405002002008000240F0010020B0
:101120003000024038B50C4B0C490D4A19604FF4A1
:1011300000454FF4E02412219A6018460022C3E9CA
:10114000034599615A605A6103F0A4FC00B938BDA7
:10115000BDE8384002F0F4B9B002002000020140BE
:101160002000C00010B50168114A86B000239142EA
:10117000CDE90133CDE90333059301D006B010BDAD
:1011800003F1804303F5043301A9DA6C42F0010254
:10119000DA64DB6C03F001030093022203234FF0B7
:1011A0009040009CCDE9012304F048FB06B010BD3F
:1011B0000002014038B50E4B0E4A1A6040F2011190
:1011C00041F2210208200025202499809A60802184
:1011D0000122D8601846C3E9045499611A6203F0E9
:1011E000DFFD00B938BDBDE8384002F0A9B900BF45
:1011F000D4020020003002400268094B9A4200D01D
:101200007047A3F5005382B09A6C42F480529A64FE
:101210009B6C03F480530193019B02B0704700BFA5
:101220000030024070B58CB068463022002107F0D3
:1012300025FA1248124B036003F06CFED0B900236C
:1012400000240025CDE90245CDE90445022601240C
:10125000002569461A4609488DF804308DF8053096
:101260000096CDE9064503F0EDFE08B102F068F9FD
:101270000CB070BD02F064F9E1E700BFF802002095
:101280000008005030B502681A4B89B000249A4219
:10129000CDE90344CDE90544079401D009B030BD40
:1012A00003F1704303F5023303A9DA6C42F4803290
:1012B000DA64DA6C02F480320192019ADA6C42F05C
:1012C0000102DA64DB6C03F00103029310220323B2
:1012D0004FF09040CDE90323029D04F0AFFA22467F
:1012E0002146362003F0BEFC362003F0F1FC09B0A5
:1012F00030BD00BF00080050134B00B59A6C42F09F
:1013000004029A649A6C83B002F004020092009A7C
:101310009A6C42F001029A649B6C002203F0010374
:10132000114601930B20019B03F09CFC0B2003F062
:10133000CFFC002211460D2003F094FC0D2003B0D9
:101340005DF804EB03F0C4BC0010024030B500248B
:1013500087B0CDE90144CDE90344194B0594DA6C1B
:1013600042F00102DA64DB6C03F0010300932246D1
:101370004FF480714FF09040009B04F03BFB012242
:101380004FF400614FF0904004F034FB01254FF41E
:10139000807201A903234FF09040019204930394BB
:1013A000029504F04BFA4FF4006301A94FF090400E
:1013B000CDE902540494019304F040FA07B030BD23
:1013C0000010024000780B7898422CBF00200120CA
:1013D000704700BF2DE9F04FC36D5A7987B05208AE
:1013E000019200F043810646002700F144094FF0C6
:1013F000060803EB0802B16C13F808A092F801B0DC
:101400000B46FCB2002900F0DB804A46187CA04263
:101410002ABF1A46DB689B68002BF7D1914500F084
:10142000CF80107CA04240F2AD802420CDE9022381
:1014300006F0DAFD039B029A0474C361137C9C429C
:10144000054680F0A480F16C029191420DD01046C7
:10145000039206F04EFE037C0299A34280F00981BC
:10146000C368039A002B00F0348101204B462946C3
:1014700006F041FE736D01337365EB69002B46D0B6
:10148000B36C002B4CD04D461A7CA2422ABF1D469D
:10149000DB689B68002BF7D1A94541D02A7CA2428A
:1014A00027D92420029306F09FFD029B0474C36198
:1014B0002B7C9C42014680F0C280F36C9D420ED092
:1014C0002846CDE9023106F014FE0246007CA04217
:1014D000DDE9023180F0FF80D368002B47D02A4637
:1014E0000D4601204B46294606F005FE736D01337B
:1014F0007365EB694AEA0B2AADF816A0002B00F0E1
:101500003F812B6A05F114000DF116019847019BEC
:1015100001379F4208F1020800F0A880F36D68E7E8
:10152000242006F061FD736D047400220546C2613B
:101530001BB1326D137CA3421AD3B36C0BB9AFE06D
:101540001346197C8C4235BF9A68DA680120002066
:10155000002AF5D1002840F0A4808C421A46294682
:1015600000F2AF801D46084606F058FDC1E70D4663
:10157000914500F0DD80287C137C98422CBF002030
:101580000120AFE7D369002BC1D00B467BE76AD9B6
:10159000316D91420ED010460393029206F081FD08
:1015A000017CA14240F2AE80029A039BD16809B14E
:1015B00002465AE7204698422CBF0020012055E7FA
:1015C000242006F011FD736D047400220546C261EB
:1015D0004BB1326D137CA34205D291453FF445AF28
:1015E000287C137CE7E7B36C0BB913E0134693F840
:1015F00010C0644535BF9A68DA6801210021002ACD
:10160000F4D141B964451946284613D81D4606F061
:1016100005FD32E74B46F26C9A42DED01846029343
:1016200006F067FD90F810C0029B6445194603461A
:101630002846EBD9002940F0A5800D46E7E792D96E
:10164000336D9D420CD02846029106F02AFD037CA2
:101650000299A34202466DD9EB68002B7FF440AF9C
:101660002A460D4687E728461546D0E707B0BDE86D
:10167000F08FB36C2BB94B469942CFD12846D9E7AE
:10168000134693F810C0644535BF9A68DA680120A4
:101690000020002AF4D10028B4D09942BED1EDE751
:1016A0004B46F26C9A423FF463AF1846029306F041
:1016B00020FD017C029B8C421A46294603467FF698
:1016C00051AF002A7FF453AF0846154606F0A6FC3A
:1016D0000FE7024681E7B56C0DB948E0154695F86D
:1016E00010C0644535BFAA68EA6801200020002ABE
:1016F000F4D100283CD12A466445E2D8084606F0D9
:101700008DFCF6E6B36C0BB936E0134693F810C0C7
:10171000644535BF9A68DA6801210021002AF4D1B6
:1017200000293FF46FAFF16C99427FF477AFA5E7E2
:101730000120D7E6B56C0DB920E01D4695F810C024
:10174000644535BFAB68EB6801220022002BF4D161
:10175000002AD0D0F26CAA42B3D02846029106F0FB
:10176000C8FC2A4690F810C002990546C4E74D46C9
:10177000AB42F2D11A46A4E74B46D4E74D46E9E71F
:1017800006F013FF0A4628E72DE9F04100F10803AF
:10179000044600258EB00E46C0E90035282190464B
:1017A00005722A4606F0F2FE22683B231370226877
:1017B00001215170226828219170F16D2268C97849
:1017C000D17022681371236820225A71B36A03957D
:1017D00004AF8DF81050029703B30DEB0200F36ACB
:1017E0008DF80780B1180DF107029847089A029BFF
:1017F0000AADAA423AD0DDE90901BB42CDE9022097
:1018000029D0049A04913BB308930A9200220992CA
:101810001A700898A84201D006F000FC002220218E
:1018200002A806F0B3FE039A2168CAB9262212481C
:1018300003F0FAFA2368029A83F826002168030A63
:10184000BA4281F8273002D0104606F0E7FB204666
:101850000EB0BDE8F081049108950AAD2B46D5E79E
:10186000881D029906F0F1FE2168DFE708A902A8A9
:1018700006F0DEFD089BC9E7D402002000222DE916
:10188000F84F02720446D1E90D3004336260984289
:1018900004F108020E46226000F0F980844D082110
:1018A00053F8042B92F83420082A00F2EA80AA5C4C
:1018B0009842114401F10101F2D18B1EDDB2C9B28F
:1018C00005F03F0848F0400801F1FF3B00222046A8
:1018D00006F05CFE23689F221A70236883F801805B
:1018E0002368328E9A70338E22681B12D37023685D
:1018F000728E1A71738E22681B1253712368002234
:101900009A71D6E90D108142226868D0DFF8A0C133
:101910004FF0070E0E6896F83430082B5CD83678F6
:10192000002E59D01CF80380B8F1000F54D043EAC0
:10193000061302F80E300EF101030E682768B26B31
:10194000DBB2B8F1010F1E46FA5408D90B682268C1
:101950009E6B0EF10203DBB23612D6541E46D1F84E
:1019600000A02268DAF8389003F1010EB8F1020FF6
:101970005FFA8EFE1AD94FEA2949B8F1030F02F82F
:101980000E90764600F08A800E68226896F93BE059
:1019900003F102085FFA88F6033302F806E0D1F893
:1019A00000A02268DAF838905FFA83FE9AF83530A2
:1019B00012F806805B0108F01F08B9F1000F03F070
:1019C000600343EA0803B4BF6FF07F084FF00008DC
:1019D00048EA030393552268043188429AD102EB06
:1019E0000B00002D49D06B1ED9B2013111440025E6
:1019F00012F8013F6B4013F0800F4FEA430318BF0A
:101A000083F00703DBB213F0800F4FEA430318BFE4
:101A100083F00703DBB213F0800F4FEA430318BFD4
:101A200083F00703DBB213F0800F4FEA430318BFC4
:101A300083F00703DBB213F0800F4FEA430318BFB4
:101A400083F00703DBB213F0800F4FEA430318BFA4
:101A500083F00703DBB213F0800F4FEA430318BF94
:101A600083F00703DBB213F0800F4FEA430318BF84
:101A700083F007039142DDB2BAD105702046BDE87C
:101A8000F88F984201F101017FF40AAF15E74FF09A
:101A9000070B4FF046080625082117E7D1F800A0EC
:101AA0002268DAF8389002335FFA83FE7EE700BFDF
:101AB000188F00082DE9F043D1E90D239A428DB02B
:101AC000044600F108084CD068460E46FFF7D6FEE3
:101AD000019D08350023EDB21A46294608AF06A835
:101AE00007938DF82030069706F050FD069B3B22A9
:101AF0001A70069B01225A70069B9D70F26D069B20
:101B0000D278DA70069E3A233371019B7371019A81
:101B100012BBA5F1020931464A461A4803F084F97E
:101B2000069B03F80900069B1D44000A05F8010CFA
:101B3000069BC4F80080BB421BD0089A2360A260B9
:101B4000079B0098636002AB984201D006F066FAEA
:101B500020460DB0BDE8F0830099B01D06F075FD7C
:101B6000D7E70023C0E90083037220460DB0BDE82B
:101B7000F0830FCFA060C8F80410C8F80820C8F898
:101B80000C30DDE7D40200202DE9F04700F1080316
:101B90004FF00009C0E9003980F80890136A966890
:101BA0001E44F6B206F10A0804465FFA88F81746A2
:101BB0008A464A46414606F0E9FC22689F21117098
:101BC00006F10803DDB2236805F03F025A7023686E
:101BD000BAF830209A70BAF8303022681B12D370ED
:101BE0002368BAF832201A71BAF8323022681B1210
:101BF0005371236883F8069023683A78DA713B6A58
:101C0000B968226803F0030343EAC1031372BB6897
:101C10002068002B55D13A6A002A5CD108F1FF31C7
:101C20000144002D49D0F21DD2B2013202440025F8
:101C300010F8013F6B4013F0800F4FEA430318BFC9
:101C400083F00703DBB213F0800F4FEA430318BFA2
:101C500083F00703DBB213F0800F4FEA430318BF92
:101C600083F00703DBB213F0800F4FEA430318BF82
:101C700083F00703DBB213F0800F4FEA430318BF72
:101C800083F00703DBB213F0800F4FEA430318BF62
:101C900083F00703DBB213F0800F4FEA430318BF52
:101CA00083F00703DBB213F0800F4FEA430318BF42
:101CB00083F007039042DDB2BAD10D702046BDE833
:101CC000F0871A460930796806F0BFFC3A6ABB68AB
:101CD0002068002AA2D009331844F96906F0B5FC3F
:101CE00020689BE72DE9F0430646D1E90D208242AA
:101CF0008DB0A0EB020306F108075DD00D469910E8
:101D000095F87800431CDBB28B4285F8783028BF09
:101D1000002352F8202028BF85F8783029466846ED
:101D2000FFF732FF019C08340023E4B21A46214633
:101D30000DF1200806A807938DF82030CDF8188003
:101D400006F024FC069B3B221A70069B01225A7067
:101D5000069B9C70EA6D069BD278DA70069D3A234A
:101D60002B71019B6B71019A0ABBA4F102092946F0
:101D70004A46194803F058F8069B03F80900069BE9
:101D80001C44000A04F8010C069B376043451BD035
:101D9000089A3360B260079B0098736002AB984268
:101DA00001D006F03BF930460DB0BDE8F083009954
:101DB000A81D06F04AFCD8E700233046C6E90073A8
:101DC00033720DB0BDE8F083B8E80F00B060796001
:101DD000BA60FB60DFE700BFD4020020F0B590F8E6
:101DE0005830013B9BB004460D46052B20D8DFE858
:101DF00003F017222B538203B0F8763003EB05254E
:101E0000D0E917127848A4F8765003F00DF8B4F82A
:101E10007630834273D0012084F858001BB0F0BDA7
:101E2000C16DA5F13D030022012B02660A7011D994
:101E300000201BB0F0BD012900F0848001230020A8
:101E400084F858301BB0F0BDCB1EDBB2022B80F8FB
:101E50007430F3D9D4E9172704F164039A4218BF08
:101E6000636E07F1010608BF0F239E4209D90122C4
:101E70000023009239461A4604F15C0006F0FFFA8E
:101E8000E26DD555E36D266600229A5594F85830D8
:101E9000062B29D1012329E0D0E9171700F16403AB
:101EA000994290F8742018BF436E07F1010608BFED
:101EB0000F23013A9E4280F8742008D901220023A2
:101EC000009239461A465C3006F0D9FAE16DCD55DC
:101ED000E36D266600229A5594F87430022BA7D839
:101EE00094F85830062BD5D00133DBB2002084F8AB
:101EF00058301BB0F0BD0623A4F87610F6E7E36D6A
:101F00005A78012A87D11A79312A52D03B2A54D0E3
:101F10003A2A214639D014A8FFF7E4FEDDE914215E
:101F2000A368CDE90621002B5CD0E368204607AA10
:101F300006A99847149816AB98423FF46CAF06F088
:101F40006DF868E7D0E9172600F164039A4218BFDC
:101F5000436E06F1010508BF0F239D4208D90122F7
:101F60000023009231461A465C3006F088FAE26D92
:101F700001239355E26D25660021515594F85820B0
:101F8000062AB3D0D318DBB2B0E70EA8FFF792FD54
:101F9000DDE90E21A369CDE904211BB3E36904F156
:101FA000100005AA04A998470E9810AB9842C6D114
:101FB00031E72046FFF70EFA2DE79A79214608A867
:101FC000FFF7E2FBDDE90821A368CDE902214BB16F
:101FD000E368204603AA02A9984708980AAB9842EA
:101FE000ADD118E706F0E1FAD40200202DE9F04F58
:101FF000D0E9005AAAEB05039B1083B00646884639
:10200000A1EB050B33D05F00BB4233D96FF0030760
:102010003846019205F0E8FFD6E9005A019A814658
:102020000744A8EB050419EB0B0F1CBF136849F814
:102030000B30A84504D022462946484606F005FB49
:10204000231DC2454B44AAEB080405D0184641465F
:10205000224606F0EFFA03461C4415B1284605F067
:10206000DDFFC6E90094B76003B0BDE8F08F01273B
:10207000BF00CDE7B7F1804FC8D2002FF8D1B946E5
:102080005C46D0E72DE9F04F02F1FF3987B009EB4C
:10209000D9798A464FEA690102938A4502F0010321
:1020A0000592019104460393DDF840806EDACDF885
:1020B00010A00AF101077D006E1E54F8370054F895
:1020C000261004EB860B04EBC709C04740B154F857
:1020D000263044F82A30019B9E420BDAB246E8E7EC
:1020E000019B54F8371044F82A109D4241DA2E46DD
:1020F000B246DEE7DDF810A0D9463546039B43B96A
:10210000059B023B03EBD373B5EB630F34D004EBB9
:1021100085096E1E06EBD67655454FEA66061BDD31
:10212000CDF84080029FA846109D07E054F8262075
:1021300044F82820B245B04614DA1E46394654F811
:102140002600A847731E03EBD3735B1004EB8601D4
:1021500004EB88090028E9D1029BC9F8003007B0D8
:10216000BDE8F08F8946029BC9F8003007B0BDE892
:10217000F08FDDF810A0C1E76B00013304EB830999
:1021800054F8231044F825101D46C2E70BB95546F4
:10219000B6E700EB8A09DFE72DE9F04F0646081A9B
:1021A000402883B075DD17469846002A00F08980E4
:1021B0000C4606F10409A41BA41004EBD4746410AB
:1021C000D6F804A056F824E09AF800C09EF8003033
:1021D00051F8045C326828789C4507F1FF375BD2E0
:1021E00098425DD8604565D8C6E900A251F8042C34
:1021F00092F800B04C460B46A64625465EF804AB66
:102200009AF80000604515D3DC45A3F1040304D21D
:1022100053F8042D10786045FAD89C420CD24EF841
:10222000042CC3F800A0306853F8042C90F800C0C8
:1022300092F800B07446DFE7204643463A46FFF77F
:10224000ABFFA01B402824DD2146002FB3D1841012
:10225000A71E7F1007F1010906EB890900E0013F85
:1022600059F8043DCDF80080224639463046FFF744
:1022700009FF002FF3D155F8043D32682A60AC1BEA
:10228000CDF80080A21000213046FFF7FBFE042CA1
:10229000F1DC03B0BDE8F08F6045A5D8984209D8BD
:1022A000C6F800E046F82420336851F8042C93F86F
:1022B00000C09DE7356041F8042C336893F800C0F6
:1022C00096E70D46C3E700BF2DE9F04F0446D3E97A
:1022D00000073E1A2186B5104FF000018FB06286CC
:1022E000A160A161A162C4E90D11E16308BF334699
:1022F0000CD0B5F1804F80F092813046984605F0C1
:1023000073FE0546D8E9000733463E1A2B44B8420F
:10231000E363C4E90D5504D001463246284606F071
:1023200089F90023AF1904F1440284F84430A3640E
:102330006365236684F8643084F8743084F87830F8
:10234000012104F16403AF42A763C4E9132284F8B6
:102350005810E3654DD0B210B2FA82F2C2F11F02FA
:102360008A402846AF4B3946FFF716FF402E05F14D
:10237000040046DC8742D4F8349039D06FF003086B
:10238000A8EB050805F1080A0EE0854207D0AAEB84
:102390000603184408EB0602294606F056F9B74230
:1023A000C5F800B0304623D006462B6856F804BB6B
:1023B0001B789BF800108B42E7D856F8083C93F83E
:1023C00000C08C45A0F1040240F22781304600E0B5
:1023D000724640F8043D52F8043C93F800C08C4526
:1023E000A2F1040EF4D8B742C2F800B03046DBD1F7
:1023F0004D462B681B78002B61D120460FB0BDE8FD
:10240000F08F6FF00309A9EB050905F1400605F10E
:10241000080A0EE0854207D0AAEB0803184409EB2E
:102420000802294606F011F94645C5F800B04046B5
:1024300023D080462B6858F804BB1B789BF800100B
:102440008B42E7D858F8083C93F800C08C45A0F1BF
:10245000040240F2E080404600E0724640F8043D4D
:1024600052F8043C93F800C08C45A2F1040EF4D855
:102470004645C2F800B04046DBD1B742D4F83490AC
:10248000B6D03C35B64670462A465EF8048B55F801
:10249000043B98F800C01978614570D9714600E096
:1024A000324641F8043D52F8043C18786045A2F1E8
:1024B0000406F5D87745C2F80080E4D198E75A4B76
:1024C0000FCB0DF11008464607C6002733700D22CA
:1024D0000DF128093C208DF81D7009978DF82870A2
:1024E000CDF808800392CDF8209005F07DFDDDF851
:1024F00008A0064600F80C7B039F7060BAF1000F3D
:102500007CD00F2F019765D8012F3FD19AF800306A
:1025100033730023B760C355DDE908A706F1240033
:10252000F061BAF1000F64D00F2F019742D8012F4C
:1025300067D19AF8003086F8243000233762C355FB
:10254000D4E90E026421904286F83530B3630196D7
:1025500086F8341058D0A8421BD145F8046BA56307
:102560000898484501D005F059FD029840453FF4D0
:1025700044AF05F053FD20460FB0BDE8F08F024692
:102580007745C2F800807FF47EAF31E7002FC0D0DE
:1025900028E0024650F8043C42F8043B031F9D42E9
:1025A000A26304D05A1B801A294606F04EF8019BFC
:1025B0002B60D5E7002201A906F11C0005F0E4FE1E
:1025C000019BF06173623A46514606F033F8019F71
:1025D000F069B2E7002201A9301D05F0D5FE019B8C
:1025E0007060F3603A46514606F024F8019F706827
:1025F0008FE7002F98D00D4805F0BCFE002F80D04B
:10260000F9E7002F99D0DEE7294601AA04F134004A
:10261000FFF7ECFCA4E702462AE70246E3E605F0F2
:10262000A6FE00BFC5130008248F0008348F0008E1
:102630000B88B3F5FA5F04D1024B00200021C3E9F7
:1026400000017047D0000020012A08BF016000206F
:10265000704700BF012A08BF01600020704700BF1B
:10266000012A08BF01600020704700BF012A08BF8F
:1026700001600020704700BF1288096802484FF4CB
:102680007A7304F057BB00BF3C04002030B4084C00
:1026900023780BB930BC70471268096805480025DB
:1026A000257092B24FF47A7330BC04F043BB00BF84
:1026B000040100203C040020F0B500F1080683B0BE
:1026C0000660044608460F46FDF7FAFD0F2805464A
:1026D000019009D8012818D13B78237200232046A5
:1026E0006560735503B0F0BD002201A9204605F0D6
:1026F0004BFE019B20600646A3602A4630463946C1
:1027000005F098FF019D2668E8E70028E6D0F4E789
:102710002DE9F043044683B000F80C1BD2F800907A
:1027200060601E4655689DF828809DF82C70B9F1B0
:10273000000F46D00F2D019524D8012D49D199F8CD
:10274000003023730023A5604355D6E9009504F1BA
:102750002400E061B9F1000F38D00F2D019520D889
:10276000012D39D199F8003084F8243000232562F6
:1027700043552046A36384F8348084F8357003B051
:10278000BDE8F083002201A9201D05F0FDFD019B9D
:102790006060E3602A46494605F04CFF019D606891
:1027A000D0E7002201A904F11C0005F0EDFD019B1A
:1027B000E06163622A46494605F03CFF019DE069FD
:1027C000D4E7002DB6D0064805F0D4FD002DC4D0C6
:1027D000F9E7002DB6D0DDE7002DC7D0EAE700BF4E
:1027E000348F0008000000002DE9F843444A0368D4
:1027F000934207D0434A934273D0434A93425ED0F8
:10280000BDE8F883414B424D1888424CFDF7A2FECB
:102810000022414BFDF718FF0022404BFDF714FF4B
:1028200000223F4BFDF758FD0646A8880F46FDF7EE
:1028300091FE2FA3D3E90023FEF730F88046E88805
:10284000384D8946FDF796FE02460B4640464946FE
:10285000FDF7FAFE02460B4630463946FEF71EF8F3
:10286000C4E90001304B1888FDF774FE00222A4BA2
:10287000FDF7EAFE00222D4BFDF7E6FE1EA3D3E98D
:102880000023FEF70BF82A4BC3E90001D4E900014D
:10289000D3E90023FDF7D8FE264BC3E90001D4E9B4
:1028A0000001D5E900670022234BFDF7F7FF324610
:1028B0003B46FDF713FDC5E90001BDE8F8831F4C59
:1028C000204603F043FF1E4B20681B681D49002271
:1028D000426220465C6A0C605A62BDE8F84303F02D
:1028E00019BF194B01221A70BDE8F883AFF30080BD
:1028F0000000000080842E41FE858DB90F31AE3F6F
:10290000000800400010004000040040C00000200B
:10291000FC000020D8000020000008400000F03E2D
:102920000000F83FD0000020B80000200000303F39
:10293000E8000020E00000200080764058030020DE
:10294000F0030020F0000020040100202DE9D04F0A
:1029500088B002F079FE214B9A694CF2FA3142F0CC
:1029600040429A61012419613F22002303A904A86F
:102970000594CDE90624049302F0B0FE40BB184B49
:102980001849B3F80680B3F802A09F88B3F9002075
:102990004FEA0846CDE900061AEB000A4FF0000B9B
:1029A0004BEB070BDDE90067120416EB0A0647EB59
:1029B0000B0716EB020847F1000942464B4602F0AE
:1029C000ADFD28B902F054FE204608B0BDE8D08F16
:1029D00002F04EFE002008B0BDE8D08F002002407B
:1029E000FC00002000F801082DE9F0477E4A7F4BEB
:1029F00017689D78BC6C7E4A7E4B8AB0013D05927B
:102A0000EDB207F144080493002C00F08F80464695
:102A1000227CAA422ABF2646E468A468002CF7D18B
:102A2000B04500F08380337CAB4223D9242005F0ED
:102A3000DBFA0574C461347CA542814646D2D7F8DE
:102A40004CA056450BD0304605F053FB037CAB42FF
:102A5000024680F08280C368002B00F09F803246DF
:102A60004E4601204346314605F045FB7B6D013360
:102A70007B6553E05F4B089406AC2046022202A916
:102A80009847DDE9043794E803006D4606F1140227
:102A900085E8030092E8030084E8030095E803005A
:102AA00082E80300D6E90752F3610895099237627C
:102AB00025B1032221462046A847049B1BB102A949
:102AC0000846032298470AB0BDE8F08723D93B6D3A
:102AD0009E4209D0304605F0E4FA037CAB42024640
:102AE0005ED9F368002BBBD132464E4630E0BC6C59
:102AF0000CB948E01C46227C954235BFA368E368C8
:102B000001210021002BF5D100293DD1A24695429B
:102B1000B14633D82646484605F080FA049B002289
:102B20000892002BA8D1099F06ACACE7242005F041
:102B30005BFA00230574C3617B6D0646002BD6D07B
:102B40003A6D137CAB42D2D2904543D0357C147C95
:102B5000A5422CBF0020012084E7BE6C0EB93BE0EB
:102B60001E46327C954235BFB368F36801210021CF
:102B7000002BF5D129BBB2469542CCD9BAF1000F52
:102B80002ED15646C7E74446FA6CA242DCD0204616
:102B900005F0AFFAA246027C0446B8E74E46D3E7FA
:102BA000BE6C0EB91AE01E46327C954235BFB36842
:102BB000F36801210021002BF5D10029DBD0D7F8E3
:102BC0004CA0B245DAD0304605F093FAB246027C0A
:102BD0000646D1E7012045E74646F2E74646EEE7DE
:102BE0004E465246B0E700BFCC000020FC0000205B
:102BF00031260008492600082DE9F0479F4B1B7835
:102C000000F108059AB004462E46072B00F2A48175
:102C1000DFE813F02900410007014A0173017D013B
:102C20008D0108001AA91D2341F8283D05600022E6
:102C300005F0AAFB924D206006460FCD109FA760BD
:102C400030607160B26007CD2D78F3603061357708
:102C50007161B261109B2268636000212046D154EB
:102C60001AB0BDE8F0871AA9202341F8283D056075
:102C7000002205F089FB834D206006460FCD109F92
:102C8000A76030607160B260F3600FCD3061716138
:102C9000B261F361DEE77C4E7C4B7D4FD6E90001EB
:102CA00096ED007B8DED047B93ED007BD3E90089ED
:102CB0008DED067BFDF762FF764B0022824649468A
:102CC0004046FDF7C1FCFDF759FF87FB0032C317F3
:102CD000C3EB62134FF0640808FB1303002BB8BF6B
:102CE0005B42DDE906010293FDF748FF694B019065
:102CF0000022DDE90401FDF7A7FCFDF73FFF87FB9C
:102D00000037C317C3EB671708FB17000028B8BFCD
:102D1000404210AF0090534638465F4A282105F0E4
:102D2000B1FD0DF130083846CDF82880FDF7C8FA1E
:102D30000F288146099000F21A81012840F026816F
:102D40009DF840308DF8303042460023CDF82C906D
:102D500002F809300022D6E900010023FDF7E6FE63
:102D6000002850D00A9B1A782B2A04BF2D221A70F3
:102D70005A782B2A04BF2D225A709A782B2A04BF26
:102D80002D229A70DA782B2A04BF2D22DA701A7954
:102D90002B2A04BF2D221A715A792B2A04BF2D2207
:102DA0005A719A792B2A04BF2D229A71DA792B2A2B
:102DB00004BF2D22DA711A7A2B2A04BF2D221A722F
:102DC0005A7A2B2A04BF2D225A729A7A2B2A04BFD0
:102DD0002D229A72DA7A2B2A04BF2D22DA721A7BFC
:102DE0002B2A04BF2D221A735A7B2B2A04BF2D22B3
:102DF0005A739A7B2B2A04BF2D229A73DA7B2B2AD3
:102E000004BF2D22DA730A9B2560434500F0C4807D
:102E10000C9AA26023600B9B636020461AB0BDE849
:102E2000F0871E4A1E4BD2E90001D3E90089FDF765
:102E3000A5FE494682464046FDF7A0FE0028B8BFE1
:102E4000404210AF009053463846164A282105F0FC
:102E500019FD25603846FDF733FA0F2805460A901C
:102E600069D8012840F080809DF84030237200230B
:102E70002046656073551AB0BDE8F087C800002091
:102E800050900008608F0008D8000020E800002063
:102E90001F85EB5100005940848F0008D0000020AE
:102EA000E0000020AC8F00083F4ED6E90001FDF79E
:102EB00065FED6E900893D4BB3F9003001938246A7
:102EC0003B4B002240464946FDF7BEFBFDF756FE50
:102ED0003849394A81FB0031C317C3EB61136421C0
:102EE00001FB13000028B8BF404210AF00905346CA
:102EF0003846282105F0C6FC13E72C4B2F4AB3F9BE
:102F0000023010AF3846282105F0BCFCA1E7274B62
:102F100028499B882A4AA1FB03035809A1FB0013F7
:102F20005B09642101FB130310AF9BB2EAE71F4B5F
:102F3000244ADB88E5E700220AA9204605F024FAA6
:102F40000A9BA360064620602A463046394605F0B3
:102F500071FB0A9D26688AE70023C0E900530372CB
:102F600020461AB0BDE8F087002880D0ECE70AA818
:102F7000002209A905F008FA099B0A900C934A4619
:102F8000394605F057FBDDE90992DEE642460028A6
:102F90003FF4DBAE4046F2E7B8E80F00A06069609E
:102FA000AA60EB6037E700BFD8000020FC000020DB
:102FB000000059401F85EB51CC8F0008F08F0008AE
:102FC000109000083490000830B50021A5B00C46E0
:102FD00005A8382205F052FB2146442213A8CDE96A
:102FE0000044CDE90244049405F048FB4FF400701E
:102FF00002F006FD4FF4807502234021142205A83B
:103000000593CDE90C330E93CDE910331293CDE93E
:1030100008510F9202F072FD032319460F226846F1
:10302000CDE90023CDE90244049402F0B9FF48F24F
:1030300001024FF0005313A8CDE91324229303F0AB
:103040007FF925B030BD00BF2DE9F04F91B000F001
:10305000DBFFFFF7B9FFFEF779F9FEF74DF9FDF752
:1030600035FFFDF78BFFFEF75DF8FEF7DBF800F0AC
:1030700009FF00F00DFEFEF79DF800F07FFD00F067
:10308000CDFD00F03DFEC74AD2E900539AB22E149E
:103090002DB20AB11B0C1BB9FFF758FC3C23C82208
:1030A000691C00F02582C04C26806580A280E380E8
:1030B0007F21BE4801F034FC7F21BD4801F030FC87
:1030C0000021BC4801F03CFFB4F90030B9480022AF
:1030D00003F50063114601F067FF0122B649B348CA
:1030E00001F0D8F80122B549B14801F0D3F804AD98
:1030F00000224FF400614FF0904002F07BFC0AACDC
:10310000AF492846FFF7D8FAAE492046FFF7D4FA70
:103110003C2004F069FF64260021CDE900612346CC
:103120002A468046FFF7F4FA0A980CAEB04201D066
:1031300004F074FF049806AFB84201D004F06EFFAB
:10314000A1492846FFF7B8FAA0492046FFF7B4FA8C
:103150003C2004F049FF0121CDE9001123462A4615
:103160008146FFF7D5FA0A98B04201D004F056FF25
:103170000498B84201D004F051FF95492846FFF762
:103180009BFA94492046FFF797FA3C2004F02CFF65
:1031900001230221CDE900312A4623468246FFF76A
:1031A000B7FA0A98B04201D004F038FF0498B84248
:1031B00001D004F033FF88492846FFF77DFA87499C
:1031C0002046FFF779FA3C2004F00EFF012300228D
:1031D000CDE90032032123462A468346FFF798FAB9
:1031E0000A98B04201D004F019FF0498B84201D007
:1031F00004F014FF7A492846FFF75EFA7949204621
:10320000FFF75AFA3C2004F0EFFE01230022CDE93B
:103210000032042123462A460290FFF779FA0A98E1
:10322000B04201D004F0FAFE0498B84201D004F094
:10323000F5FE6D492846FFF73FFA62492046FFF741
:103240003BFA3C2004F0D0FE01230022CDE90032FD
:10325000052123462A460390FFF75AFA0A98B042FE
:1032600001D004F0DBFE0498B84201D004F0D6FE91
:10327000029B0E931820039B0F93CDE90A89CDE999
:103280000CAB04F0B1FE274606460FCF30607160EC
:1032900003CFB26000273061F36071611820CDE97F
:1032A0000A770C9704F0A0FE31687268016003464B
:1032B0004260D6F808C0F76831697269C3F808C07F
:1032C00000F11806DF6019615A610A907C20CDE98F
:1032D0000B6604F089FE234645F25D524AF2A14195
:1032E0000746424EFEF7F0FF0A98376010B104F02F
:1032F00095FE3768DFF80CE13D4A94E8030085E865
:10330000030097E8030084E8030095E80300D7E989
:10331000023C87E803000C93C7F808E0CDF834C0FE
:10332000FA601BB1032221462046984794E8030027
:103330003268304F85E8030002F1100393E8030080
:1033400084E8030095E8030083E80300D2E906302F
:1033500029490C9397610D90D1611BB1032221463D
:1033600020469847FFF740FB94E803003368234F5B
:1033700085E8030003F1200292E8030084E80300DB
:1033800095E8030082E80300D3E90A511C4A0C9532
:103390009F620D91DA62BDB3032221462046A84701
:1033A00032E000BF00F80108FC000020840100208A
:1033B00018010020F8020020B8000020C000002002
:1033C00070900008808F00087C90000884900008AE
:1033D00088900008A88F0008909000089C90000832
:1033E000A0900008A8900008AC900008CC00002035
:1033F00079260008612600088D2600086D26000841
:10340000FD370008552600083B483C4F3C4C3D4DDD
:1034100001F0E4FB3C4803F0ADF93C4803F0AAF9A5
:103420003B4803689A694FF4FA6142F060029A617E
:10343000596303F09FF9374803F06CF9B8464FF42D
:103440007A7301224146344803F000FD2368334972
:103450000133D1E9000100222360314BFDF7F4F87C
:10346000FDF78CFB2F49304B0FFA80FC0022D1E98D
:103470000001C9F838C0FDF7E7F8FDF77FFB2B4ADC
:1034800003B2D2E90001CAF83830FDF777FB284AC9
:1034900003B2D2E90001029A9363FDF76FFB254B5B
:1034A000039AB3F900309363397803B23068CBF8EC
:1034B0003830FEF793FC2B781BB928B101232B7011
:1034C000BDE70028BBD0F9E72368B3F57A7FB6D90A
:1034D000194B1B784BB100F09FFC17490B78002269
:1034E00083F001030B702260A9E700F0CBFCF4E746
:1034F000FFF72CFA114CDBE5B0020020F8000020A9
:10350000F4000020C90000200C030020A4030020C8
:1035100058030020F00300203C040020D8000020C5
:1035200000002440E800002000005940E000002096
:10353000D0000020F000002000000020FC0000204F
:10354000704700BF2DE9F04F85B00391002900F0CE
:10355000E18006460B46DB680293002B00F0C58035
:10356000DB680193002B00F0AB80D3F80CA0BAF11C
:10357000000F00F09080DAF80C90B9F1000F75D0D0
:10358000D9F80C80B8F1000F5BD0D8F80C70002F80
:1035900042D0FD686DB3BB46EC68B4B1E16830461B
:1035A000FFF7D0FFE369A76804F11401032208467E
:1035B00033B19847204604F031FD37B13C46EDE782
:1035C000204604F02BFD002FF8D1EB69AC6853B115
:1035D00005F11401084603229847284604F01EFD11
:1035E00034B12546D8E7284604F018FD002CF8D160
:1035F0005F46FB69BC6853B107F11401084603221A
:103600009847384604F00AFD34B12746C1E73846EA
:1036100004F004FD002CF8D1D8F81C30D8F808408C
:1036200053B108F11401084603229847404604F0BC
:10363000F5FC34B1A046A8E7404604F0EFFC002CAE
:10364000F8D1D9F81C30D9F8084053B109F1140168
:10365000084603229847484604F0E0FC34B1A146EE
:103660008EE7484604F0DAFC002CF8D1DAF81C307A
:10367000DAF8084053B10AF11401084603229847CA
:10368000504604F0CBFC34B1A24674E7504604F037
:10369000C5FC002CF8D1019DEB69AC685BB105F16C
:1036A0001401084603229847284604F0B7FC3CB1B1
:1036B0000194234659E7284604F0B0FC002CF7D1CA
:1036C000029DEB69AC685BB105F114010846032269
:1036D0009847284604F0A2FC3CB1029423463FE7F9
:1036E000284604F09BFC002CF7D1039DEB69AC68E5
:1036F0005BB105F11401084603229847284604F0FF
:103700008DFC3CB10394234625E7039804F086FC26
:10371000002CF7D105B0BDE8F08F00BF2DE9F843CC
:103720000B468168064600F10408002960D01A782B
:1037300047460C46237C934213D2E468002CF9D10F
:10374000F3687569BB424FD1B8454DD13046FFF79C
:10375000F9FE0023C6E90388B36073612846BDE81B
:10376000F883A36804D927461C46002CE2D1E7E77A
:10377000E0683BB11D7C95422ABF1C46DB689B6814
:10378000002BF7D138B1037C93428ABF0746C0684B
:1037900080680028F7D1F368D6F814909C424D4613
:1037A00028D0A74201D11FE02C46204604F08DFC12
:1037B00041460546204604F000FDC36900F1140CA3
:1037C00004460322614613B160469847204604F040
:1037D00025FC7069BD4200F1FF307061E4D1A9EBB6
:1037E00000052846BDE8F88300252846BDE8F88393
:1037F0004746A5E7B845D4D1A8E700BF2DE9F04F6B
:103800001378B02B87B0044639D00FD8702B2FD047
:10381000902B04D1804B1B78072B00F09A80204618
:10382000FFF7EAF9204607B0BDE8F08FD02B08D0AB
:10383000E02BF4D1784A1378062BF0D801331370BB
:10384000EDE7754D2B78032B00F0C680042B42D09A
:10385000052B2BD0062BE2D1704BDA88052A22D01B
:10386000142A00F0B6803C2AD9D10522DA80D6E7A6
:10387000694A1378002BD2D0013B1370CFE7664D15
:103880002B78032B00F0B680042B4DD0052B36D0BF
:10389000062BC4D1614BDA88052A00F09A80142ADD
:1038A000E3D03C2ABBD11422DA80B8E75B4B9A887C
:1038B000C82A00F08680B2F5FA7F00F0A980B2F540
:1038C0002F7F2DD0B2F57A7F7FD0B2F5FA6FA6D1D7
:1038D000C8229A80A3E7514EB6F90230172B9EDC1E
:1038E0004F4A06A9106801F8103D4030FFF716FF57
:1038F000738801337380FFF777F82B78A8E7474B7D
:103900009A88C82A61D0B2F5FA7FE1D0B2F52F7F4C
:1039100057D0B2F57A7F7BD0B2F5FA6F7FF47FAFE4
:103920004FF47A729A807AE73C4EB6F90230002B57
:103930007FF775AF3A4A06A9106801F8143D403088
:10394000FFF7ECFE7388013B7380FFF74DF82B788F
:103950009CE701F079FE334B9A694CF2FA3142F060
:1039600040429A613F2519610122002301A902A862
:103970000392CDE90452029301F0B0FEF0B9274B57
:103980002949B3F802A09F88B3F80680B3F9002054
:103990001AEB000A4FF0000B4BEB070B4FEA084500
:1039A00010EB0A064FEA024245EB0B0716EB020842
:1039B00047F1000942464B4601F0B0FD01F058FEC8
:1039C0002DE74FF4FA729A8029E74FF4FA629A8051
:1039D00025E73C22DA8022E7104E14483188013175
:1039E00009B2002201F500633180114601F0DCFAD2
:1039F0002B782BE7094E0D483188013909B2002296
:103A000001F500633180114601F0CEFA2B783BE7D7
:103A10004FF42F729A8002E7C8000020FC000020BB
:103A2000CC0000200020024000F80108F80200202D
:103A3000034B04494FF40022C3E90021704700BF43
:103A4000FC000020C8003C000D4B0E491A6E42F0ED
:103A500001021A661A6E82B002F001020092009A08
:103A60009A6D42F080529A659B6D03F080530193EA
:103A7000019B8B6843F480438B6002B0704700BFAA
:103A80000010024000700040704700BFFEE700BF1A
:103A9000FEE700BFFEE700BFFEE700BF704700BFC4
:103AA000704700BF704700BF00F0C2BA014801F084
:103AB000E5BC00BF50020020014801F0DFBC00BFA0
:103AC000F0010020014802F0C7BF00BF58030020EA
:103AD000014802F0C1BF00BF0C030020014803F001
:103AE0005DBA00BF3C04002008B5044802F0B4FFF2
:103AF0000348BDE8084001F071BA00BFA4030020EC
:103B0000F80200200120704708B504F059FD162383
:103B100003604FF0FF3008BD08B504F051FD1623D7
:103B20000360FEE70C4A08B5136833B118446946D0
:103B3000884208D81060184608BD084B1360184426
:103B400069468842F6D904F03BFD0C2303604FF030
:103B5000FF33184608BD00BF08010020D004002034
:103B6000054BD3F888204FF0006142F47002C3F88F
:103B700088209960704700BF00ED00E000B5264A3C
:103B80008DB04FF0FF334FF08041D36010460023DB
:103B900011605360039307930093936013619361E3
:103BA000CDE904330693CDE90833CDE90A33CDE9F5
:103BB000013302F011FD60BB00234FF4005203A952
:103BC0001548CDE90323CDE9053302F0F3FDE8B94B
:103BD0000522202307A91048CDE9072302F0B2FEF1
:103BE00088B9002369460C480093029303F02EF82D
:103BF00008B1FFF7A5FC4FF48041074803F07AF8BD
:103C00000DB05DF804FBFFF79BFCEAE7FFF798FCBB
:103C1000DEE7FFF795FCCFE7F003002000B51A4A76
:103C20001A4B136089B049F63F4340F69F715360C9
:103C300010460023C2E9023104930193136193619A
:103C4000CDE905330793CDE9023302F0C5FCC0B9D5
:103C50004FF4805304A90C48049302F0ABFD68B9FB
:103C60004022802301A908480192039302F0EEFF4D
:103C700008B1FFF765FC09B05DF804FBFFF760FCD5
:103C8000EEE7FFF75DFCE3E7580300200004004087
:103C900000B5194A194B136089B04F2342F20F71D6
:103CA000536010460023C2E902310493019313616B
:103CB0009361CDE905330793CDE9023302F08CFC23
:103CC000B8B94FF4805304A90B48049302F072FD75
:103CD00060B9002301A908480193039302F0B6FFDD
:103CE00008B1FFF72DFC09B05DF804FBFFF728FCD5
:103CF000EFE7FFF725FCE4E70C0300200008004095
:103D000010B5114B114A1A6084B0002241F63F747D
:103D100040F2DB5118465C60C3E9022101929A61CE
:103D2000CDE9022202F058FC58B9002301A9064847
:103D30000193039302F08AFF08B1FFF701FC04B07E
:103D400010BDFFF7FDFBF0E7A403002000100040CA
:103D500000B50368B3F1804F85B00BD02A4A934277
:103D60002BD02A4A93423DD0294A934210D005B025
:103D70005DF804FB03F504339A6D42F001029A6585
:103D80009B6D03F001030093009B05B05DF804FBFD
:103D9000204B9A6D42F010029A659B6D002203F051
:103DA0001003039336201146039B00F05BFF36207F
:103DB00005B05DF804EB00F08BBF164B9A6D42F036
:103DC00002029A659B6D002203F0020301931146E3
:103DD0001D20019B00F046FF1D2005B05DF804EB9F
:103DE00000F076BF0B4B9A6D42F004029A659B6D12
:103DF000002203F0040302931E201146029B00F0F0
:103E000031FF1E20D4E700BF00040040000800403E
:103E10000010004000100240184B194A10B50C2148
:103E20001A604FF4FA34002218465C605961C3E905
:103E300002221A61C3E90622C3E908229A6203F04A
:103E4000F7F9C0B900210D4804F02AF880B9002123
:103E50000A4804F077F840B9084803F0D7FF00B9E2
:103E600010BDBDE81040FFF76BBBFFF769FBF3E740
:103E7000FFF766FBEBE7FFF763FBE3E73C0400209B
:103E800000380140184B194A10B50C211A604FF444
:103E90007A34002218465C605961C3E902221A6133
:103EA000C3E90622C3E908229A6203F0C1F9C0B946
:103EB00000210D4803F0F4FF80B900210A4804F006
:103EC00041F840B9084803F0A1FF00B910BDBDE8B2
:103ED0001040FFF735BBFFF733FBF3E7FFF730FB8D
:103EE000EBE7FFF72DFBE3E73C040020003801403F
:103EF00070B502681B4B88B000249A42CDE9034498
:103F0000CDE90544079401D008B070BD03F55843CE
:103F10004FF400701A6E42F480421A661A6E02F470
:103F200080420192019ADA6C42F00102DA64DB6CA1
:103F3000039003F00103029303A907230322122530
:103F40004FF09040CDE90623029E049501F076FCE7
:103F500022462146252000F085FE252000F0B8FEEF
:103F600008B070BD003801400D4885460D480E4927
:103F70000E4A002302E0D458C4500433C4188C42C3
:103F8000F9D30B4A0B4C002301E013600432A24228
:103F9000FBD3FFF7E5FD04F019FBFFF755F8FEE74B
:103FA00000800020000000209400002060910008A4
:103FB00098000020D0040020FEE7000038B50F4B29
:103FC0001B680BB9012038BD0D494FF47A720546C4
:103FD000B2FBF3F30868B0FBF3F000F087FE044691
:103FE0000028EFD10F2DEDD8024629464FF0FF30C3
:103FF00000F038FE034B20461D6038BD080000204D
:10400000040000200C00002000B5032083B000F065
:1040100017FE0020FFF7D2FF18B1012003B05DF8B2
:1040200004FB0190FFF710FD019803B05DF804FB5D
:10403000034A0449136809680B441360704700BFC2
:10404000C804002008000020014B1868704700BF1A
:10405000C804002038B50446FFF7F6FF631C054688
:1040600002D0044B1B681C44FFF7EEFF401BA0422C
:10407000FAD338BD0800002070B582B00023019348
:10408000002800F0A180C56D0446002D00F091804D
:10409000226893689D0005D5936823F0204323F0A0
:1040A0003F0393609368D80017D4754B91681B68E1
:1040B00074489B0921F01041A0FB030321F03F014C
:1040C0009B0941F0805191600193019B2BB1019BB1
:1040D000013B0193019B002BF9D19368D9005AD47D
:1040E000E36D43F01003E365236E43F001032366A1
:1040F000936813F0040F4FF00100E36D52D1DB061B
:1041000050D4E36D23F4817343F00203E3659368B5
:10411000DE0709D44FF0A0435B499B688968CD074F
:1041200003F0010340F18380D4E90215E36B2B43D4
:104130000B43657F94F8241043EA4533012943EA91
:10414000014303D1A16A013943EA4143E16A21B144
:10415000256B01F4787129430B43D6684B49656B95
:1041600031400B43D360136923F040632B43136149
:10417000936859072BD593686369012B4FD0136B54
:1041800023F00F031363E36D23F0030343F00103F4
:10419000E36502B070BD936813F0040F4FF00000A8
:1041A000E36DACD0E36D012043F01003E36502B092
:1041B00070BDFCF72DFF22682566936884F858507F
:1041C0009D007FF56FAF67E7012002B070BD936877
:1041D0001B07D1D4D16894F83830267F256921F4A3
:1041E00080415B0021F0020143EA86330B43D36038
:1041F00013693DB343F480331361D2F8C03023F424
:104200007F5323F03F032B43C2F8C03094F8403073
:10421000012B23D0136923F001031361ACE7116B69
:10422000236A21F00F01013B0B431363ABE7002B23
:104230007FF47AAF164965688B6823F47C132B43AF
:104240008B6071E723F480331361D2F8C03023F41C
:104250007F5323F03F03C2F8C030D7E7D4E91131D0
:10426000E66C256D0B43116943F00103334321F4E0
:10427000FF612B4321F004010B4313617CE700BF76
:1042800004000020632D3E05000100500740F0FFB0
:10429000000300502DE9F0474A4B06689D68B3685B
:1042A0005C0728D490F85830012B24D005F01F0566
:1042B0000123092D90460F46044680F8583005D951
:1042C000002384F858300120BDE8F08740F2212314
:1042D000EB40D807F4D5B368D9070FD4B2683A4B8E
:1042E0001A4247D0E36D43F01003E365236E43F0B9
:1042F00001032366E4E70220BDE8F087E36D334A5B
:1043000023F4706323F0010343F480739642E36562
:104310004ED0E36D23F48013E365E36D606D2C49AB
:104320002C4A13F480531CBF236E23F0060323662C
:10433000294BC3621C23C0E90C123360736800224E
:1043400043F0100384F858207360F16841F00101D4
:1043500043463A46F16006F1400100F0F5FF22685D
:10436000936823F0004323F03F0343F0040393607A
:10437000BDE8F087B368194A134043F00103B36006
:104380009246FFF761FE814626683368DB07B5D4A5
:10439000B368DA070FD4B36803EA0A0343F00103F2
:1043A000B360FFF751FEA0EB09000228ECD999E7B2
:1043B000002DAED0B1E7FFF747FEA0EB09000228C1
:1043C000E2D98FE7000300503F0000800001005059
:1043D000E943000861440008F9430008C0FFFF7F7B
:1043E000704700BF704700BF08B5806AFFF7FAFF4B
:1043F00008BD00BF704700BF836ADA6D12F0500F2E
:1044000010B5DA6D1DD1196842F40072DA650A68D8
:1044100012F0080FCA681BD012F4406F0DD1CA68A1
:1044200094040AD4DA6D22F48072DA65DA6DD1046C
:1044300003D4DA6D42F00102DA651846FFF7D0FFC7
:1044400010BDD20607D45B6DBDE810405B6B18470A
:104450009007F2D4E6E71846FFF7CCFF10BD00BF87
:10446000806A08B5C36D43F04003C365036E43F033
:1044700004030366FFF7BEFF08BD00BF2DE9F0414E
:10448000034682B093F858200020012A019000F0E2
:1044900003811C68A2680120560783F858004FD496
:1044A000D1E90020860904F1300506F00C0600F081
:1044B0001F0077594FF01F0C0CFA00FCC2F3846206
:1044C00027EA0C0782403A437251A268550749D542
:1044D000A2680A68A068C00713D4CE68C148D4F89F
:1044E000B050DFF828C306F01807F840C2F31207EF
:1044F000104025EA070528436645C4F8B00000F0DF
:104500008B80B9490A422BD0B84DB949A8688A4274
:1045100000F0E0761ED0B7498A421BD0B6498A42E5
:1045200040F0BE8010F080701AD1B44A944217D087
:10453000AA6822F0E072164346F08076AE6003E08F
:10454000DA6D42F02002DA65002283F8582002B0CA
:10455000BDE8F081020203D4B4F1A04F00F0CB809B
:104560000020F1E7A5680A6815F00805B2D18E6849
:10457000C2F3045E0720D20D00FA0EF0B6F1004F30
:1045800002F004026FEA000004F1140C00F01A813A
:1045900052F80C7006FA0EF63840064342F80C60EA
:1045A000626922F000426261D1F810C0E7680A68CF
:1045B000BCF1040F04F1600000F0BB804E6950F8BC
:1045C0002C80DFF84CE2C7F3C1077F0002F0F8420D
:1045D00042F00042BE40164308EA0E0E46EA0E06BE
:1045E00040F82C600F698E6950F8272091F81CC0A4
:1045F00022F08072324340F827200E6950F82620BE
:10460000BCF1010F22F0007208BF4FF00075154396
:1046100040F826500A685DE7002F55D092FAA2F0C4
:10462000B0FA80F0013000F01F00092800F2F2809B
:1046300092FAA2F6B6FA86F692FAA2F0B0FA80F0F2
:1046400001300136012500F01F00B60605FA00F022
:1046500006F0F846064392FAA2F5B5FA85F501355B
:1046600005F01F0505EB4500000530434FEAD05C1F
:104670000CF0040C04F11407C0F304505CF807506C
:104680008E680722824025EA020506FA00F02843D8
:104690004CF807000A6834E7022002B0BDE8F08158
:1046A00057498A427FF45CAF10F480007FF458AF22
:1046B000524A94423FF454AFAA6822F0E072324367
:1046C00042F48002AA603FE7920E013202F01F0519
:1046D0000126920602F0F842AE40092D46EA020693
:1046E00005EB4500C0D9A0F11E02120542F0007290
:1046F00042EA0600BAE73D48424A8168424C21F04E
:10470000E0710E4346F40006866012689209A4FB2D
:104710000212920902EB420292000192019A002ACF
:104720003FF41EAF019A013A0192019A002AF9D191
:1047300016E7256E256EC2F31207C5F38465002FB8
:104740004AD1C2F38466B54206D1226E22F00042FD
:1047500022660A68C2F3120745684668C6F3846693
:10476000002F79D1C2F38465AE4240F09580426853
:1047700022F0004242600A6885688668C2F312052A
:10478000C6F38466002D71D1C2F38465AE4200F198
:104790000C077CD1826822F0004282600A68386887
:1047A0003868C2F31205C0F38460002D6AD1C2F3E9
:1047B000846585427FF48EAE3A6822F000423A600A
:1047C0000A6887E652F80C60304042F80C006269D3
:1047D00042F000426261E7E692FAA2F6B6FA86F685
:1047E000B1E700BFFFFF0700000008800003005092
:1047F000000021C31000C090000052C7000100500B
:10480000000084CB04000020632D3E0500007F40A3
:1048100000F0FF0392FAA2F6B6FA86F692FAA2F038
:10482000B0FA80F001300136012500F01F00B60615
:1048300005FA00F006F0F846064392FAA2F5B5FA3A
:1048400085F5013505F01F0505EB4505A5F11E02AF
:10485000120542F000724BE792FAA2F5B5FA85F51F
:10486000AE4284D085688668C6F3846692FAA2F563
:10487000B5FA85F5B54200F10C078BD0C568C06864
:10488000C0F3846092FAA2F5B5FA85F591E7C6689F
:10489000C068C0F384608CE786688668C6F3846667
:1048A00074E700BF38B503689A68910702D59B6822
:1048B000002038BD9A68D20726D59A6802F00D020A
:1048C000012A09D0C36D43F01003C365036E43F0A2
:1048D00001030366012038BD9A6822F0004222F0ED
:1048E0003F0242F0020203219A6019600446FFF77A
:1048F000ABFB054604E0FFF7A7FB401B022805D8E9
:1049000023689B68DB07F6D4002038BDE36D43F0D5
:104910001003E365236E43F001032366012038BDD5
:1049200030B590F8583083B00022012B019235D079
:10493000012380F8583004460D46FFF7B3FFE36DBE
:1049400020BB23F4885323F0020322681B4943F061
:104950000203E365936805F0804523F0404345F08A
:10496000004523F03F031D43956005E0019B0133A3
:104970000193019B8B4214D89368002BF6DBE36D07
:1049800023F0030343F00103E36502E043F0100367
:10499000E365002384F8583003B030BD022003B033
:1049A00030BDE36D23F0120343F010030022012019
:1049B000E36584F8582003B030BD00BF01DE040079
:1049C00090F85820012A47D0F0B504680E680346D5
:1049D000B4F1A04F4FF0010083F8580007D0DA6D12
:1049E000002142F02002DA6583F85810F0BD274D0F
:1049F000AA68520709D5A268DA6D42F02002DA658A
:104A00000120002283F85820F0BDA06810F00400B7
:104A1000F2D11EB3DFF878E04F68DEF8082093F893
:104A200038C022F460423A4342EA4C32CEF80820C1
:104A3000A268D40727D4A86810F0010021D1DEF8BD
:104A400008208C6822F4716121F00F0146EA04020B
:104A50000A43CEF80820D4E7022070470C4A916838
:104A600021F460419160A068A968C90700F00100C5
:104A700007D430B9916821F4716121F00F01916080
:104A8000BFE70020BDE7AA68BBE700BF00010050F8
:104A900000030050F0B583B000230193002854D0E8
:104AA00002681368002B04464FDB437F03F0FF01CD
:104AB000002B7ED0D4E90163D4E903506169176803
:104AC00033430B43166840492B43034331400B43A8
:104AD00013601368180201D53B024ED53B4B9A4236
:104AE00062D004339A426AD004339A4215BF6FF001
:104AF00080426FF000524FF080414FF00051A369A7
:104B00009F0725D0324DA868DE064CBF08431040F1
:104B1000A8602F4DE8689F064CBF08431040E8602E
:104B20002B48416145689E074CBF0D431540DB078C
:104B300045601DD5264B1A6811431960637F03F049
:104B4000FF008BB1002003B0F0BD012003B0F0BD29
:104B50001F4B59681140596019680A401A60637FF9
:104B600003F0FF00002BEDD10123637703B0F0BD0C
:104B700017490B681A400A60F1E7164B16491B6883
:104B80009B09A1FB03139B0903EB83039B00019388
:104B9000019B002BA2D0019B013B0193019B002BA9
:104BA000F9D10A4B9A429CD16FF400124FF40011D4
:104BB000A5E701770162FCF7D5FA22687AE76FF47E
:104BC00080024FF480019AE70F7E00FF000201404F
:104BD0000004014004000020632D3E0510B483B0A2
:104BE0000023019330B103681A68002A02DB427F78
:104BF000012A04D0012003B05DF8044B70471A6805
:104C00000D4C0E4942F001021A602368A1FB0323F8
:104C1000DB0C03EB8303022242770193019B2BB150
:104C2000019B013B0193019B002BF9D1002003B0B4
:104C30005DF8044B704700BF0400002083DE1B4377
:104C4000074AD3684FF6FF010B40000243F0BF63F1
:104C500000F4E06043F400330343D360704700BFC7
:104C600000ED00E0184BDB68C3F3022330B4C3F15E
:104C70000705042D03F1040428BF0425062C19D9C7
:104C8000033B4FF0FF349C4022EA04044FF0FF3214
:104C9000AA4021EA020101FA03F22243120100288C
:104CA000D2B20ADB00F1604000F5614080F80023D9
:104CB00030BC704700242346E8E7044B00F00F00A7
:104CC00003441A7630BC704700ED00E0FCEC00E0D5
:104CD000002807DB00F01F0101234009024A8B4036
:104CE00042F82030704700BF00E100E00138B0F129
:104CF000807F0ED2084B10B4084C5860F02084F826
:104D000023000022072110469A6019605DF8044BC9
:104D100070470120704700BF10E000E000ED00E0A8
:104D20002DE9F0415FEA920E076811D00C4601EBC5
:104D30008E0C637894F80080E678A5781B0443EA2B
:104D400008633343043443EA0523A4453B60F0D1B0
:104D500012F003020BD0012A1AD0022A0AD101EB69
:104D60008E0311F82E205B7843EA02233B803868DB
:104D7000BDE8F08101EB8E0211F82E10537843EA62
:104D800001233B8093783B7007683868BDE8F08169
:104D900011F82E303B7007683868BDE8F08100BF1D
:104DA00000283CD0437F10B503F0FF020446FBB15E
:104DB0002379022262771BBB23681A4A5A619A68D8
:104DC00022F018029A60627922BB4FF0FF321A611A
:104DD000D4E90520996821F06001114399609A682F
:104DE00022F08002024301219A600020617710BD09
:104DF0000277FCF701FA237902226277002BDBD0DD
:104E0000D4E90212204600F051F830B962792368E3
:104E1000002ADAD022691A61DAE7012010BD0120E8
:104E2000704700BFB71DC104F8B50223046843777B
:104E3000A368D0F820C043F00103BCF1020F06467E
:104E4000A3600D4617461BD0BCF1030F0BD0BCF17D
:104E5000010F03D0012300207377F8BDFFF760FF37
:104E600001237377F8BD3AB1043901EB820751F899
:104E7000043F23608F42FAD1206801237377F8BD85
:104E80005FEA520C0AD00B4601EB8C0019885A8855
:104E9000043342EA014298422260F7D1FB0744BF43
:104EA00035F82C3023802068E7E700BF10B41E23BC
:104EB00002E013F1FF3321D321FA03F4E407F8D51C
:104EC000182A1DD8DFE802F00F1C1C1C1C1C1C1C1F
:104ED000231C1C1C1C1C1C1C0D1C1C1C1C1C1C1C1A
:104EE0002000072B0CD800685DF8044B41618368F3
:104EF00023F018031A43826000207047002AF2D082
:104F000001205DF8044B7047062BECD9F8E70F2B16
:104F1000E9D9F5E788B1037910B503F0FF0204463B
:104F20003BB1002302210122217118462361227125
:104F300010BD4271FCF7A6F9F3E70120704700BFEE
:104F4000F8B54379012B2DD00268022606710D4673
:104F500004461168012005F0100700FA07F30B431F
:104F600060711360FFF776F82268136865B903F083
:104F70003E03B34203D1536843F00103536001235E
:104F8000002023716071F8BDBE4003F47813B34272
:104F9000F5D1536843F002035360002001232371CD
:104FA0006071F0E70220F8BD10B483B000680024FF
:104FB0000194C46B019051B1019914310A440192DA
:104FC000019A0020136003B05DF8044B704701990B
:104FD00008310A440192F3E7704700BF03681A687A
:104FE000910410B5044602D55A6B920418D41A687D
:104FF000910002D55A6B920000D410BD0422227198
:1050000022694FF0005142F00202226159631A688E
:1050100022F0805220461A60BDE8104000F0FAB835
:105020000422027102694FF4005142F00102026150
:1050300059631A6822F480521A60FFF7CDFF236883
:10504000D5E700BF4379012B00F0C4802DE9F04182
:105050008F68144602230122042F0E460546427132
:10506000037179D0036804F01004F269012A69D051
:10507000D6E905C0DA6B0721A14022F44048C207F7
:105080006FEA01015AD500204FF4807247EA0C07FD
:10509000A24096F804C0074301EA0801D2437079A0
:1050A000BCF1010F02EA01024FF40078316808BF39
:1050B00047F4807708FA04F801286FEA080808BF67
:1050C00047F40077022908EA020800F0858048EAE0
:1050D0000108A74047EA0807DF631868D6E903120A
:1050E0004FF48046A64020EA06001860186840F693
:1050F000FE76A64020EA060601FA04F03043186066
:105100001868C026A64020EA060018609201186EB2
:10511000C1F3830140F60F7602F470620A4306FA87
:1051200004F102FA04F420EA0102144301210022EE
:105130001C66104629716A71BDE8F081820745D569
:105140000120A1E7996B326A1F20A04021EA0001EB
:10515000A2400A439A638BE7BCB9FEF775FF074686
:1051600004E0FEF771FFC01B01283ED82B685B6B83
:105170001904F6D40120FEF76DFF2B68726A1A64D9
:105180000DE0FEF761FF01282FD82B685B6B002B29
:10519000F7DB0120FEF75EFF2B68726A5A6404F0A9
:1051A00010049A6CB16AB76840F2FF30A04022EA5E
:1051B0000002A1400A439A64DA6CF16AFF20A04021
:1051C00022EA0002A1400A43DA644EE7BCFA8CF0FE
:1051D000400959E70220704701F088F80B4B9842CC
:1051E0000CD948F400482B6873E72B69032243F07D
:1051F00008032B6110462A71BDE8F081044A2B6830
:1052000090427FF666AF48F4804862E700688909FB
:1052100000B4C404704700BF00287CD003463F4A56
:10522000006890422DE9F04161D93D493D4A3E4C2C
:105230000144A2FB012109098900D3E902721E6918
:105240001C643A435C699D69DFF8F4E0DFF8CC80C8
:1052500032434FF0020C224383F825C0314CD0F882
:1052600000C0DE6959642A43C5B2083DA4FB054568
:105270001C6A32432CF4FF4C2C4E22432CF0700C51
:10528000C5F30414404598BF764642EA0C028908EB
:105290000125DFF8B0C0026005FA04F406EB810EC8
:1052A000B7F5804F1C65C3E912EC29D05868C2B22B
:1052B0000138032846F82120CCF8044026D81C49A0
:1052C0001C4898651144013A890002F01F0205FA52
:1052D00002F200245965DA650C6042600020012268
:1052E000D86383F8240083F82520BDE8F0811249B3
:1052F0000C4A124C0144A2FB0121090989009CE7D8
:1053000000225A6046F82120CCF804400022C3E96C
:105310001522DA65E2E70120704700BF070402406A
:10532000F8FBFDBFCDCCCCCC0004024020080240ED
:105330003F82001040090240F8FFFDBF000002401C
:105340000008024080080240F0B490F82440012C8C
:105350004AD090F825400125AC4280F824503DD138
:105360000468C76C0226002580F82560C56326689E
:10537000D0E914C526F001062660C7F804C015B1AF
:10538000D0E916677760466CD0F808C006F01F07B2
:105390000126BE40076C7E606360036BBCF1100F9A
:1053A0000BBFA260A160E160E26003B3236843F039
:1053B0000E032360836C1A68D20303D51A6842F483
:1053C00080721A601DB12B6843F480732B602368D0
:1053D00043F0010323600020F0BC7047002380F8F5
:1053E0002430F0BC022070470220F0BC70472368D4
:1053F00023F004032360236843F00A032360D9E702
:1054000090F82530022B70B50AD001220423002128
:10541000C363144680F8252080F82410204670BD10
:105420000368856C1968C66C21F00E01D0E9104242
:105430001960196821F0010119602B68416D23F48E
:1054400080732B6002F01F0201239340026D6360A2
:10545000726031B10B68D0E9162423F480730B60BD
:105460005460836B0122002480F8252080F82440BA
:1054700013B19847204670BD1C46CFE770B4D0E901
:10548000106304223168056803F01F039A400A4242
:105490002C680AD014F0040F07D02B689B0637D570
:1054A000036B7260CBB170BC184702229A400A426B
:1054B00015D014F0020F12D02B68990606D42B6871
:1054C000012123F00A032B6080F82510C36A726063
:1054D000002280F82420002BE5D170BC7047082200
:1054E0009A400A42F9D02207F7D52A68416B22F088
:1054F0000E022A60012202FA03F300247360C263E1
:1055000080F8244080F825200029E6D070BC0847A8
:105510002B6823F004032B60C2E700BF2DE9F0479E
:10552000DFF8208198F80060012E56D09A460123BA
:1055300014460D46814688F80030FEF785FD404E42
:10554000074605E0FEF780FDC01BB0F57A7F3ED828
:105550003269D103F6D437694CF2FA331F403FD198
:105560003369DA0744BF012333610023C8F80430EC
:10557000B9F1000F3CD1324A536943F00103536142
:105580002C60BFF36F8F0127C5F804A0FEF75CFD08
:105590002B4C054605E0FEF757FD401BB0F57A7F22
:1055A00043D82369DB03F6D423694CF2FA32134063
:1055B0003DD1206910F0010002D00122184622617D
:1055C00037B11F4A536923EA0707576100E00320F8
:1055D000002388F80030BDE8F0870220BDE8F0879E
:1055E000D8F804303B43C8F8043001203761EFE7B6
:1055F00009F1FF33012BC9D811494B6943F48023CA
:1056000022464B61EFF3108072B62D1B04F58071BA
:105610001368535104328A42FAD180F31088B9F1E9
:10562000020F08BF4FF48027B0E70320C8E7D8F87F
:1056300004201A43C8F8042001202361C0E700BFFA
:105640000020024010000020064B5A69002A01DBAE
:10565000002070470449054A99609A605869C00F54
:10566000704700BF0020024023016745AB89EFCDA2
:10567000044B5A6942F000425A615869C043C00F56
:10568000704700BF0020024070B50646FEF7DCFC04
:10569000104C054604E0FEF7D7FC401BB04216D87C
:1056A0002369DB03F7D423694CF2FA32134007D1A4
:1056B000206910F0010002D001221846226170BD5D
:1056C00005494A681A434A600120236170BD0320DE
:1056D00070BD00BF00200240100000202DE9F047FF
:1056E000544F3B78012B78D0054601244FF47A7053
:1056F00088463C70FFF7C8FF824620B100233B700C
:105700005046BDE8F0874C4B78601A6812F4007F71
:105710001A6867D1520540F18B801A68022122F481
:1057200080621A6039772B68012B68D04FF0FF3305
:10573000C8F80030D5E9026333449E4227D23E4C7C
:105740004FEAC60905E0D5E9023201361344B342F7
:105750001DD9636909F4FF6223F4FC731343636189
:10576000636943F002036361636943F480336361F7
:105770004FF47A70FFF788FF636923F4FD7309F132
:10578000080963610028DED0C8F8006082463B7FCC
:10579000DBB203F0FD02012A0CD1274A116841F463
:1057A00000611160116821F400611160116841F419
:1057B00000711160023B012B0CD81F4B1A6842F498
:1057C00080521A601A6822F480521A601A6842F4F1
:1057D00080621A6000233B7790E74FF0020A504640
:1057E000BDE8F08722F400721A601A6851051DD5D1
:1057F0001A68032122F480621A60397793E76B6894
:10580000DB0704D50C4A536943F0040353610A4C87
:10581000636943F4803363614FF47A70FFF734FFB8
:10582000636923F0040382466361B0E73C777AE75B
:10583000387778E710000020002002402DE9F04F73
:10584000D1F800E083B0BEF1000F00F08180DFF8F6
:10585000A09188460026012303FA06F212EA0E07F9
:1058600072D0D8E9011421F0100B06FA03FC0BF1F9
:10587000FF35032303FA0CFA012D6FEA0A0A04FA32
:105880000CF468D9C3680AEA03031C43C4600268C5
:1058900001F0030302EA0A0A03FA0CF343EA0A03DB
:1058A000CD00036050D54C4A136E43F001031366DC
:1058B000136E26F0030404F1804403F0010304F5A1
:1058C0008034019306F00303019AA5689B000F2220
:1058D0009A40B0F1904F25EA020213D03F4DA84202
:1058E0006BD03F4DA84263D03E4DA8426AD03E4D9A
:1058F000A8426CD03D4DA8420CBF0525062505FAEF
:1059000003F31A43A260D9F80030FA43CC0354BF22
:1059100013403B43C9F80030D9F804308D0354BF1D
:1059200013403B43C9F80430D9F80830CC0254BFC7
:1059300013403B43C9F80830D9F80C30890254BFF2
:1059400013403B43C9F80C3001363EFA06F382D1CE
:1059500003B0BDE8F08F8368D8F80C5003EA0A035F
:1059600005FA0CF51D4385604368C1F3001523EA71
:1059700002032A46B2401A434260C36803EA0A039C
:105980001C43BBF1020FC46081D1F40800EB840416
:1059900006F00703256AD8F810209B004FF00F0B84
:1059A0000BFA03FB25EA0B059A402A4322626EE7B5
:1059B000022505FA03F31A43A4E7012505FA03F3C8
:1059C0001A439FE7032505FA03F31A439AE70425D0
:1059D00005FA03F31A4395E700100240000400485B
:1059E00000080048000C004800100048001400485F
:1059F000000401400AB9816270478161704700BFAD
:105A00003B4A10B4136868B903F4C063B3F5806F00
:105A100014D0D2F880305DF8044B23F48073C2F8C0
:105A200080307047B0F5007F2FD023F4C06343F47B
:105A30008063136000205DF8044B7047D2F880103B
:105A40002C4B2D4821F48071C2F88010116821F48C
:105A5000C06141F4007111601C685169322303FB7D
:105A600004F3A0FB03039B0C480503F1010306D5D7
:105A700000E023B15169490503F1FF33F9D41C4B10
:105A80005B695C05D6D50320D5E703F4C063B3F5A5
:105A9000806F09D0D2F880305DF8044B43F48073F6
:105AA0000020C2F880307047D2F88010114B1248A5
:105AB00041F48071C2F88010116821F4C06141F492
:105AC000007111601C685169322303FB04F3A0FBD1
:105AD00003039B0C480503F10103D0D501E0002B23
